:1000000068BD002053150300299E0000190E03004F
:10001000A70B0000000000000000FFFF54000000DC
:1000200004180F00000000000000000000000000A5
:1000300000000000000000000000000000000000C0
:10004000000000000000000000000000A900000007
:100050000000000068BD002053150300299E000029
:10006000190E0300A70A0A010002000004180FACD1
:10007000006AA9000000000000000000000000006D
:100080000000000000000000000000000000000070
:10009000000000000000000000000000FFFFFFFF64
:1000A000FFFFFFFFFFFFFFFF00600B0000000000ED
:1000B00000000000FFFFFFFFFFFFFFFF80000000C8
:1000C0000000000000000000000000000000000030
:1000D0000000000000000000000000008CFC002078
:1000E0008CFC002068BD002064A003006C15030098
:1000F00008B400202C1F002000E00B0000000000CE
:1002000068BD002053150300299E0000190E03004D
:100210009D7402001D0E0300210E0300000000006B
:10022000000000000000000000000000279E000009
:10023000250E03006B86000007A700000BAE000030
:100240002D0E03002D0E03002D0E03002D0E0300B6
:100250002D0E0300BD750200AB7200002D0E0300D1
:100260002D0E03002D0E0300B7900100919D01009B
:100270002D0E03002D0E03002D0E0300BB9D01006B
:100280002D0E03002D0E03002D0E03006FB1000094
:100290002D0E030053C002002D0E03002D0E03008F
:1002A0002D0E0300DDC20200CFC202002D0E03009E
:1002B0002D0E03002D0E03002D0E030093DD020012
:1002C00057DD020055DD020025D8020091DD020055
:1002D00059DD02005DDD02005BDD020081F70200F6
:1002E000C9DD02002D0E03002D0E0300812D00003C
:1002F0002D0E0300C1BB02002D0E0300E7B9000064
:100300002D0E03002D0E03002D0E03002D0E0300F5
:100310002D0E03002D0E03002D0E03002D0E0300E5
:100320002D0E03002D0E03002D0E03002D0E0300D5
:100330002D0E0300102B70B54A4A4A4B4B4C2468D3
:1003400065070CD4C60701D41C4209D100EA040594
:100350008D4208D0521EF1D16FF0020070BD2EE028
:100360006FF00108301D1C42FAD1002070BD70B53D
:100370003F4D6860E8680E46410700D51FE056F81B
:10038000040B141F0208101D241FA86044B108218B
:100390000820FFF7CFFF0100F4D00421296070BDD1
:1003A000042028600021211612C4162304D10C2039
:1003B0000ABDE87040BCE770BD4FF0FF3056301307
:1003C00041F67131284C0122284BE568E1621A6040
:1003D000606002262636300B2D0CFFF7A8FF05F0D3
:1003E00001050100033C201CFFF7A0FF01211F4A6B
:1003F00011600DB10021E16270BD2DE9F843184F85
:100400003D68894614464A200A80462D0C3962010F
:1004100022154B00203A100B1A6009E0324649467B
:100420004046FFF79E84501F0DD1B044B144A41B39
:100430004CB108F50056760B7603A6EB0806B442DD
:10044000ECD22646EAE70121085C10113962BDE8CA
:10045000F28380969800020001001C000340100403
:10046000130C1004000120034000000038B50446BE
:100470000D46104600F0AFF800202070A847BDE8F8
:10048000314000F0B6B8002240494148EEE7002272
:1004900040494148EAE780B5012000F0A1F8002179
:1004A0003E480170012000F0C0F8BDE8014000F0B6
:1004B000A0B880B5012000F05DFA394800F0EEF9EF
:1004C0003849087001BD80B500F06CFA012805D0EC
:1004D00034480078BDE8024000F0CAB901BDF0B56B
:1004E000002400E0641C304D2E88E3B2B3420ED2EB
:1004F000E7B20C256F432D4B3B441E78864201BF6B
:100500005D888D421E799642ECD11846F0BD0020E0
:10051000F0BD80B519B900F027F9002002BDB1F196
:10052000004F02D200F02BF9F7E7022002BDB1F52F
:10053000000F3CBF0902FFF7ECBF0220704770B507
:1005400005461E46FFF7CBFF04000ED0284600F0FC
:1005500045FD50B1A0683146FFF7DBFF28B904998B
:100560000598A0716171002070BD022070BD1CB59E
:10057000049C0093134601940022FFF7E0FF16BD90
:1005800080B500230093FFF7F2FF02BD2384000033
:1005900024CA00205BF401002CCA00201CCA0020E1
:1005A000F0BE00206FFB002090C70020ACBE0020F2
:1005B00080B5FFF794FF20B1806800210170002012
:1005C00002BD022002BD0022F2E770470C480D492F
:1005D00008600020704700B170207047002070470D
:1005E00080B500F013F8FF2801D1A32002BD002040
:1005F00002BD00207047704700BF03480078704775
:10060000F69B0300D8CD002054CD002080B500F02B
:1006100023FDFF2818BF002002BD00210170704794
:1006200000F0A2B8FFF783BF53E01CB5044669464B
:1006300000F038F848B9BDF8000000280CBF0021D0
:10064000411E89B2204600F038F813BD002908BFCA
:1006500000F03FB87047014680B53848026813681B
:10066000587900F02AF801F0D7F9012002BD33488B
:10067000E0B5026801A91368587900F013F8010089
:1006800002D1BDF8041011B901F0C6F908E00091DB
:1006900029A300220321092001F034FC01F0BAF95A
:1006A00001200EBD0223E0B50022019300910292C9
:1006B0004023032101F0D2FC0EBD02B582B02121FE
:1006C00002AA0191009240230022032101F097FC2D
:1006D0000EBD38B50546032100F03FFCFF280EBFD4
:1006E0000024174901EB80040CB9022032BD694691
:1006F0002846FFF7D7FFA8B9207848B90121217013
:10070000BDF800006080BDF80010284601F03FFFF2
:10071000BDF8000030B14FF47A7203212846FFF78C
:100720002FFF32BD00202070284601F031FF032149
:100730002846FFF748FF32BD760000005CCE00205F
:10074000F8D9002038B54478456801F05AFF0C21EB
:100750004C438B498B4B0A59521B9A4238BF0D515F
:10076000BDE8324001F053BF10B5044601F086FFEA
:100770006060042020702046BDE81040E2E738B5F4
:1007800004460D4601F07AFF2D18656001202070A7
:100790002046BDE83240D5E710B50446207860B168
:1007A000042806D001F06AFF6168764B421A9A422B
:1007B00001D2002010BD081A10BD4FF0FF3010BD4F
:1007C00070B5044601F05AFF054601F01AFF0646CF
:1007D00060686FF0004100F02DF845192560304643
:1007E000BDE8704001F013BFF8B505460E4614464B
:1007F00001F044FF024600239CB1FF20207010E06E
:10080000087860B1042811D048685E4F111AB942C7
:100810000CD3801AB04202D2064604B123705B1C8E
:10082000083529680029EBD13046F2BD04B12370A8
:100830000020F2BD0022D7E770B5054601F01EFF8B
:100840000646514C10E0017869B1042904D0416892
:100850004C4A711A914206D20423037020606968E1
:10086000884700202060083528680028EBD170BD3B
:1008700010B5044601F002FF0C225443404A414B9C
:100880001159401A984207D214446068FFF7D4FF08
:100890002046BDE8104093E710BD000070B5044647
:1008A0003A4E3B4A70781378984204D35FF0F601D1
:1008B00038A001F049FF75780C20314A2B4643439C
:1008C000691C7170D11801264C600E7200E04570F1
:1008D00054F8080B0028FAD10846FFF771FF2846A4
:1008E00070BD0000F8B50C244FF0FF31604300915B
:1008F000234D05F1080100220A54244E96F8000009
:1009000020B302F01DF820B940F22F1121A001F010
:100910001BFF01F0B3FE02460023DFF868C005E0CC
:100920000098814288BF014600915B1C7178D8B263
:1009300088420FD260432958571A674506D305F1FC
:100940000807385C891A08B90029E9D102F005F8CE
:100950000020F2BD684602F01BF810B9684601F0AD
:10096000B0FE0120F2BD0C214843054B0122184482
:100970000272704705490870704703480068704765
:1009800060F40020010000809CF400206DFB00203A
:10099000219C03006576656E742D636F6E74726FB3
:1009A0006C2E630002480078704701490870704758
:1009B00022FC0020DFF8D0090078DFF8D01982B0DF
:1009C00009888DF80300DFF8C809ADF80610008823
:1009D000DFF8C0190978ADF8040000208DF8021086
:1009E000ADF800000122DFF8B0099DF80310027095
:1009F000BDF80620DFF8A409017042809DF80220AE
:100A0000BDF8041082719DF801208180DFF89019F3
:100A100001EBC2039DF80010012283600173427351
:100A200002B07047DFF8700900787047DFF86C1982
:100A300001EB0010407B00F001007047412818BF17
:100A4000422803D0432818BF442801D10120704711
:100A500000207047412818BF422801D1012070476B
:100A600000207047432818BF442801D10120704757
:100A700000207047F8B515461E46069A079B0446A7
:100A800000F040FA60B1042100F0CFFB070007D06E
:100A90002046FFF7A5FD324629462046B84794E098
:100AA000F1BD2DE9FC471400814688461F461CBF56
:100AB0000A9D002D1FD0F7B128780C9B0107618893
:100AC00020794CBF4022802200F01CFA98B1082106
:100AD00000F0ABFB824670B120790B9EFFF780FDE2
:100AE000009501963B46224641464846D047BDE820
:100AF000F347FFF77EBDBDE8F387F8B5069C1646C1
:100B00001A460546234600F0FDF9D0B121000BD16D
:100B1000022100F08AFB040013D02846FFF760FD95
:100B200031462846A0470BE0102100F07EFB07006D
:100B300007D02846FFF754FD224631462846B847DD
:100B400043E0F1BD2DE9F843089C90461A4606465D
:100B5000234600F0D7F908B9862016E000259CB995
:100B6000202100F062FB814670B10B9F0A9C099D19
:100B70003046FFF735FD009723462A46414630466A
:100B8000C8470546FFF735FD2846BDE8F283F8B5AE
:100B900004462078A5680026FFF722FD11E0F1B297
:100BA00014222868514347183988207801F0C1FC85
:100BB0000121384600F039FB01001CBF207888472E
:100BC000761C2979F0B28842E9D3BDE8F140FFF7FD
:100BD00010BD38B50024DFF8C0570AE0DFF8BC07C5
:100BE000210600EB1150427BD10748BFFFF7CFFF32
:100BF000641C2978E0B28842F0D331BD7CB5069CF4
:100C00009578260008BFD678412D18BF422D06D012
:100C1000432D09D1B21E92B200F0ACFF16E0721E55
:100C2000D2B200F08DFF11E0442DF3D033B9230090
:100C300004D0D3789C4201D2892076BDD27819B9EC
:100C4000114601F0B3FE01E001F0B4FE002076BDD4
:100C500010B5002301E0001D5B1C9CB28C4204D245
:100C600004889442F7D1408810BD002010BDDFF801
:100C70003417401A0C2290FBF2F20021DFF828070B
:100C800010E00288B2F57C4F28BF00F002B8084699
:100C9000EDE7DFF81817401A142290FBF2F200215A
:100CA000DFF80C0792B2D3E710B50C4601886288D2
:100CB00091420DD1037B2279134209D0B1F57C4FCB
:100CC00004D3FFF7E6FF2189884201D1012010BD3E
:100CD000002010BD10B514460A88E3889A420AD154
:100CE0000288B2F57C4F04D2FFF7CBFF21898842FE
:100CF00001D1012010BD002010BD2DE9F74F82B0B9
:100D0000044698460025002703E0C88845197F1C43
:100D1000FFB2DFF884160A78974280F0AC80DFF8E3
:100D20007C0600EB07102378027881689A42ECD1A8
:100D30000091407BC107EAD5002603E0B9F80A001C
:100D40004519761C0099F0B20A799042DFD20A6800
:100D5000F1B214204843214602EB00094846FFF750
:100D6000A3FF0028EAD04FF0000B09E09AF8040036
:100D70000BF1010B10F0300F04BF9AF80300451976
:100D8000B9F808101FFA8BF08842DAD21FFA8BF2FA
:100D90000C21D9F804004A4300EB020A22465146CE
:100DA0004846FFF797FF0028E0D0039827465446AF
:100DB00000B104602079810611D5DFF8E805002133
:100DC00005E00279930644BFC27851180C30A04266
:100DD000F7D3DFF8E00589B200EB010B04E0DFF8A0
:100DE000D815ADB201EB050B0E9E049D3046E6B161
:100DF00021464846FFF745FF024623887988387820
:100E0000AA4601F092FBF8B12079C1062AD5002E3E
:100E1000214648461AD0FFF734FF009503467988EB
:100E20003878224601F098FB26E02DB3214648464B
:100E3000FFF727FF0246238879883878DA46AB46E1
:100E400001F071FB0028DFD17E2015E0FFF719FFCC
:100E5000E17800950346019179883878224601F0BF
:100E600079FB09E0CDF800803346224651465846CA
:100E7000FFF7C4FE00E0862005B0BDE8F08F2DE945
:100E8000F843044688461646994600252179E8B27B
:100E9000884221D2EAB2142320685A43871838883E
:100EA000404517D131000AD0802E03D1397B0A0684
:100EB00005D40FE0402E0DD1397B4A060AD5B0F596
:100EC0007C4F0CD33846FFF7E4FE484518BF5FEA75
:100ED000090004D06D1CD9E70020BDE8F283384634
:100EE000FBE7134680B507E0134680B5402204E0D7
:100EF000134680B5802200E0002200F003F800B124
:100F0000012002BD70B50C4615461E4600F0A4F83F
:100F1000FF2801D1002070BD2146DFF8804404EB9A
:100F2000001033462A468068BDE87040A7E70023DA
:100F3000E8E770B50C4615461E46002100F034F86F
:100F400030B9DFF85804806833462A462146EBE77B
:100F5000002070BD1346402201E00022FAE72DE98F
:100F6000F84F82468B46904699460026FFF7CAFF07
:100F700008B9FF2016E00027DFF82044DFF81854F6
:100F80002978F8B288420CD20001205C504508D084
:100F90004B4642465946FFF7CCFF00B1761C7F1CFA
:100FA000EEE7F0B2BDE8F28F70B50022DFF8EC3367
:100FB000DFF8E4532E78D4B2B4420BD224011D5D85
:100FC000854205D10D0007D01C44647BE50703D49E
:100FD000521CEDE7FF2070BDD0B270BD80B500217E
:100FE000FFF7E2FFFF2801D1002002BD00F061F809
:100FF000407B00F0010002BD70B50E4604460021A2
:10100000FFF7D2FFFF2801D1002070BDDFF88C135D
:1010100001EB00153200687B00F0010114BF40F0C5
:10102000010000206873B14214D076B12846FFF762
:10103000AEFD0FE0142200685143761C0844027B89
:1010400001882046D209FFF7B3FAA868F1B2027905
:101050009142EFD3012070BD0121A5E7DFF83C13D9
:101060000001085C7047F8B50C46FFF7F5FF014634
:101070000020FF291FBFDFF8242302EB011189683C
:10108000002915D0002214270D79D3B2AB420ED21D
:10109000D6B20B687E43451C33441B7B260001D12E
:1010A0001B0600E05E0648BF2846521CECE7C0B2B3
:1010B000F2BDDFF8E81201EB00107047F8B50C46FE
:1010C0001546FFF7C9FF01460022FF291DD0002366
:1010D0004FF0140C01E0521C5B1CDFF8C00200EB67
:1010E0000116DFB2B0680679B7420ED200680CFB79
:1010F00007F73844067B15B1760602D4ECE73706CD
:10110000EAD5D6B2A642E6D1F2BD0020F2BD00215A
:1011100009E010B50446012100F005F82046BDE8BD
:10112000104001F0A9BC2DE9F84F86B0814601F0CE
:1011300070FD99490A7805904FF0000B0492DFF892
:101140005CA207E00AEB0010017B059881420FD0FA
:101150000BF1010B04995FFA8BF0884246DAB9F182
:10116000FF0FEFD04846FFF777FF8346FF283DD0BB
:1011700000273FE00328ACBFA26804F10802012069
:1011800000900023002101A8FFF7B7FD761C2989F4
:10119000B0B288422DD2B2B20C2168684A4384189A
:1011A0002379D906F2D41AF808208DF8042029886A
:1011B000ADF806102079410628464CBF8021402119
:1011C0008DF808102188ADF80A102146FFF759FD67
:1011D000ADF80C002179E0784A07CBD5A268032846
:1011E000CDDB1268CBE7B9F1FF0FB1D007B0BDE896
:1011F000F08F7F1C4FEA0B604FEA10580AF108008D
:1012000050F80800F9B202799142ECD20168FBB2C1
:1012100014204343CD182A8940F22D118A42A8BFD9
:1012200001F0D4FD0026B2E7704730B5047B0122FF
:1012300000230C4205D1002030BD144218BF5B1CB6
:101240005200D5B28D42F8D30069DBB250F82300CA
:1012500030BD5A49401A8003020C00215848F7E477
:101260002DE9F84F054600244FF6FF79A246487D48
:1012700035B108B9022507E0012804D1012503E0B2
:1012800008B9082500E004250026934698464B48F7
:1012900000EB86073988594516D1FB782B4213D0CD
:1012A000B878404510D30CB182450DDBD9060BD57B
:1012B0003846FFF7CEFFB9781CB1514501DB4845F0
:1012C00002D201248A468146761C2A2EDFDB48465C
:1012D000BDE8F28F2DE9FE4F002700284FF00108EE
:1012E000487D06D008B9022407E0012804D1012472
:1012F00003E008B9082400E004240E980C9DB946C8
:101300000D9EDDF83CB08A46ADF800200193ADF8A3
:1013100030508DF83800294800EB89052988BDF840
:101320000000814224D1E978214221D0A9789DF89A
:10133000380081421CD3E9789AF80F00CA0608D514
:10134000B0B12846FFF785FFBAF81010814201D0EE
:101350000EE068B9BB4513D0BDF8300087420FDA04
:10136000A9780198C15532887F1CBFB2521C3280C7
:1013700009F10109B9F12A0FCDDB4046BDE8FE8F26
:101380004FF00008F9E700001C9C0300F29B0300EB
:10139000F49B03001D9C030021FC002054CD002081
:1013A000801E0300FC1C03008C1E0300A41D030010
:1013B000881E030064CD00202CC90020501C0300AF
:1013C000F81C030080B5FFF747FEFF2804D018B9CA
:1013D000DFF89C08007802BD002002BD10B502684D
:1013E000DFF8901813880B8054884C8052790A716A
:1013F00003681A794FF48053CB804A71026893795D
:101400009C0644BF4FF48153CB809279530603D599
:10141000CA8842F04002CA808169DFF85C281378EC
:1014200039B9C088DFF8541803F0FD030880137041
:1014300010BD43F002031370DFF84448816916229F
:10144000204601F0B7FA0022227010BD80B50020BE
:10145000FFF7C1F8FF20FFF75AFEFFF7CAF8FFF7C2
:10146000E1FA01460122DFF8080801F0D5FCDFF8B7
:101470000438DFF810285221DFF80C0800F02DFDA9
:10148000FFF717F801F0FCFC01F034FDBDE8014066
:10149000FFF79FBB704780B501F02DFE20B903F028
:1014A00097FB08B901F043F801F095F8BDE8014059
:1014B00001F0A0B870B5034600204FF6FF72DFF8C8
:1014C000CC4734F8305095420ED09D4209D1B3F547
:1014D0007C4F0ADB04EBC0056E888E4205D00D0000
:1014E00003D0401C80B2ECE7104670BD10B5044636
:1014F000FFF7E0FFDFF898174FF6FF720B88904276
:1015000003D12246DFF88C1706E0DFF8801701EBE5
:10151000C0004268DFF880171846BDE8104003F0AD
:1015200074BC1CB50446DFF87817087800283CD056
:1015300003F046FD0246DFF86C17042003F065FC5B
:10154000206841880091A2894379DFF85C17042064
:1015500003F05BFC042003F013FC20B12068218A17
:101560004088FFF7C3FFE07B28B1228ADFF83C17F1
:10157000042003F04AFCE07CDFF834170090A068F8
:10158000A37C0278042003F040FC217DA289A4689A
:101590000123521A92B22144042003F029FDC6A16E
:1015A0000420BDE81C4003F02ABC13BDF8B5044676
:1015B0002168DFF800574879FFF74EFD2268FF28C1
:1015C0000BD100F065F8DFF8F016022003F01DFCE7
:1015D0002068DFF8E816427944E00001DFF8E01601
:1015E0000B181F7B237FDFF8DC669F4209D000F0D9
:1015F0004FF82068DFF8D03600F045F8227FB1A11F
:1016000030E0891C085A1188DFF8C076884210D073
:101610004FF6FF73994202D1B0F5004F09D300F0A5
:1016200037F82068DFF8A83600F02DF82068028827
:1016300017E02079022818BF032818D111895079A2
:1016400000F086FF98B92068E37C29464288022092
:1016500003F0DBFB2068DFF87C3600F014F820682C
:1016600002893946022003F0CAFB0020F2BDA07BAC
:101670000028204602D003F053FD01E003F080FD76
:1016800000B10120F2BD31464279022003F0BDBB1A
:10169000E37C52882946022003F0B7BB7CB5144690
:1016A00022785507DFF830564CBF052203229342BB
:1016B00004D200922A46DFF8241633E0089E069AE8
:1016C00030603171F280B460B381207800F00100A5
:1016D000B0732178890801F00101F17320780121AC
:1016E0003175C00800F001007075F07B30B11A460A
:1016F000204604F067F8317D891C31753082307DD9
:10170000B389411C3175205CB074481C3075C9B276
:10171000615CC4B2A342F17409D2C0B200902A46FF
:10172000DFF8BC15042003F06AFB002076BD0798A3
:10173000B06101F06EFA3077012076BD2DE9F14FEE
:1017400084B00F469246DFF89C559B460E9EDDF80E
:101750003C802846DFF89015202204F087F8029597
:101760000498CDF8048000965B4652463946002422
:10177000FFF794FFDFF8249500287AD0C9F80050CD
:10178000A87CDFF8681508702846FFF7CAFE2846CF
:10179000FFF724FE284601F070F9002836D1B8F191
:1017A000000F35D1042F18BF052F03D0022F18BF0B
:1017B000032F01D1012200E00022E988286801916D
:1017C0000121438800930388E87C00F069F918B38D
:1017D000286881798A061FD44288DFF81415022010
:1017E00003F00DFBDFF80C450120207000220121E1
:1017F000284600F015F938B10346DFF8FC24DFF87D
:10180000FC14022003F0FBFA00202070012430E0D9
:1018100098F8140081072CD528684179FF2924D134
:101820000026DFF85084FFF7FDF8F1B2814220D2A4
:10183000F0B2FFF713FC0746F0B2FFF7F7F890B1EC
:1018400028682A8A41883846FFF74BFB58B128465A
:10185000FFF7C4FD2868477188F804702846FFF731
:10186000A5FE00B10124761CDDE72846FFF79EFEA9
:10187000044603F057FF1621DFF8040404F03AF899
:101880000020C9F80000204605B0BDE8F08FDFF861
:1018900070140878401C0870FFE700F07F00704764
:1018A000DFF8D4130A78002814BF42F0010202F0D6
:1018B000FE020A70704700005D000000DFF844146B
:1018C000087070472564000080B1DFF8381409788B
:1018D000012904D1018841F04001018070470229AB
:1018E00004D102884FF6BF710A400280704778B178
:1018F000DFF814140A78012A04D1DFF810241378D1
:101900000B7001E0022A03D1017841F0100101704F
:1019100070472DE9FE43DFF860432278D30706D5F0
:10192000DFF8EC13022003F06AFA002070E0DFF821
:101930006C130968DFF83C5371B109688B799E0616
:1019400003D5EB8843F02003EB8089794B0603D560
:10195000E98841F04001E980DFF82C6331784B07DA
:10196000DFF8881347BF0F78F7700B787370DFF8D4
:10197000147391070CD539883246C14800F0F9FD3F
:10198000814620784FF0490800F0FD0020701AE0F1
:10199000BA490C884FF6FC739C420AD23B880190EE
:1019A00000962A46214600204FF0550804F0E5F83D
:1019B00008E03A8800903346294620464FF0420816
:1019C00004F0C0F88146A87981064CBFDFF8444393
:1019D00044A403F0F5FA02460294CDF80490CDF841
:1019E0000080DFF83433DFF83413022003F007FA05
:1019F000DFF82C13022003F008FA3A88012331465D
:101A0000022003F0F5FA38A1022003F0F8F9484665
:101A1000BDE8FE8300207CE70146A0480068002264
:101A200070B5044620790E461546002818BF0128D7
:101A30000BD1A0680178CA0601D5300005D0A07B83
:101A4000002804BFE07C0B2801D1002070BD0021DC
:101A50008C4A1180607DE17B00280CBF08200020AB
:101A600011B903F075FE06E040F0040003F070FECB
:101A7000208A03F07CFEA07C03F06AFE0B2003F0BA
:101A800067FEE07C03F064FE304603F061FE204612
:101A9000FFF7A4FC2846BDE870403AE70022BFE704
:101AA00070B51D469F4B1C78924E012C01D03378A7
:101AB00013B10020307070BD0B0002D10AB10020BC
:101AC00070BD002C1EBF049C4FF657439C4206D0AD
:101AD00003460A462146284600F02CFD00B10120AD
:101AE00070BD0000000000005D00000038B5D28825
:101AF00052240346950608464FF6FD7148BF492417
:101B0000550548BF083C150548BF083C120448BFAE
:101B1000A41E032B0ED8DFE803F00902060BC0B2A7
:101B200004F024FC02E0C0B204F04AFE014601E0E9
:101B3000641EE4B2084601F0ACF9241AE0B232BDEA
:101B400070B50C000546164608BF002003D021786A
:101B5000FF2902D1FF20287070BD204603F052FEFD
:101B6000864288BF06463246611C681C00F022FF90
:101B70002E7070BDF8B505460C00164603D1002046
:101B800068702970F1BD2078FF2804BF6078FF28B5
:101B900002D128706870F1BD204603F038FE074678
:101BA000BE42B8BF37463A46A11CA81C00F002FF4F
:101BB0002F703F126F70F1BD2DE9F041541E0BB331
:101BC000042A46DC0023002698465FFA88F59542F1
:101BD00025D2651B002814BF10F805C04FF0000C7B
:101BE000571E4D5DA7EB0807FF000CFA07FC05FA2E
:101BF00007F74CEA03033E4308F10108E5E7AE426C
:101C000024DB5B1CDDB2954223D2651B00280CBF90
:101C10000026465D4D5DB542F1DA01201AE0042A46
:101C200010DAD5000120D2006D1E00FA02F25242F5
:101C300043FA05F1CC0746FA05F048BF1343C00745
:101C400048BF16439E42E8DBB34202DA4FF0FF3052
:101C500000E00020BDE8F0810021334A01E0891C4A
:101C6000C9B2535C8342FAD35018407870470000E1
:101C700026FC002078CD00202BFC002036F600202A
:101C800060CE0020B2F8002084CD00209C2C030000
:101C9000E0FB0020982A0300B02A03005CCE00205D
:101CA000BCC70020B82A0300C02A0300E02A0300B2
:101CB000EC2A03000C2B03002C2B0300482B030001
:101CC00054CD0020502B0300782B0300882B0300F9
:101CD000802B0300902B0300B42B0300982B0300F0
:101CE000BC2B03003CCE0020EC2C0300C0C700201E
:101CF000D82B030027FC0020282C0300002C030015
:101D0000C1C7002028FC002029FC00202AFC00205C
:101D1000302C03007C2C0300742C0300582C03008F
:101D20008C2C0300BFC700200C2D03002838082886
:101D30008041C00F704740B11C280BD01D280CD02B
:101D40001E2818BF1F2805D009E00B39102906D21C
:101D5000002070471B29FBDB01E00929F8DB8A2002
:101D6000704770472DE9F34F81B0022905DD190056
:101D70000AD0BDF80840052C04DA8549022003F09A
:101D80003EF8A5E042F0040200900127027019001D
:101D900005D000980327437000981B0A83700C9CA1
:101DA000FFF775FD00994FF0000BC85500987F1C98
:101DB000BBB2C4547F1CDDF8389007E02246414690
:101DC000184403F043FDE7190BF1010B0D985FFA7E
:101DD0008BF1405C00287DD0002605464FF0000ABC
:101DE000B046732D38DC4C2D59F8048B1CBF532D95
:101DF000622D14D159F8044B4C2DA4B206D1A24641
:101E00004FF6FF7082453DD002263BE0532D39D17D
:101E10005FFA84FABAF1FF0F34D0012632E06C2D5C
:101E200004D1404603F0F3FC841C13E0732D04D16D
:101E3000404603F0E7FC441C0CE0A5F130000A2802
:101E400038BFA5F1300405D3A5F14100072822D2FF
:101E5000A5F13704A4B215E00024752D08BF0126B2
:101E60000ED0762D08BF02260AD0782D05D1032684
:101E700006E02B463219474927E0772D0BD104267F
:101E800059F804ABBDF80810BAB2A218B2189142C2
:101E9000EFDB00980BE02A463F49022002F0AFFF3B
:101EA00016E000F803A07F1C4FEA1A2A761EF1B252
:101EB000BBB20029F5D10090002C85D0B8F1000FFD
:101EC0007FF47CAF2B4622463449022002F097FF74
:101ED000002000E0B8B2BDE8FE8F10B5304C2060A5
:101EE0003048018030490A60304A136010BD7FB528
:101EF0000C46089909AD009302951346019100F034
:101F000017F808E07FB50C4608A90092029100F08E
:101F10000FF801930023FFF725FF23490A68234B9D
:101F2000108019684FF480524C80CA8004B070BD94
:101F300002461C4D1A4E2988306870477CB50192C4
:101F4000174A1468184D2E680094184C338822687C
:101F500003F013FE76BD0022F0E738B500F003F879
:101F600003F0F0FD32BD00910F4C0D4925680B6860
:101F70000E492A88096870470021EEE70B4800687F
:101F800070470A4A13681871106841717047000061
:101F9000901E0300D41E0300B81E0300081F030098
:101FA0006CCD0020F2F5002070CD002074CD002013
:101FB0002DE9F84785B0109D0F9F0E9C0295019763
:101FC00006468A4690469946009400F0AAFA010017
:101FD00003D0022803D002D30EE001200CE00CBF96
:101FE00001200020002104910390029501970094A4
:101FF00000F065FA00F0B2F906B0BDE8F087F0B580
:1020000085B00A9D0B9C0026012704960397029435
:102010000195009611E078B585B000F005F84023F1
:1020200000F09CF906B070BD0A9C002501260193C2
:102030000495039602940095704700F08FF905B05F
:10204000F0BDF0B5012785B004970A9D0B9E0C9C4E
:1020500000270397029401960095EEE77FB5099C4F
:10206000089D0A9E02940024039601950094FFE7C0
:1020700000F034FA04B070BD2DE9F24F002482B0B4
:102080004FF6FF79A046B1F57C4F04D301260196A7
:10209000AD490E8801E00194012600258DF801006C
:1020A00093468DF8003021E0AAB20C20DAF8041033
:1020B00042438F183888584511D30CB180450EDB48
:1020C00039465046FEF7DDFD010008D039881CB1C5
:1020D000414501DB484502D20124884681466D1CFA
:1020E000BAF80810A8B28842DED36D1CA9B2B1427A
:1020F00013DA019840B1954A02EB8100438800F061
:102100000FF8FEF7FFFE03E000F00AF8FEF70FFFFE
:102110000028EAD000258246E2E74846BDE8FE8F67
:102120009DF80020BDF808109DF8010070472DE9CA
:10213000F84F84B0DDF8389090461C4605468A4634
:102140004B4622460026ADF80060FEF7DBFEB346A4
:1021500007008DF80450ADF806A08DF80840ADF8E2
:102160000A80ADF80C904FD001A9FEF79DFD002824
:102170004AD0ADF802800024DDF83C90DDF840A0A4
:10218000BDF8008015E0B1B249450FD203F0EFFA77
:10219000A87803F0DDFA5FEA0A0006D02879C107C3
:1021A00054BF0520072003F0D3FA761C08F101087C
:1021B000641C3989A0B288421ED2A2B20C21786870
:1021C0004A433B888518B3F57C4F09D2288801AA79
:1021D0002946ADF80A003846FEF77CFD0028E7D016
:1021E0002888BDF802108842CDD20BF1010BDDE743
:1021F000002005B0BDE8F08FB6B21FFA8BF00644A0
:102200001FFA88F08642F3D10120F2E72DE9F84762
:1022100085B04FF00009DFF838A101E009F10109AC
:10222000FEF700FC5FFA89F1814236D2002736E0E2
:10223000A078FEF717FCD0B104A803F0E8FA16E086
:10224000002103910222029204A9019100902288A8
:1022500029881AF8080000F041F9862807D0A078EC
:10226000FEF7F8FB0028E3D004A803F0CBFA761CB5
:102270002989B0B2884211D2B2B20C2168684A43AF
:10228000841800F0A3FD21462846FEF7FAFC2179C8
:102290004A064CBF80234023D2E7ADE67F1C4FEABD
:1022A00009604FEA10580AF1080050F80800F9B226
:1022B00002799142B2D20168FBB214204343002656
:1022C000CD18D5E7F0B585B00B9D1646052D32D358
:1022D00004AC039402270A9A02970DF112040194A8
:1022E0000092324600F0FAF8040026D19DF8100062
:1022F00002220DF1120104F01FFC04001BD02D1F5F
:10230000A54218D3304603F032FA002003F020FA39
:102310009DF810000F4D03F01BFA2E88C6F15201F4
:102320008C4208DA0C4B22460DF11201981900F08C
:1023300041FBA4192C8005B0F0BD304603F017FA1C
:10234000204603F005FAF6E7F89B0300881E030019
:1023500054CD0020B2F8002084CD00202DE9F84FA4
:1023600088B00646129D00208A4690469946049001
:1023700000908DF81460ADF816A08DF81890ADF8A7
:102380001A80ADF81C500023002204A905A8FEF70E
:10239000B4FC049808B986208DE0159860B90499BA
:1023A0009DF850008A78904218BF8D20F4D10979A9
:1023B000C80758BF8820EFD50498139F01794807B4
:1023C00026D50499886841680498029181688868D4
:1023D000049901908878FFF7A9FC834604985B462E
:1023E000C1788DF8001003290A4639461ED202A88A
:1023F000FFF7E2FB9DF8002004465B46394601A842
:10240000FFF7DAFB012C1CBF4FF0FF3188421CD0D4
:10241000169800284ED104984FF6FF7239468078FE
:1024200004F08AFB040012D1012044E00298FFF777
:10243000C3FB012809D09DF8002001985B4639466E
:10244000FFF7BAFB10F1010FE2D1872033E00397C9
:10245000C0B200F039F800F0B0F801002BD10397BA
:10246000E0B200F031F8FEF76DFB010023D101204E
:10247000009000233A46002105A8FEF73EFC01002B
:1024800019D1049B524631463846FEF7CDFE0297DD
:1024900000F01BF800F0A9F803979DF85000E4B293
:1024A0000294019000F00AF800F086F800F006F8B7
:1024B000FEF723FB002009B0BDE8F08F00954B46E6
:1024C000424651463046704702909DF850000095B4
:1024D0004B4601904246514630467047F0B585B0B4
:1024E0001C460A9E0B9D0C9B002701978DF8080047
:1024F000ADF80A108DF80C40ADF80E20ADF8106064
:1025000000972A4601A902A8FEF7F7FB010004D1B3
:102510000D9911B1019A93780B7005B0F0BD704719
:102520007047012070470120704701207047B52097
:1025300070477047002070470020704700207047A8
:10254000002070470020704700207047002070472F
:10255000002070470120704701207047B520704768
:10256000002070470020704700207047002070470F
:102570007047B520704700207047704700207047B3
:10258000012070478420704770477047704770473C
:10259000704704F00DBB14207047002070470448BA
:1025A00001680878012808BF022070470000000079
:1025B000D8CD0020032070477047002070470020CE
:1025C00070470020704700207047002070470020AF
:1025D0007047002070477047B52070470020704753
:1025E0000020704770470020704770477047704761
:1025F000B52070477047002070477047704770479C
:102600007047EFF31180302181F31188704780F318
:10261000118870477FB500F011F818B900F015F86F
:1026200004F009FB04B070BD7FB500F007F818B9DD
:1026300000F00BF804F01BFB04B070BD0446084624
:1026400015461E4602A904F006BC9DF82010BDF8F0
:10265000240033460091029901902A462046704793
:1026600080B500F00DF880B202BD80B500F008F82A
:10267000FA21B0FBF1F080B202BD000000BF000003
:10268000E0B504F0CDFB6A4604F01CFC18B14C2107
:1026900028A000F059F8DDE9000103B000BD0000FA
:1026A00080B504F0ABFD04F095FA20B15FF057015E
:1026B00020A000F049F8002002BD01201049087058
:1026C0007047FEB504462168002501B91CE000F002
:1026D0000CF808B100F002F8012019E0019500950E
:1026E000216800233A46301D94E7054E3570054FAA
:1026F0000023019500933A46301D95E70000000045
:10270000B4F50020BB26000000F027F90020FEBD34
:1027100004F0C9FE307840B92146301D04F011FBA9
:102720002068852504F0AEFB01E0002030702060B9
:102730002846FEBD73797374656D2D74696D65727D
:102740002E63000042DE704738B504460D4600F0A7
:102750003DFB04F0BFFE2946204604F0C1FE2B4697
:1027600022466D49012005F070F829462046BDE853
:102770003440E7E769482DE9F8430168684E4FF4B3
:102780002068B165026A6749F2650B68336649687B
:102790007166426AB266816AF166C26A3267016B2B
:1027A0007167806B96F83810B06748074CBF346C7F
:1027B000F46B05F079F8DFF870E1002284420146FD
:1027C0003265A14624BFAEF12007A742716506F12C
:1027D0009002564BDFF858C118D3A0697064E469C1
:1027E000B464B56DC5F30805062D13D1604511D34A
:1027F00098420FD200884DF64264A0420AD1706818
:10280000B46840F201785060946003E0002474647E
:10281000B46481464748814238BF01460846704546
:102820006AD20C68B4F1CD3F08BF091DF6D063E051
:10283000062C09D1C4B2002C06F17C040CBF052083
:10284000401EC5B244F82510F14520D25EF8041DA3
:102850006145F9D39942F7D2CC07F5D5002406F1AA
:102860007C0555F824708F42E2D0641C062CF8D306
:10287000DEE7F16F002306F17C0506EB8304D4F854
:10288000804045F823405B1C042BF6D911600146BB
:10289000481EC9B20029ECD1B06DC0F3080003286E
:1028A00010D0042811D0052812D0062813D00C28E7
:1028B00017D03B2818D120480268910719D540F25B
:1028C000025816E040F6012813E040F6022810E016
:1028D00040F603280DE0B8F5206F0AD140F6042831
:1028E00007E040F6052804E018B14D2838BF40F64F
:1028F00007284046BDE8F2831049081AF06400201A
:10290000002106F17C04C5B2401CC7B244F8251072
:10291000062FF8D3002097E7F43F030004ED00E012
:102920000000002000E300E068BD00206C150300FB
:102930006C0400009C0000201880014A68BD002043
:10294000EFF31080C00706D4EFF3118030288041E8
:10295000C043C00F704701207047002080F31188EA
:1029600070477047704770477047704770477047AF
:102970007047704770477047704770470020704736
:1029800070477047002070477047704700207047BD
:102990000020704770470120704701207047704742
:1029A000704770477047704770477047002200F0CB
:1029B00037BA704781423ABF5318984202F046BF77
:1029C0008018990707D0521E24BF13F8011D00F884
:1029D000011DF6D8704781071BD1103A07D330B4D8
:1029E00033E93210103A20E93210F9D230BC1032FB
:1029F000121F24BF53F8041D40F8041DF8D838BF37
:102A0000121D521E24BF13F8011D00F8011DF8D835
:102A10007047121FF3D3C10709D153F8041D121FC9
:102A200020F8041D4FEA31414180F6D2E7E753F820
:102A3000041D121F00F8041D4FEA3121A0F80110F7
:102A40004FEA3141C170F2D2D9E780B504F095FF69
:102A5000FEF7FCFCBDE8014005F002BC80B504F0C7
:102A6000D3FFBDE80140FEF715BD80B5FFF785FD3A
:102A7000BDE8014005F01ABD704704F0CFBF05F076
:102A800021B90020704738B504460D46FFF7B5FD63
:102A90002946204605F0FDFB29462046BDE8344086
:102AA00005F021BDFFF791BDFFF79DBD2DE9F04277
:102AB0007E4E002030707E4C20683821382502F090
:102AC00019FF33787B49087822686B43D0543078FB
:102AD00021680022684308444270307821686843C6
:102AE0000844827004F064F8327821686A430A442A
:102AF000107204F05DF8327821686A430A4450721B
:102B0000317820686C4A6943014410786B4AC87078
:102B10003378216817686B43C818476168490A7899
:102B200002763078D4F800C0664A074615FB07F3F2
:102B300012680CEB0301CA61634AD2F800902C22A0
:102B4000574309EB07020CF13407FA5005F038FD42
:102B50003078216815FB00F501F1340251594A68BB
:102B60000968BDE8F04205F0B3BF80B592B06A468F
:102B70000021002006F087F908B1012018E0534930
:102B8000534A0A910B925349534A0C910D9210915A
:102B90005248534A53490990534B0F9211910E9347
:102BA0006A460021002006F093F800B10120C0B26F
:102BB00013B000BD80B5002000F01AF828B1002045
:102BC00000F005F808B1002002BDFF2002BD374A21
:102BD00037481378016838204343C81880780228A2
:102BE0001CBF1128432801D10120704700207047E5
:102BF0002E4A2F481378016838204343C81840787C
:102C000001281CBF0228032801D1012070470020A1
:102C10007047002070477020704700207047704751
:102C200000207047012070477047002070477047B0
:102C300070470020704780B500F020F820B10020D8
:102C4000FFF7D6FF00B1012002BD80B500F016F8F5
:102C500008B1002002BDFF2002BD10B5044600F0FF
:102C60000DF848B100F019F84078012818BF022883
:102C700002D10CB9012010BD002010BD0020A6E734
:102C800080B5FFF7FBFF30B100F007F8417803296A
:102C900001DA002002BDFF2002BD044A0448137877
:102CA000016838204343C8187047000078FC0020B2
:102CB00048C30020DBC70020DCC7002050C3002031
:102CC000D1C7002054C300204CC300206F4A01002C
:102CD000752900003D4B0100C10E02008B49010027
:102CE00045E20000F9230100334D010000210020DE
:102CF00006F0A1B97047002818BF06F070BC7047F5
:102D000007F08DB806F024BF33B585B005468DF8C1
:102D1000042001F0B7FE0446284601F0C3FE7CB152
:102D20000028BDF818000FD102F01AF8FF288DF81E
:102D3000000004BF00218DF80010CDF808D016E087
:102D4000A8B106A8029012E002F00AF8FF288DF858
:102D5000000003AA04BF00218DF800109DF80000B8
:102D6000BDF8181002928DF80C00ADF80E10DDE9D8
:102D700001010A460146284600F0C8F807B030BDF8
:102D800007F052B87FB51C4991E81C006846032142
:102D900080E81C0001250D268DF807108DF80050E5
:102DA0008DF806600821242007F082F9694613484F
:102DB00007F06EFC4FF40060114908600222114BCD
:102DC0001A60114C206011490A607FBD0B4807F062
:102DD0004EBCA52803D10021084807F037BC704736
:102DE0000B48006805E00B4908680028FCD17047D3
:102DF000C84000F001007047F04C03000080014A19
:102E000084E200E018A0014A04E100E01C90014ABD
:102E10000480014A2480014A62F30F2262F31F42B8
:102E2000401810F0030308D0C91A1FD3DB0748BFAE
:102E300000F8012D28BF20F8022D130030B41446ED
:102E40001546103928BF20E93C00FAD8490728BFA9
:102E500020E90C0048BF40F8042D890028BF20F865
:102E6000022D48BF00F8012D30BC7047C91818BFAB
:102E700000F8012DCB0728BF00F8012D70477047DF
:102E80001A48017819B101221948FFF7C5BF7047E8
:102E9000704707F095BF70471FB50446FFF7BDFEAA
:102EA000FFF7B9FE912C02D100F025F91FBD902C3F
:102EB0001AD1FFF7AEFE0E49085C012808D003A81E
:102EC00006F032FF002804BF9DF80C0001280BD14A
:102ED0000021032202910120009201903C230A224A
:102EE0004FF6F87108F09AF81FBD0000D0C7002017
:102EF0005CFC002080B55221504802F0FBFCFF2210
:102F000052214F48BDE8084008F014B9FEB5054607
:102F100001F0B8FD0646284601F0C4FD9DF80010FA
:102F20002A464FF6FF7426B3019B284621281B78BA
:102F30001FD24220434E012B09D84343F01830F8EA
:102F40001230A34215D05B1C20F8123011E0022B86
:102F50000FD1002306EB420700FB03F637F806E02B
:102F6000A6451CBF0EF1010E27F806E05B1C012BE5
:102F7000F2D9334F314E37F8123036F812C09C4533
:102F80008041C043C00FA4451CBF0CF1010C26F8C2
:102F900012C0092D18BF0B2D0AD1B6F814C0BF8A74
:102FA00001EB0C0EBE45AEBFB7826144B1820CE0AE
:102FB0001D2D0AD1B6F83AC07F8F01EB0C0EBE452D
:102FC000BDBF491E61447187778736F81210994258
:102FD00003D310B92846FFF7D9FA00201A49C6B220
:102FE0008A5DAA4204D0401CC6B2112EF7DBF7BDA1
:102FF000112E15DAFFF711FE0546144801788D42AF
:1030000003DBDD211248FFF79FFB222045431149D6
:10301000481930F81610A1421CBF491C20F81610A0
:10302000F7BD5221054802F065BCFF225221044839
:1030300008F080B8024A22F8101070475CDE0020C9
:10304000B0DE002028DF00200C520300D0C7002093
:10305000FC51030004DF0020DFF8241AC873704716
:1030600070B5DFF8205A29783824DFF81C6A3068F8
:10307000614301448A78112A04D0B421DFF80C0A94
:10308000FFF762FB28783168412214FB00F408192D
:10309000827070BD10B50220FFF7C2FDFFF7C7FDBB
:1030A000DFF8E039DFF8E0091C7801683820444394
:1030B000DFF8CC2908194178042903D1107C401D80
:1030C000107405E04FF47A7102F11800FDF757FB18
:1030D000BDE81040FFF7ACBD80B5DFF8B40908F0DB
:1030E00000F9DFF8380C08F0FCF808F063FCBDE8E4
:1030F000014008F080BCDFF88C29DFF88C091378D8
:10310000016838204343C818807833281CBF4328FF
:10311000532801D101207047002070472DE9FF4E50
:1031200009F0B0F909F0FDFB002867D0DFF850493D
:1031300000202076DFF85C0901790C3001F04CFAB0
:10314000207D18B108F050FC00202075002121736B
:1031500000F056F80BF096FC09F007FADFF8C00B08
:1031600000274825DFF81C69DFF8B8BB00F1E20949
:1031700000F1E40A3DE0012111E0FFF758FD30784D
:103180004FF6FF72684339F800109142F3D10022E4
:103190000821504401F088FD411E8941C90F94F86F
:1031A000202002F001020A4220D030780822684331
:1031B00039F80010ADF808100AEB00016846FFF777
:1031C000F9FB0A230A2201F057FADFF8BC0896F847
:1031D00000C00168382010FB0CFC02230B2201EB1D
:1031E0000C0000F12C0100200BF067FEFFF720FD22
:1031F0007F1C9BF80010F8B28842BED3BDE8FF8E5A
:1032000010B5DFF880080178DFF87C2838201368D3
:1032100010FB01F018444078032818BF04280CD193
:1032200048204143DFF8F82A5018B0F8E2104FF672
:10323000FF72914208BF032008D001F043FC04460E
:1032400001F049FC214603F04EFA022001F068FC2F
:103250000BF0C6FE00F0E1FF0BF040FC01F0A1FA1C
:1032600020B10020BDE8104005F082BD10BDF8B5CA
:10327000DFF81078DFF80848E07339783825DFF890
:1032800008683068694301448878032818BF00281B
:1032900023D0332818BF432819D100F01FF83978FC
:1032A000306815FB01F542195178032918BF04292C
:1032B00007D10321801C4155E07BBDE8F240FFF7B8
:1032C00021BDE07BFFF71EFDBDE8F14098E721201E
:1032D0008870BDE8F1400CF0F0B8F1BDE37B13223B
:1032E00089A103200CF09CBA38B5DFF8983701F0BB
:1032F000D1FA00214FF6FE701519A9700CF085FC6B
:103300004FF6FF700CF09DFCDFF87447FFF7E6FF07
:10331000E07BBDE83240FFF7F5BC0000FEB5044697
:10332000E07A1522029094F90A1003200191238972
:1033300034A1009323460CF073FA208905F093F929
:1033400008B10220FEBD00F027FB0A44907888B93E
:10335000208900F0E9FC0DD00CF04BFD50B9FFF7CF
:1033600068FC38B9FFF767FC30B1DFF87C0B0178F7
:10337000022901DA7020FEBD3178386869430144C2
:103380000A79900708D50CF034FC4FF6FE72904293
:1033900003D10CF041FF00E00020214601F0B4F819
:1033A0000100CFD100F0F2FA0A7990074CBF022059
:1033B000012001F06DF8002101200DF0F9F9010064
:1033C000C0D1DFF8281B087808B10EF03EFC0022BF
:1033D0000821204601F068FC30B1042120460EF09F
:1033E000C3FC08B1A520FEBDDFF8040B0178002066
:1033F000DFF8002BE081217462612046BDE8FE40C9
:10340000F7E1000042387057424200002DE9F843CE
:103410000546DFF8E40A05F021F980462B4618221C
:1034200039A10320DFF85C660CF0FAF9002088F877
:10343000000031783827DFF85096D9F8000079433A
:10344000702408444178032918BF042924D000249B
:10345000290007D1416B91F82400E8B181F824409C
:103460009D2017E0FF2D06D04FF47A70454340466B
:103470002946FDF784F93278D9F8001017FB02F7D6
:1034800001F13400C15991F8240028B9012281F8D2
:1034900024209C20FFF736FC00F0BFFE2046BDE84C
:1034A000F28310B5DFF8500A05F0D8F8DFF8D4350C
:1034B000DFF8D4151C780A6838214C4311194A6B7F
:1034C00092F8241009B9002010BDFDF765F94FF4FA
:1034D0007A71B0FBF1F0C0B210BD38B5FDF74DFA0E
:1034E0000446DFF8141A05F0BAF80546FF2818BF9D
:1034F000FFF79DFB00202070FFF788FFFF2D01D014
:1035000001F08EBA31BD00004242000038B588B0EB
:1035100004460D46686916220790297C0691E889C1
:103520000590297B0491E87A039095F90A1003200D
:1035300002912B89CDF800500BA1019323460CF08A
:103540006FF9012008F0A1FA287B00280CBF4FF684
:10355000FE700CF04EFB2B462246014609B00120BE
:10356000BDE83040ABE00000424238705742424272
:10357000574244002DE9F047DFF8089599F800C05C
:103580008846DFF804653824316814FB0CFC1D46BE
:1035900082468B1C13F80C0000284BD1170049D031
:1035A000042F47DC0CF025FC002843D1FFF741FB3A
:1035B00000283FD1FFF73FFB08B1042F3ADB287BFF
:1035C000032817D14FF6FE71884515D1012F08BF8A
:1035D0004FF0000810D0022F2CD10CF00AFB4FF650
:1035E000FC71884202D20CF004FB01E00CF014FEE6
:1035F000804601E0012F1DD0BAF1000F0CD0287BCE
:10360000032838460CBF01210021012F18BF0020DC
:103610000DF0CEF8010030D12946404600F074FF8D
:1036200001002AD1FFF701FBFFF7E2FA20B1FFF713
:1036300002FB08B1702020E099F80020306814FBEC
:1036400002F4811C085D332818BF532803D00020E2
:10365000DFF82C148873384600F01AFF00214FF66B
:10366000FF7001F01DF9DFF88418087820B1FFF72A
:10367000E2FA08B90EF0E9FA0020BDE8F08738B5A3
:103680000446DFF8FC5308222146281DFFF792F973
:10369000207BDFF8F0330228C8BF0020287028788C
:1036A0009421E9730028DFF8E0031C780CBF0121A6
:1036B00031210268382044431019817031BD38B57A
:1036C0001C46FFF757FF010032D1207B032820461C
:1036D00002D1BDE832408CE0FFF7D1FFDFF8A00354
:1036E0000021818101F030FB014640094FF00103C8
:1036F00005D1DFF8580B027803FA01F108E001F078
:103700001F0140F0180003FA01F1052241EAC061EF
:1037100006200EF035FC01000AD0DFF86843DFF820
:10372000681325780B6838214D43002259198A7097
:1037300032BDF8B586B006460C4617461D4608222F
:1037400004F10C016846FFF735F921898DF80A70FC
:103750000022ADF8081021788DF80C206B468DF80A
:103760000B1032464FF6FE710120FFF703FF0100F8
:1037700009D16846FFF783FF204600F006F80100F4
:1037800004BFBF490D7507B0F0BD10B50446BD4A72
:10379000BD481378016838204343C818407803288F
:1037A00018BF042806D1E079C10744BF94F9050089
:1037B0000EF0CFFC207801F025F801F062F82289A4
:1037C0006189034600200EF041FD040004D09420DE
:1037D000FFF74DFD204610BD9420FFF73DFC022071
:1037E000FFF71DFAA64C00F00EFD03202074002008
:1037F00010BD10B504460022082101F055FA08B1A9
:10380000012010BD0CF0F5F900224FF6FF7100F019
:10381000B9FE217C204600F0DFFE6269E189207C50
:103820000BF027FC974A98481378016838204343E7
:10383000C8184178012908BF0DF0C8FDFFF7E0FC6A
:10384000002010BD2DE9FC4100F0A6F804460A4412
:10385000907810B90CF0CDFA08B1702094E008F01F
:103860001DF9DFF81C822CB10222214608F120004C
:10387000FFF7A0F8684600F0E1FF08B1932083E06D
:103880009DF8003014227DA103200BF0C9FF00F049
:10389000F7FE010078D19DF8000000F0F9FD3278C4
:1038A00038686A43411C885C012818BF022808D088
:1038B000032818BF042842D1002001F037F800285F
:1038C0003DD000F0F4FE327838686A43411C885CD1
:1038D000032814BF04280EF0AEFDFFF791FC012071
:1038E0000EF0D0FD01004FD13078396868434A1C92
:1038F000125C032A18BF042A0ED198F820309C07C6
:1039000008D50522DFF8EC15012000F061F8010070
:1039100039D039E0032A01D0042A34D1084400F117
:103920002C0102230B2201200BF0C7FA00F02EF825
:1039300091F82C20500726D508F045FF23E0317878
:103940003868132215FB01F5012441198A70002003
:1039500088F80D0001F0F8F9400903D101F0F4F9FD
:1039600084400BE001F0F0F9450901F0EDF900F0B9
:103970001F0045F01805844044EAC564052221462D
:1039800008200EF0FDFA0020BDE8F6813178386895
:1039900015FB01F5411970473A4E327838253A4FF8
:1039A00039686A437047FF2212E0000038B50446C8
:1039B000104603280D4618BF042801D0022032BD4E
:1039C00000F066FD294620465FF0FF02BDE8384062
:1039D0002DE9FC41164680462A4A0D4600F0F2FDCC
:1039E0003FD08778022F07D0032F3AD15FEA080132
:1039F00002D10079810734D4332001F091F808F026
:103A000041FD15F0784F294612BF0522DFF83C082A
:103A1000027806200EF0B4FA0446A0B9184F3873A5
:103A2000012008F032F80CF000F978805FEA080015
:103A300014BF022001203870381D00F017FF00204D
:103A40007873BE7302E0384601F06AF85FEA080056
:103A50003146284602D0FEF7A3FF03E0FEF79FFFA2
:103A600000E070240194009543462C220AA1032013
:103A70000BF0D6FE2046BDE8F68100004242000071
:103A8000C0F4002078FC002048C30020684A0000F1
:103A900010FC0020E4F400204242444200000000F8
:103AA00010B507F0A2FD00F1100420460EF0ECFC6A
:103AB0004FF6FF5101402046BDE810400EF0EABC31
:103AC00078B587B00C4616461D4630B9204604F03E
:103AD000B4FE03A90DF0E2FF03A80C99019007239F
:103AE0008DF8096001208DF80830360A8DF80B102A
:103AF00000908DF80A60042302AA012120460EF0EE
:103B000015FE060017D021460FF04AF815B93046C9
:103B1000FFF7C6FF0D9808B930460DE0204604F0C7
:103B2000B8FF18B130460FF024F904E0002200215C
:103B300030460FF0F0FC002008B070BD2DE9F64FC4
:103B400085B08A461C4610460FF0F2F80546BDF8CF
:103B5000180003A900270EF025FE002C4FF6FF7970
:103B6000B84614BF4FF0010BBB460026BBF1000F57
:103B700007D008B10DF10C086678760806F001064A
:103B800004E0BDF818000FF047F88046DFF8601C2D
:103B90000978DFF8A42C382012684143531C585C84
:103BA00003281CBF0428B8F1000F00F0B380109860
:103BB0006B1C11441D5C8DF808A0680800F0010022
:103BC0008DF809002806887858BF45F0800502283E
:103BD00007D15FEA0A0002BF496B91F82400002870
:103BE00001D1022730E040460BF074FFADF8000031
:103BF000BDF818000FF026F8814608B94FF001090A
:103C000030000CBF4FF0050A4FF0010ABBF1000F66
:103C100004D0201D0EF038FC834601E0BDF800B052
:103C2000BDF818000EF08AFFCDF80490CDF800A082
:103C30002B465A46414600F001000DF00FFE00F001
:103C400073F8814608BF01279CB19DF8080018B998
:103C5000484600F069F802D1201D0EF015FC012144
:103C600001910146009733464A464046FFF728FF38
:103C70000AE0BDF818000EF061FF3B464A46414697
:103C800000F001000EF0D3FA9DF8090020B94FF6BC
:103C9000FF7140460FF095FF002F3BD19DF80900C2
:103CA00028B1414648460FF0B7FF10F01AF830002F
:103CB0001EBF48464FF6FF71884219D004F0BDFD83
:103CC000FF2815D0DFF8287B97F800C0DFF8681BC5
:103CD0000A68382111FB0CFC02F134034BF6FF712A
:103CE00053F80C20526832F810300B4022F8103094
:103CF00084B10BF07EFF0EB1002405E09DF80810A2
:103D0000002914BF03240124014643464A462046A5
:103D100010F0F8F907B0BDE8F08F000008FC0020B3
:103D2000E8F60020D0C700204FF6FF7188427047A8
:103D30002DE9FE4F81460F46144601A938460EF084
:103D400031FD83460021009138460EF0F1FF824696
:103D5000DFF8D46B5FEA090009D0BBF1000F5046D1
:103D600018BF0DF1040B0EF012FD054604E03846B5
:103D70000EF052FF8346354638460EF0D9FF025901
:103D80000DF1010000920EF07FFB80465FEA090012
:103D90009DF8034018BF002D06D008223146284662
:103DA00010F0F4FC002823D1DFF8446A317838257C
:103DB000DFF8842A15FB01F112685318D87818B17E
:103DC0009AF80100830714D55FEA090011D0901C0E
:103DD000415C022908BF002C0BD140460BF015FFB7
:103DE0000AF050FE9923FFF77AFA9920FEF78AFF2E
:103DF00072E000F06BFF0028DFF82C7C18BF002C6D
:103E000005D09420FFF733FA0020387664E000F004
:103E10005DFF002860D058460FF013FDFF28DFF843
:103E2000BC4B18BF5FEA090106D1327848205946D9
:103E30004243A05A0FF0F0FE0FF053FF31784820B4
:103E40005A4641434046615ADFF8EC4900F09AFB7C
:103E5000DFF8C80B90F902100902798430782168E4
:103E600015FB00F08A1C125C012A16BF312A1122B0
:103E70004322891C0A540220FEF7D1FEDFF8AC0B66
:103E8000016807F11800FCF77AFC0EF0D4FA002064
:103E90003874317815FB01F521684A19D07820B9BA
:103EA00007F11800FCF760FC14E0B9F1000F06D030
:103EB0009AF80100820702D5FFF730F90AE0481CA2
:103EC000415D042906D1052107F11800FCF757FCD4
:103ED00009203874AD21F97300F063FC10B10020A3
:103EE00004F046FFBDE8F78FE2C70020E5C70020D9
:103EF00076FC002000F8FF0718F400202DE9F04FB1
:103F000088468DB040460EF013FF05460922002179
:103F100010F070FC064640460EF07EFE824602AB74
:103F2000052205A9404610F0BDFC8DF800000228CE
:103F30002AD09DF8080000238619F6B2A95D06F183
:103F40001002D2B28DF8011041460120FEF723FD88
:103F5000002819D09DF801003827DFF89448DFF8D1
:103F6000D8984FF6FF7B01280FD0022819D00428DB
:103F700000F0CA80062822D0072800F09180082887
:103F800038D07C2800F09380E4E040460EF0D6FD67
:103F9000009600234246002100F00100FFF7CEFD0D
:103FA000D8E000F0E0F8012B02BFDFF87C1A0878B7
:103FB000002803D132464146FFF7BAFECAE0504618
:103FC00004F0EBFB0646584508D040460EF0B6FD1F
:103FD0003246514600F001000EF014F900F0C3F82B
:103FE000022B06D1FEF720FE5046FEF7CAFCFEF774
:103FF0001FFEAFE0A819401C0EF046FAADF8020013
:10400000A819C01C0EF040FAADF80000A819801DD8
:104010000EF03AFA06465845EBD00EF00CFA00F0D6
:104020009CF88B5C132B09D100F041FB40460EF04D
:10403000F3FD0146BDF800000FF0EEFD00F08DF835
:10404000885C022818BF132823D130460BF0DDFD11
:10405000BDF802000BF0F5FD0021002000F0BCFAD5
:10406000BDF80000514600F01BFCDFF8B009C07835
:10407000DFF8BC190F28B4BF401C0F20087000F0F7
:10408000CCF8207817FB00F7D9F80000811CCA5D36
:10409000132A5FD12321801CC1550DF0E3FF59E0A5
:1040A0009DF8001005AA404607F005FD52E0A8194A
:1040B0004078652802BFA91C885D6D284AD140461A
:1040C000133607F0AAFAF1B2814243D208225146D0
:1040D00003A8FEF76FFC6A46F1B240460EF0DEF927
:1040E000C0BBBDF80000A8B3DFF84849012020702C
:1040F000FEF79AFDBDF8001003A8FEF736FCFEF7A8
:1041000097FD0020207025E006220021284610F0AF
:1041100071FB28180EF0B8F904460FF65C10008801
:1041200000210191ADF80A00009102230DF10A026D
:10413000012120460EF0FAFA06000BD021460EF0BF
:104140002FFD40460EF0FAFC0022314600F001003F
:1041500010F0D1FB0DB0BDE8F08F2278D9F8000047
:104160007A43811C70472278D9F8000017FB02F7C8
:10417000811CCB5D7047F8B50220FEF751FDFEF7BC
:1041800056FDDFF8A448002020763825DFF8606669
:10419000DFF8A47608F0C5FB40B1327839686A438D
:1041A0000A44D07810B9FEF7B9FF2BE008F0B9FB4C
:1041B00010B900F08BFD68B1207C58B100F023F8F5
:1041C000207C411E2174FEF730FD0146002004F0E2
:1041D00032FF17E0327838686A43811C8B5C132BFE
:1041E0000DD000F073FD50B93278386815FB02F538
:1041F000811C485D11281CBF4328412802D1E07B67
:10420000FFF735F8C9E2C82104F11800FCF7B7BA86
:104210000020DFF814180874704780B5FEF730FDF1
:10422000FF2807D000F0E6FA416B91F8240010B1A6
:10423000012000E000200DF08FFFDFF8EC070021E7
:104240004180001DC0E9001101BD0000E6C700204B
:104250002DE9F84F0C460546DFF8DC670121DFF851
:10426000BCA784B090467173504607F0C8FB10F0AD
:1042700051FC002814D1012D18BF042D00D085B9A0
:10428000CDF8008023462622BDA103200BF0C8FAFA
:10429000FEF7CAFC4146204605F0A9FDFEF7C8FC22
:1042A000BBE0DFF84C753A78DFF88C553824286885
:1042B0006243811C885C23280DD100F003FC044676
:1042C00000F009FC214602F00EFA022000F028FC62
:1042D00008F04BF9A1E0B8F1000FFBD121281CBF79
:1042E0000428532802D10BF0E8F896E000F0EEFC29
:1042F000002800F0AC8007F0C4FB28B9307B002810
:104300000CBFAB2094209FE0504607F078FB28B10B
:1043100040F2D6610FF25070FEF716FA307818B9F5
:104320005046FFF732FA78E00BF063FC3A788346A8
:1043300028686243411C885C032818BF042807D101
:104340009AF80700C10744BF9AF905000DF001FF74
:104350009AF80000DFF884864FF0480900F052FA1E
:10436000BAF80A00002100F09BFA00F0AFFC80B11F
:10437000BBF1000F03D04FF6F8718B4509DB0BF052
:104380004BFF3978834619FB01F138F80120904240
:10439000F5D058460BF039FCBAF808000BF051FC88
:1043A00006208DF8080000F06CFA8DF80900002056
:1043B000019000903878022302AA19FB00F0012135
:1043C00038F800000EF0B2F9824608B918203BE038
:1043D000387819FB00F9504638F809100EF0E0FB68
:1043E000307802281CBF5046FFF75AFB00220021FC
:1043F00050460FF090F830B39420F0730220FEF78F
:104400000EFC3A78286800F079F814D1C82106F13A
:104410001800FCF7B4F9032030741020002104F0D8
:104420001BFB10B90FF0C1F810B1002004F002FE20
:1044300005B0BDE8F08F4FF4167106F11800FCF7D7
:104440009EF90020E8E79420FEF711FFE5E73A78AF
:1044500028686243811C8B5C132BDED100F008F9C5
:10446000BDF800000BF0EDFB00F021F9387814FBEB
:1044700000F42868411C095D032918BF042904D1F0
:104480003321801C01559620DEE7FEF7B9FEC4E714
:10449000F8B50746D64D2878DFF8A065382431688E
:1044A00060434A1C135CBB4204D0491C0F5438467D
:1044B000FEF721FC10F037FB60B13FB9002010F08F
:1044C00034FBFEF7B2FB0146012212E0012010F09E
:1044D0002CFB00E027B12A78306800F00FF804D1F7
:1044E000FEF7A3FB0146002203E0FEF79EFB01223C
:1044F00001460020BDE8F84010F02CBC14FB02F48B
:10450000411C0B5D042B704770B592B006460C46FB
:10451000FEF77FFBE17A0546002010F0F6FE08B9B1
:104520008A202AE094F90A0000F0EEFB08B18B2003
:1045300023E000F07AF9E17A00F8D41FA27A294644
:1045400042706A46002004F09EFC4FF6FE708642E0
:10455000ADF804606A460CBF4FF6FF702089ADF8D5
:1045600002002946002004F0B3FB08B1022004E059
:104570002089DFF8C4144880002012B070BD00000C
:104580004242420038B50C4615460BF03EFB0BF09C
:10459000FBFD2946204600F083F907F072FA38B196
:1045A000DFF87804C0780F28ACBF0F20401C05E06E
:1045B0008F4A00F007F80CBF00200120DFF87014CC
:1045C000087031BDDFF87404137801683820434364
:1045D000C8184178012970477FB504460E4600F09F
:1045E00047F8834DC4B1DFF85824002130460AF063
:1045F00040FD29783820904A414310680822435CE6
:1046000008448DF80430417802A88DF80510214641
:10461000FEF7D0F911F012FE2A784820DFF82414B2
:104620004243881810F8D41F8DF8031041788DF894
:1046300002100BF0FAFAADF800000BF0DAFAADF860
:10464000060000F017F87FBD1FB5044600F010F813
:104650001CB100208DF8050007E00BF0CAFAADF898
:1046600006000BF0E2FAADF8000000F003F81FBD01
:1046700068464EE010230722694600200AF01DBC60
:1046800080B58AB0FFF7F4FFBDF8000004A9ADF8CB
:1046900018009DF803008DF81B009DF802008DF8AE
:1046A0001A00BDF80600FFF72FFF0BB000BD70B574
:1046B00086B0012000F03AF90FF2C031D1E90023B1
:1046C0004FF6FF7504002E46CDE900230ED0484971
:1046D0000A784820DFF86C634243B018B0F8E26013
:1046E00000F1E40108226846FEF764F911F0B7FD15
:1046F00002A800F00EF8002CBDF80E000EBF00223C
:104700006A4635462946FFF73DFF12F0A8F806B085
:1047100070BD01461023072201200AF0CEBBF8B578
:1047200004460820FEF77CFAFEF781FA304DDFF8E8
:1047300018032B78017848204343DFF80823D0186A
:1047400080F8D41000F02DF810B1002004F010FB18
:1047500000210020FFF740FF29783826364F3868BF
:10476000714301444878032818BF042802D10DF092
:10477000F1FC01E00DF099FA204604F0C8FB9B2300
:10478000FEF7ADFD9B20FEF7BDFA297838680022C0
:1047900016FB01F6304402854285BDE8F140FEF784
:1047A00047BA002010F061BD10B504462146002034
:1047B00010F0ABFD08B98A2010BD00F01BF880781E
:1047C000022818BF032801D0702010BD9E48047035
:1047D0000820FEF724FA0BF00CFB08B13D2010BDB9
:1047E0009A4A9B4904F079FB00B1A12010BD00005A
:1047F00078FC0020974A104813780168382043431A
:10480000C818704710B504460BF0F3FA08B13D2004
:1048100010BD00F00AF880F8D440FFF7C2FF10B1D5
:10482000002004F0A5FA002010BD8A4A1378482021
:1048300084494343C818704748C3002038B584B042
:1048400004466846FFF765FF9DF8050040B104285F
:1048500006DC00F0AFF89DF80410525D8A4201D0EA
:10486000932001E02070002005B030BD1FB5044644
:104870006846FFF74EFF082202A92046FEF79AF885
:104880001FBD744B10B500F005F87349101942783C
:10489000885C10BD69481C78026838204443704722
:1048A0002DE9F84381466B4E307848250C46684325
:1048B000644F92B0391807F1E408A1F8E29040443F
:1048C0001CB90821FEF772F803E008222146FEF722
:1048D00071F8FEF79EF901466A46002004F0D3FA0B
:1048E00030780822684308EB000104A8FEF762F85C
:1048F000ADF80E90FEF78DF901466A46002004F0EF
:10490000E7F930784FF6FF7115FB00F57819B0F82C
:10491000E20088421EBF002C08EB0501FEF743F8B9
:1049200013B0BDE8F083000010F500203EB504464A
:10493000414890F820104FF6FF75C80708D500F0E1
:104940001AF8BDF80800A84202D000F00FF828B10C
:1049500000212846FFF7A4FF00203EBD24B1BDF88A
:1049600008006946FFF79CFF01203EBD0822FF2199
:10497000684600F099B90A230A22694601200AF024
:104980009CBA38B50446354803F068FE00F012F8CA
:1049900051194A6B002C82F826401EBF3049098805
:1049A000002906D04FF47A725143BDE83440FBF73A
:1049B000E6BE31BD274B21491D780A6838214D4399
:1049C0007047244A1D481378016838204343C818AB
:1049D000416B91F82600704700000000CAF70020E4
:1049E00038B5FBF7CAFF05461E4903F038FE0446FA
:1049F000FF2818BFFEF71BF9164B002028701D7802
:104A00000E4938200A6845435019416B0020FF2C9D
:104A100081F8260000D003E031BD0000E4F400205E
:104A2000BDE83140FEF704B9C0F40020D4C3002033
:104A300086FC002004F50020C0F4002048C30020BC
:104A400000F8FF07E8F6002077FC002091CE000078
:104A50001F47000078FC0020601D010030F400209A
:104A6000A2C7002058F400206173736F63696174FA
:104A7000696F6E2E6300000004600000FFFFFFFFFF
:104A8000FFFFFFFF20B500210FF2E422CBB2D35C81
:104A9000834205D0491CCDB2082DF7D3002020BD9C
:104AA000012020BD20B500210FF2CC22CBB2D35C77
:104AB000834205D0491CCDB2082DF7D3002020BD7C
:104AC000012020BD8B4A137848208B494343C818E6
:104AD000B0F8E2007047874A13784820864943437C
:104AE000C818E4307047834A844813780168382036
:104AF0004343C818416B087E70477E4A7F4813784D
:104B0000016838204343C818C0787047794B10B506
:104B10007A491C780A6838214C431119C87010BDB5
:104B20002DE9F041734D2A783824744E3168624380
:104B3000074673480A44977003F090FD8046714819
:104B4000022F1ED12B78316863434A1CD75C042F97
:104B500018BFFBF709FE2A7830686243411C885C65
:104B600003281EBF04284046FBF7FEFD2978306865
:104B700014FB01F401194A68D00054BF9024BC24EE
:104B800015E00021017088F800100FF0F5FE2A787A
:104B9000316814FB02F4481C005D032818BF042888
:104BA00002D10DF0D7FA01E00DF07FF891242046F4
:104BB0000FF0B5FF50B9234613224DA103200AF090
:104BC0002FFE2046BDE8F041FEF79CB8BDE8F0811D
:104BD000484A4A481378016838204343C818807807
:104BE00000F00F007047434A4448137801683820AA
:104BF0004343C818817801F00F01022901D1012037
:104C000070470020704710B592B00446FFF7EBFFE5
:104C100020B900F03FF818BF932019D1FDF7F9FF34
:104C200000F08DF8BDF8020020819DF80100A0720F
:104C30009DF800102046E172FFF718FE0020207357
:104C400004F1140104F110000AF0EBF9E0810020F6
:104C500012B010BD38B592B004460D46FFF7C3FF41
:104C600020B900F017F818BF932011D1FDF7D1FF3C
:104C700001466A46204604F006F99DF8010000212D
:104C8000287069709DF8000000F01F00A8700020D7
:104C900013B030BD174A19481378016838204343D0
:104CA000C81881780329704710B5002300E05B1C09
:104CB000DCB28C4205D210F8014B9442F7D00020B0
:104CC00010BD012010BD08210DF04EB8094A0B4857
:104CD0001378016838204343C818807801281CBF26
:104CE0003128332801D1012070470020704700008F
:104CF0004242000078FC0020E8F6002048C3002073
:104D000028F4002070F6002070B5044692B02146C9
:104D1000002010F0C4FA0546C0B268B9FDF779FF6B
:104D200006466A46314600F00CF88DF801406A46A6
:104D30003146002003F0CCFFE8B212B070BD01464E
:104D40006A46002004F09FB880B592B0FDF761FF7D
:104D5000FFF7F5FF9DF8000013B000BD012070477C
:104D600080B5FFF7F1FF400918BF012002BD000028
:104D70000001020304051D200203040508090A0BB3
:104D80004FF6FF720146904208D0000A01D0002081
:104D900070473B48027811EA020000D001207047BA
:104DA000020A07D1364A1378002914BF184323EAB0
:104DB00000001070704710B5830800EB5374C108F1
:104DC0000122E408A0EBC40002FA00F000EB01208D
:104DD00080B210BDF8B504460D4616461F46FFF7D3
:104DE000CFFF58B13A463146202011F091FE1DB157
:104DF00020A1202011F084FE22480480F1BD0CB4D3
:104E000080B50A4602AB012104E00CB480B50A4625
:104E100002AB0021FFF7DEFF01BC5DF80CFB2DE9C2
:104E2000FC410024184DDFF8648013A713A6A0B23C
:104E3000FFF7C1FFFFF7A4FF00282246294614BF51
:104E400030463846009058F824302020641C11F079
:104E500044FE202002F0F4FC042CE8DBBDE8F381E2
:104E6000FF2201210648FDF7D7BF05480021017048
:104E7000704700000D0A00006E6F00005945530096
:104E8000BEC70020E0FB00200427030068BF00200D
:104E900080B5FFF790FF012103E080B5FFF78BFF9E
:104EA0000021BDE804407BE7F0B5414CB0FBF4F4D1
:104EB0000A463F4901FB14004FF461654FF46161FC
:104EC000B0FBF5F53C270123157115792E4601FB42
:104ED0001606A0EB05103C21B6FBF7F7002657712C
:104EE000557901FB1500314D90714FF4FA60108037
:104EF0009370D37003E0002300E00123761CA642E8
:104F000035D29078190003D0022808BF1D2102D0A5
:104F1000291811F8011CD778B94203BF401C9070C2
:104F200001277F1C9078D7700D28E7D113880120C6
:104F30005B1C13809BB290705F0803EB9770800836
:104F4000B3EB8001D7D1642093FBF0F0642101FB27
:104F500010300028D1D14FF4C87093FBF0F04FF41B
:104F6000C87101FB10335B1E9B41DB0FC6E7F0BD30
:104F700018B587B0044605A9FFF796FF9DF81A00FB
:104F80009DF819109DF8173003909DF818000291B4
:104F9000BDF81410019007489DF816200088009174
:104FA00004940549FFF72BFF08B010BD242A030025
:104FB00080510100E0FB0020002A0300FDF717BB31
:104FC000FDF7CEBA2DE9F04104460D461646984647
:104FD000FFF7D6FE50B1002705E02A5C4146204687
:104FE000FFF713FF7F1CB8B2B042F6D3BDE8F081E3
:104FF000002B14BF40A341A3E4E738B504460D4697
:10500000284600F0FFFB0246691C07E038B504465D
:105010000D46284600F0FBFB0246A91C204601B0C5
:1050200037A3BDE83040CDE718B587B001783B4CD9
:1050300006914278059281780491C27803920179B1
:1050400002914279019281793E220091C3792088B0
:105050003149FFF7DAFE08B010BD014600220220F8
:10506000FFE72DE9F84F88469246002626A727A499
:105070000FF29009294D8DF800009DF800B05E45B3
:1050800015DA28880123082208EBC601FFF7B0FFD4
:105090005FEA0A0004D1701C584518BF4A4600D187
:1050A000224628883946761CFFF7AFFEE5E7BDE8C3
:1050B000F18F2DE9F0410446184D2888FFF760FE76
:1050C000B0B10120002612A70FF24808E1070AD567
:1050D00018B928884146FFF798FE2888F2B2394669
:1050E000FFF793FE0020761C6408F1B21B29EDDB6C
:1050F000BDE8F08100000000257820002578000040
:105100002563000000000000202570000D0A00004B
:10511000256400002C200000B4260300E0FB0020E2
:105120001CB5044621684879FCF74CF988B9206819
:10513000418803290DD0E27C00910B49019243790B
:105140000A4A0120FFF75BFE01212046FCF7A6FC7E
:1051500007E0204611F0E2FC01001CBF2046FCF7EE
:105160009DFC012016BD00BF14270300402703004B
:105170000098002100E0491C8AB28242FBD37047AC
:105180002DE9F04F87B005462968E87C0024B1F886
:10519000028004902A7DAE68B5F80C900092687D7C
:1051A000002807BF40228DF80C2080238DF80C309A
:1051B0004879FCF707F9C8B90498002818BF0228F5
:1051C00014D003281CBF0528B8F1030F0ED0DFF858
:1051D000C0140120FFF713FE049BDFF8B824DFF8AA
:1051E000B8140220FFF70BFE012127E2E87B18B17B
:1051F000298A002900F04D81DFF8A0341C80697DE8
:1052000000290CBF0821002108B141F00401084623
:1052100000F09EFAE87B18B1288A00F0A8FA04464C
:10522000A87CDFF87CB400F093FA0099009F009A04
:10523000049B491C88B2A9EB070706EB020A162B50
:1052400000F22781DFE813F017002D0185003900F7
:105250006201850020016B012701700175017A014F
:10526000D8009001250125012501A101DF01A1013F
:10527000EC01D8009001012000F06AFADFF81C442C
:10528000DDF800A09DF80C701FFA8AF0801C8145A3
:10529000C0F0AF804A461FFA8AF1304600F092FA19
:1052A000834600F02FFAFDF7ECFB18B900F02AFA5C
:1052B000FDF708F80AF1020AE6E7042000F048FAD0
:1052C000ADF80E800027DDF800801EE09DF80D008F
:1052D000CDF804B09DF80C300290298A5246009116
:1052E0002868BDF80E104079FCF7ABFE834650B13C
:1052F000584600F02DFA50467F1C00F038FABBF1FA
:10530000800F00F0A48100F0EBF9A9F103008045C3
:1053100080F09D814A461FFA88F1304600F052FA2B
:105320008246B01C10F80810F21C02EB080BA9EB27
:1053300008028DF80D109DF80D00D21E92B259464C
:1053400001F0FAFB0400C1D14FF0800BD0E7D34944
:105350000880042000F0FCF9ADF80E8006960027C6
:10536000CDF81490DDF800800026059908F10300BF
:10537000884280F0818106988AB21FFA88F100F095
:1053800021FA81460698059A811C11F808A0C11CD3
:10539000A2EB080201EB080BD21E92B2594650460E
:1053A00001F0CAFB0446781C8DF80D00002C00F0BB
:1053B0005B81CDF808A0CDF804B0288A9DF80C30A8
:1053C000BDF80E10009028684A464079FCF7F0FDC1
:1053D000010007D09DF80D7000F0BAF9484600F0C2
:1053E000C6F900E0761C00F07BF9BEE7002000F073
:1053F000AFF9FCF70FFB24E10C2B0CBF0D2016209E
:1054000000F0A6F900F072F90099049A0746B01C62
:10541000465C0C2A03D11A2E06DB192604E0152A55
:1054200002D1142EA8BF1326E87B98B1288A4FF624
:10543000FF7188420ED128689DF80C303A464079B9
:105440004146FCF719FE4FF6FF71884218BF002C49
:1054500000F052F99148018800200BEB010400F0A4
:1054600077F9049801969DF80C3015283A46414684
:105470000CBF012000200290288A00902D686879D6
:10548000FCF755FE2070B4E72846FDF755F80028D4
:10549000B1D18121D2E02846FDF799F80028AAD1A0
:1054A000F7E7B8F10A0F28D17E4C207828B3E87BC3
:1054B000002804BFA9EB020008281ED100F016F94D
:1054C000002801BFB11C009A885C002815D19AF809
:1054D0000300E22811D100994A463046091D89B2DD
:1054E00000F06EF9FFF76AFDFFF76AFD02466E49AC
:1054F0000220FFF784FC0020207000F0EDF811F08E
:105500008FFE00F0E9F8FDF7CDFA95E000F0E4F841
:1055100011F075FE00F0E0F8FDF76DF88CE000F09A
:10552000DBF8FDF70BF887E000F0D6F8FDF751F84F
:1055300082E000F0D1F8FDF7B7FA7DE0288A89B261
:105540009AF80040765C01909DF80C103346224694
:1055500000912D6841466879FBF78CFA3246214666
:105560004046FCF7EDFF6CE09AF8001001B1012114
:10557000162B0CBF012200220092A9EB000293B26D
:1055800032184046FCF7DEFF56E0701C9AF80070B7
:10559000865C112B05D1122000F0DAF84FF00009DB
:1055A00004E0142000F0D4F84FF00109E87B78B152
:1055B000288A4FF6FF7A50450AD13B464246294693
:1055C0004846FBF74DFE504518BF002C00F094F8FC
:1055D000324C2088039602978246C0F1510080B277
:1055E00000900BF1010000EB0A03019442462946AA
:1055F0004846FBF76FFE00B101200BF80A00208837
:10560000401C2080F5E600F051F81CDB00F054F857
:105610000020FFF7ADFD00F058F8FCF797FF0BE016
:1056200000F044F80FDB00F047F80120FFF7A0FD81
:1056300000F04BF8FCF788FF18B900212846FCF76A
:105640002DFA012000E0002007B0BDE8F08FFFB286
:10565000BDF80E80002FD5D1297D0091E87B002870
:1056600014BF0420022072E69DF80D70872000F020
:105670006FF8484600F07BF804980528E1D0002F29
:10568000C0D1F6B2002E7FF4B1AE8021D6E7000083
:10569000482703007027030054270300B2F80020B6
:1056A00084CD002024FC0020782703009AF80040D5
:1056B00004B10124814570470644A9EB0007B8B244
:1056C00000903346224641467047B8B20090298A7E
:1056D0003346224640467047BAB25146404670476C
:1056E000A04408F103001FFA80F8704700994A4669
:1056F000304689B200F066B803D028822070000AD4
:105700006070704720883B465A46C0F1520080B214
:105710000190298A0091D5F800C041469CF8050007
:105720007047704780B500203E49087004F000F9CA
:105730003D4A108052213D4800F0DCF800203C49F1
:1057400008803C4800210022002380E80E0001BDB3
:1057500010B537490A88522A07DA344CA054521C33
:105760000A8092B2A018401E10BD002010BD38B5AE
:105770000546C0B2FFF7ECFF0446280AFFF7E8FF32
:10578000002C18BF002801D0204632BD002032BDB9
:1057900070B500245E181D46B2420CDA1A4626493E
:1057A00000F02DF8002070BD5218024412F8013CA0
:1057B0006D1E03EB0424EAB2002AF5D1204670BD29
:1057C0000423E5E780B50223FFF7E2FF80B202BDC4
:1057D00038B50B469342194C194928BF194A08D2CB
:1057E000C55CFF2D08BF0025ED186D1CAA4204DA28
:1057F000154A00F004F8204632BD184432BD02209C
:10580000FFF7FDBA0078FF2808BF0020704780B579
:1058100002220021FFF7D6FF4FF6FF72904208BF29
:10582000002002BD2BFC002036F6002084CD002095
:10583000B2F8002078CD002030220300C6F8002006
:1058400048220300582203006C22030062B38B0736
:1058500008D0521E11F8013B00F8013B00F02480F3
:105860008B07F6D1830740F0208000BF103A07D3A2
:1058700030B4B1E83810103AA0E83810F9D230BC92
:10588000530724BFB1E80810A0E8081044BF51F83E
:10589000043B40F8043BD20724BF31F8022B20F828
:1058A000022B44BF0B7803707047121F17D35B00A5
:1058B00009D151F8043B20F8023B1B0C121F20F8C1
:1058C000023BF6D20BE051F8043B00F8013B1B0A07
:1058D00020F8023B1B0C121F00F8013BF3D238BF2B
:1058E000121D521E24BF11F8013B00F8013BF8D8ED
:1058F00070477047002205F021BC704710B50020AA
:10590000DFF864180022002441F8304001EBC003A6
:10591000401C9A806428F7DB10BD2DE9FC4F8146BE
:105920008FB00020ADF81200BDF840008A46022872
:1059300005DD1A9F39784B0707D5042803DC0120C1
:1059400011B0BDE8F08F387900E0B8788DF8080024
:105950000021DFF81488CEB208F1040333F83600D2
:1059600020B1491CCBB2642BF5DBFF261E9D1DB177
:10597000FF2E08BFB420E3D000208DF8110014469C
:1059800020790AAA0DF11101FCF7F0FD58B1BDF81C
:10599000340020809DF81100FAF71DFE8DF81000EC
:1059A00000283ED114E02079FBF756FB8346BBF17B
:1059B000FF0F08BFA320C3D02079FAF711FE8DF89E
:1059C000100070BBDFF8AC1701EB0B10428822808F
:1059D0005FEA0900DDF86CB00CBF50464FF6FF706F
:1059E000019060885A460021009023889DF80800A5
:1059F000FCF756F818B1E08840F02000E0800595EB
:105A0000BDF8400006940797ADF82200ADF820A03D
:105A10008DF824908DF825B004A905A8FCF7D3FDD6
:105A200010B19DF810008BE73846FBF760FFA01D12
:105A3000FBF74AFF224651464846FCF757F8BDF8A7
:105A4000401088421FD31D981C99BDF84030039028
:105A50000DF11200029101900097DBB222465146EF
:105A6000484604F003F98DF8100085B178B9BDF807
:105A70001200D0B1642E18DA08F1040121F83600C2
:105A800048F8365011E074208DF8100010E0BA2864
:105A900008D1A079C1060BD500208DF81000012097
:105AA000FAF783FF9DF8100010B91120FCF738FDBC
:105AB000FAF79FFDB5E75CB585B00A9C088100F058
:105AC0004BF8032044E01CB500240094FFF7F3FFDB
:105AD00016BDF8B584B004000E46154603D030005C
:105AE00018BF002D01D102202AE000276946F8B234
:105AF00000F06CFE010023D19DF80010032902BFC5
:105B00009DF801102279914202BFBDF8021062880F
:105B1000914211D19DF805009DF806102B463246A2
:105B200000EB012020819DF8041080B261712146B4
:105B3000FFF7C9FF010003D17F1CF9B20A29D5DBA9
:105B400005B0F0BD5CB585B00A9C00F005F80620F4
:105B5000FFF7E3FE07B050BD0093134604940A46D6
:105B600000240126014603940294019670471CB557
:105B700000240094FFF7E6FF16BDF0B585B004469B
:105B80000D4616461F4602280BD16946E8B200F0C2
:105B90001DFE010013D19DF8010030719DF8040035
:105BA00070710B990A983B46049100210391029170
:105BB00001910090324629462046FFF7AEFE05B01F
:105BC000F0BD3EB5069C002501950094FFF7D5FF7A
:105BD0003EBD034680B5DFF8A00500880A0007D166
