:10000000C84F0020C3050300ED370100890203003B
:10001000A70B0000000000000000FFFF54000000DC
:1000200004180F00000000000000000000000000A5
:1000300000000000000000000000000000000000C0
:100040000000000000000000000000002901000086
:1000500000000000C84F0020C3050300ED37010079
:1000600089020300A70A0A010002000004180FAC6D
:10007000306A2901000000000000000000000000BC
:100080000000000000000000000000000000000070
:10009000000000000000000000000000FFFFFFFF64
:1000A000FFFFFFFFFFFFFFFF0060070000000000F1
:1000B00000000000FFFFFFFFFFFFFFFFDD0000006B
:1000C0000000000000000000000000000000000030
:1000D000000000000000000000000000F07F002091
:1000E000F07F0020C84F0020A2AD0300DC05030014
:1000F00068460020F40D002000E00700000000002A
:10020000C84F0020C3050300ED3701008902030039
:10021000DD4C01008D02030091020300000000008C
:1002200000000000000000000000000017A1000016
:1002300095020300CF7D00003FBC00001FCC0000F2
:100240009D0203009D0203009D0203009D02030026
:100250009D0203009D020300B14E0100A123010095
:100260009D0203009D0203009D0203009D02030006
:1002700025200200BD4601009D0203009D020300EF
:100280009D0203009D0203009D0203008BCC000031
:100290009D020300DF9102009D0203009D02030006
:1002A0009D02030025470200174702009D0203003C
:1002B0009D020300A7A702009D020300C7AD020034
:1002C0009FAD02009DAD02005DA80200C5AD020019
:1002D000A1AD0200A5AD0200A3AD02000DAE02006B
:1002E0000D040300E1C60200FBAD020081440000E2
:1002F0009D4702009D0203009D0203009D02030032
:100300009D0203009D0203009D0203009D02030065
:100310009D0203009D0203009D0203009D02030055
:100320009D0203009D0203009D0203009D02030045
:100330009D0203009D0203009D0203009D02030035
:10034000104F81B030BF06480168CA0707D50020AA
:1003500001E00098401C009000980628F9DB01B0ED
:100360007047F0ED00E070B54F4A4F4B504C246899
:1003700065070CD4C60701D41C4209D100EA040564
:100380008D4208D0521EF1D16FF0020070BD2EE0F8
:100390006FF00108301D1C42FAD1002070BD70B50D
:1003A000444D6860E8680E46410700D51FE056F8E6
:1003B000040B141F0208101D241FA86044B108215B
:1003C0000820FFF7CFFF0100F4D00421296070BDA1
:1003D000042028600021211612C4162304D10C2009
:1003E0000ABDE87040BCE770BD4FF0FF30563017D3
:1003F00000F050F841F671312C4C01222C4BE5688D
:10040000E1621A6060600226263A300B2D0CFFF77D
:10041000A6FF05F00105010003402020FFF79EFF25
:100420000121234A11600DB10021E16270BD2DE967
:10043000F8438946144600F02BF81A4F3D684E20C9
:100440000A80462D0C39620122184B00203E100B09
:100450001A6009E0324649464046FFF79A8C501F21
:100460000DD1B044B144A41B4CB108F50056760B35
:100470007603A6EB0806B442ECD22646EAE7012151
:100480000B6010093962BDE8F2834FF400310712A6
:10049000100F7047000080969800020001001C00B9
:1004A00003401004130C1004000520034068900062
:1004B0004000000038B504460D46104600F0B5F87F
:1004C00000202070A847BDE8314000F0BCB80022F1
:1004D00042494348EEE7002242494348EAE7002206
:1004E00042494348E6E780B5012000F0A3F8002127
:1004F00040480170012000F04EFABDE8014000F0D4
:10050000A2B880B5012000F0F5FB3B4800F086FB67
:100510003A49087001BD80B500F004FC012805D0FF
:1005200036480078BDE8024000F062BB01BDF0B57E
:10053000002400E0641C324D2E88E3B2B3420ED298
:10054000E7B20C256F432F4B3B441E78864201BF18
:100550005D888D421E799642ECD11846F0BD002090
:10056000F0BD80B519B900F0BFFA002002BDB1F1AD
:10057000004F02D200F0C3FAF7E7022002BDB1F546
:10058000000F3CBF0902FFF7ECBF0220704770B5B7
:1005900005461E46FFF7CBFF04000ED0284600F0AC
:1005A000BFFE50B1A0683146FFF7DBFF28B90499C0
:1005B0000598A0716171002070BD022070BD1CB54E
:1005C000049C0093134601940022FFF7E0FF16BD40
:1005D00080B500230093FFF7F2FF02BD9F300000BB
:1005E0006C5C002085340100745C0020D3BC0000EA
:1005F0007C5C0020645C0020CC5100208B7E0020BD
:10060000345A00204851002080B5FFF790FF20B1F8
:10061000806800210170002002BD022002BD7047E9
:100620000C480D4908600020704700B170207047E9
:100630000020704780B500F013F8FF2801D1A320F7
:1006400002BD002002BD00207047704700BF034874
:1006500000787047A2A803008C5D0020D45C0020C5
:1006600080B500F09AFEFF2818BF002002BD0021CF
:1006700001707047007800B10120704700F034BA73
:10068000FFF76FBFFFF77BBF10B5044601F0E8F935
:10069000022801D0912010BD0021204601F06AFD02
:1006A00001F048FD010008BF002010BD30B58DB03D
:1006B000044601A80022C0E90022102966D1DFF813
:1006C000D0030068002861D0109903AA00250B68A8
:1006D00013604B688DF81540536001234FF4A062FE
:1006E0008DF81430ADF816200068017903A802686F
:1006F0008DF818100DF119010A6042684A6009A9C5
:10070000E8B201F01BFEF8B99DF82400002840D0A3
:100710009DF825009DF81510884202BFBDF82600FF
:10072000BDF8161088420BD19DF828009DF81810CE
:10073000884202BF9DF824009DF81410884203D01F
:100740006D1CE8B20A28DADB0820009001AB102209
:1007500000F045F90125002101AACBB2D05C00B11F
:100760000025491CC8B20828F7DB2A46C9490420DD
:1007700001F0CDFF55B1C8480178022906D1022009
:100780000090012300F00AF8FFF719FF00200DB0D8
:1007900030BD05A9E8B201F0DDFDD5E74FF47A726E
:1007A0004FF4A0612046704710B50C4600F01BF8CE
:1007B00008B17E2010BD204600F00CF808B9872053
:1007C00010BDB54A147001237F212D2002F0FCF8E2
:1007D000002010BD01001CBF0128022801D101200A
:1007E000704700207047E0B5002101228DF8041009
:1007F000009201AB00224FF4A06102F0ADF9002895
:1008000006BF9DF80400012800200EBD0A00E0B5D7
:100810004FF4A06118BF012220238DF8042000931B
:1008200001AB0022E8E0FEB504460D469848016899
:10083000012701AB0A684FF4A06156790097112295
:10084000304602F089F978B92CB901213046FFF71A
:10085000DDFF294604E000213046FFF7D7FFFF21E6
:10086000304600F0C1F803E08C49042001F049FF54
:100870000120FEBD73B584B01546212604460096BE
:1008800005AB02224FF4A06102F039F9824A1078D8
:1008900048B92046FFF7A7FF28B9FFF77FFFFFF70A
:1008A00097FE00201FE0BDF814602046FFF79BFF75
:1008B00008B9702410E0204600F081F80290002072
:1008C000019003950096764B002200F073F82046C5
:1008D000FFF7DAFE040005D001F0C2F8032808BFD4
:1008E00002F0C5FB204606B070BD00206D490870BF
:1008F00070473EB5002504460095402310224FF472
:10090000A06100F03BFB0079810717D500954023DB
:10091000002200F03BF8007981070FD500954023B5
:10092000012200F033F80079810707D500954023B4
:10093000112200F02BF80079810707D45A490420CE
:1009400001F0E5FE5949042001F0DBFE524D012380
:100950007F222D21284602F006F82878FFF73AFF7B
:1009600008B9022028702A21212002AAADF8081017
:100970000190009240230122FFF712FF02F0B3F82A
:10098000002200212046FFF775FF37BD4FF4A0611C
:10099000204600F0F3BA3EB5044641F20200019051
:1009A0002A25009539A3012200F004F82046BDE86D
:1009B0003E4069E64FF4A061092001F091BB1CB5EF
:1009C0000446FF218DF80410202002F0F3FB009074
:1009D00001AB112200F003F89DF8040016BD4FF49E
:1009E000A061204602F0B8B803B581B02021009183
:1009F00002AB11224FF4A06102F081F807BD9128EB
:100A000000D070472DE9FF4101F02AF800283BD1C2
:100A10000027274DDFF89C8031E0F8B200F0BFFCE2
:100A20000446380608EB1050067B02F0AEFC864206
:100A300024D1FFF7B5FE00F03EFCF8B1D5E9001275
:100A400002A82A23C0E90012ADF80430F02000907B
:100A500002AB102200F030F82120009001AB0122FF
:100A600000F02AF8FF212046FFF7BEFF02212046B2
:100A7000FFF79AFE00212046FFF7C8FE7F1C00F01A
:100A800091F9F9B28142C8D3BDE8FF8176760000C2
:100A9000105E0020103B0300A87F0020243B0300D1
:100AA0005C3B0300C0710020643B0300983B0300E3
:100AB000CC3B0300D45C00204FF4A061204602F040
:100AC0001EB8704738B54478456802F012FD0C2115
:100AD0004C438B498B4B0A59521B9A4238BF0D51DC
:100AE000BDE8324002F00BBD10B5044602F03EFDF9
:100AF0006060042020702046BDE81040E2E738B571
:100B000004460D4602F032FD2D186560012020706C
:100B10002046BDE83240D5E710B50446207860B1E4
:100B2000042806D002F022FD6168764B421A9A42F0
:100B300001D2002010BD081A10BD4FF0FF3010BDCB
:100B400070B5044602F012FD054602F0D2FC0646DE
:100B500060686FF0004100F02DF8451925603046BF
:100B6000BDE8704002F0CBBCF8B505460E46144611
:100B700002F0FCFC024600239CB1FF20207010E034
:100B8000087860B1042811D048685E4F111AB94244
:100B90000CD3801AB04202D2064604B123705B1C0B
:100BA000083529680029EBD13046F2BD04B1237025
:100BB0000020F2BD0022D7E770B5054602F0D6FC52
:100BC0000646514C10E0017869B1042904D041680F
:100BD0004C4A711A914206D204230370206069685E
:100BE000884700202060083528680028EBD170BDB8
:100BF00010B5044602F0BAFC0C225443404A414B63
:100C00001159401A984207D214446068FFF7D4FF84
:100C10002046BDE8104093E710BD000070B50446C3
:100C20003A4E3B4A70781378984204D35FF0F6014D
:100C300038A002F011FD75780C20314A2B46434351
:100C4000691C7170D11801264C600E7200E045706D
:100C500054F8080B0028FAD10846FFF771FF284620
:100C600070BD0000F8B50C244FF0FF3160430091D7
:100C7000234D05F1080100220A54244E96F8000085
:100C800020B302F0E5FD20B940F22F1121A002F0BF
:100C9000E3FC02F06BFC02460023DFF868C005E0CD
:100CA0000098814288BF014600915B1C7178D8B2E0
:100CB00088420FD260432958571A674506D305F179
:100CC0000807385C891A08B90029E9D102F0CDFD7E
:100CD0000020F2BD684602F0DEFD10B9684602F061
:100CE00068FC0120F2BD0C214843054B0122184449
:100CF00002727047054908707047034800687047E2
:100D0000C47700200100008000780020897E002048
:100D1000D8A803006576656E742D636F6E74726F6C
:100D20006C2E6300024800787047014908707047D4
:100D3000707F0020DFF868080078DFF8681882B05C
:100D400009888DF80300DFF86008ADF80610008808
:100D5000DFF858180978ADF8040000208DF802106B
:100D6000ADF800000122DFF848089DF8031002707A
:100D7000BDF80620DFF83C08017042809DF8022093
:100D8000BDF8041082719DF801208180DFF8401ABF
:100D900001EBC2039DF800100122836001734273CE
:100DA00002B07047DFF8080800787047DFF80418D1
:100DB00001EB0010407B00F001007047412818BF94
:100DC000422803D0432818BF442801D1012070478E
:100DD00000207047412818BF422801D101207047E8
:100DE00000207047432818BF442801D101207047D4
:100DF00000207047F8B515461E46069A079B044624
:100E000000F05DFA60B1042100F0C5FC070007D0D6
:100E10002046FFF70FFC324629462046B84794E0AB
:100E2000F1BD2DE9FC471400814688461F461CBFD2
:100E30000A9D002D1FD0F7B128780C9B010761880F
:100E400020794CBF4022802200F039FA98B1082165
:100E500000F0A1FC824670B120790B9EFFF7EAFBFF
:100E6000009501963B46224641464846D047BDE89C
:100E7000F347FFF7E8BBBDE8F387F8B5069C1646D5
:100E80001A460546234600F01AFAD0B121000BD1CC
:100E9000022100F080FC040013D02846FFF7CAFBB3
:100EA00031462846A0470BE0102100F074FC0700F3
:100EB00007D02846FFF7BEFB224631462846B847F2
:100EC00043E0F1BD2DE9F843089C90461A460646DA
:100ED000234600F0F4F908B9862016E000259CB9F5
:100EE000202100F058FC814670B10B9F0A9C099D9F
:100EF0003046FFF79FFB009723462A46414630467F
:100F0000C8470546FFF79FFB2846BDE8F283F8B5C2
:100F100004462078A5680026FFF78CFB11E0F1B2AB
:100F200014222868514347183988207802F0C8FCF9
:100F30000121384600F02FFC01001CBF20788847B3
:100F4000761C2979F0B28842E9D3BDE8F140FFF779
:100F50007ABB38B50024DFF858560AE0DFF85406AB
:100F6000210600EB1150427BD10748BFFFF7CFFFAE
:100F7000641C2978E0B28842F0D331BD5CB585B0FD
:100F80000A9C00268DF80800ADF80A108DF80C3088
:100F9000ADF80E200196ADF8104000960023002217
:100FA00001A902A800F082F8019807B050BD7CB5F5
:100FB000069C9578260008BFD678412D18BF422D93
:100FC00006D0432D09D1B21E92B203F0E1F816E02B
:100FD000721ED2B203F0C2F811E0442DF3D033B93F
:100FE000230004D0D3789C4201D2892076BDD278E8
:100FF00019B9114603F0C4F901E003F0C5F9002066
:1010000076BD10B5002301E0001D5B1C9CB28C4234
:1010100004D204889442F7D1408810BD002010BD4E
:10102000DFF8D818401A0C2290FBF2F20021DFF80A
:10103000D00810E00288B2F57C4F28BF00F002B85B
:101040000846EDE7DFF8BC18401A142290FBF2F2D4
:101050000021DFF8B40892B2D3E710B50C4601883E
:10106000628891420DD1037B2279134209D0B1F5F8
:101070007C4F04D3FFF7E6FF2189884201D101208C
:1010800010BD002010BD10B514460A88E3889A42AE
:101090000AD10288B2F57C4F04D2FFF7CBFF218939
:1010A000884201D1012010BD002010BD2DE9F74F6D
:1010B00082B0044698460025002703E0C8884519F9
:1010C0007F1CFFB2DFF8E8140A78974280F0AC800A
:1010D000DFF8E00400EB07102378027881689A4279
:1010E000ECD10091407BC107EAD5002603E0B9F8B6
:1010F0000A004519761C0099F0B20A799042DFD2B5
:101100000A68F1B214204843214602EB0009484620
:10111000FFF7A3FF0028EAD04FF0000B09E09AF890
:1011200004000BF1010B10F0300F04BF9AF803001C
:101130004519B9F808101FFA8BF08842DAD21FFA65
:101140008BF20C21D9F804004A4300EB020A224634
:1011500051464846FFF797FF0028E0D003982746FE
:10116000544600B104602079810611D5DFF88C0760
:10117000002105E00279930644BFC27851180C3073
:10118000A042F7D3DFF8840789B200EB010B04E03B
:10119000DFF87C17ADB201EB050B0E9E049D3046C7
:1011A000E6B121464846FFF745FF02462388798885
:1011B0003878AA4602F080FBF8B12079C1062AD51A
:1011C000002E214648461AD0FFF734FF009503460B
:1011D00079883878224602F086FB26E02DB3214636
:1011E0004846FFF727FF0246238879883878DA4691
:1011F000AB4602F05FFB0028DFD17E2015E0FFF751
:1012000019FFE178009503460191798838782246E4
:1012100002F067FB09E0CDF80080334622465146D4
:101220005846FFF7C4FE00E0862005B0BDE8F08F09
:101230002DE9F8430446884616469946002521794B
:10124000E8B2884221D2EAB2142320685A438718B0
:101250003888404517D131000AD0802E03D1397B20
:101260000A0605D40FE0402E0DD1397B4A060AD577
:10127000B0F57C4F0CD33846FFF7E4FE484518BF65
:101280005FEA090004D06D1CD9E70020BDE8F283B5
:101290003846FBE7134680B507E0134680B5402289
:1012A00004E0134680B5802200E0002200F007F839
:1012B00000B1012002BD80B500234022F6E770B5E1
:1012C0000C4615461E4600F068F8FF2801D10020A4
:1012D00070BD2146DFF8DC4204EB001033462A469D
:1012E0008068BDE87040A3E70023E8E770B50022FE
:1012F000DFF8C032DFF8B8522E78D4B2B4420BD245
:1013000024011D5D854205D10D0007D01C44647B7E
:10131000E50703D4521CEDE7FF2070BDD0B270BDCD
:1013200080B50021FFF7E2FFFF2801D1002002BDB8
:1013300000F05EF8407B00F0010002BD70B50E4683
:1013400004460021FFF7D2FFFF2801D1002070BD25
:10135000984901EB00153200687B00F0010114BFD1
:1013600040F0010000206873B14214D076B12846E5
:10137000FFF7CDFD0FE0142200685143761C0844AE
:10138000027B01882046D209FFF73EF9A868F1B236
:1013900002799142EFD3012070BD0121A6E7854972
:1013A0000001085C7047F8B50C46FFF7F6FF0146F0
:1013B0000020FF291FBF7F4A02EB01118968002925
:1013C00015D0002214270D79D3B2AB420ED2D6B27B
:1013D0000B687E43451C33441B7B260001D11B0652
:1013E00000E05E0648BF2846521CECE7C0B2F2BDE2
:1013F000704901EB00107047F8B50C461546FFF731
:10140000CCFF01460022FF291CD000234FF0140C12
:1014100001E0521C5B1C674800EB0116DFB2B068AC
:101420000679B7420ED200680CFB07F73844067BFA
:1014300015B1760602D4EDE73706EBD5D6B2A64253
:10144000E7D1F2BD0020F2BD002109E010B504464D
:10145000012100F005F82046BDE8104002F0FABF77
:101460002DE9F14F88B0894601F08FFF50490A7885
:101470000023069005928DF80430DFF838A10AE0C9
:101480000AEB0010017B0698814214D09DF80400FD
:10149000401C8DF804009DF804000599884258DA34
:1014A0009DF82020FF2AEBD01046FFF776FF8DF83D
:1014B0000400FF2854D0002756E00328ACBFD6F81C
:1014C00008B006F1080B0120009000235A460021C5
:1014D00002A8FFF7EBFD5FEA090007D0BDF80A207C
:1014E0001AF808103346584600F0CFF8641C2989D2
:1014F000A0B2884237D2A2B20C2168684A4386184B
:101500003379D906F2D41AF808208DF808202988F2
:10151000ADF80A103079410628464CBF80214021A1
:101520008DF80C103188ADF80E103146FFF782FDB2
:10153000ADF810003179F0784A07BED5D6F808B07A
:101540000328C0DBDBF800B0BDE79DF82000FF28D2
:101550009CD0B9F1000F04BF9DF8200000F02CF8DA
:1015600009B0BDE8F08F7F1C9DF80400F9B24FEA86
:1015700000180AF1080050F8080002799142E4D2FC
:101580000168FBB214204343CD182A8940F22D1183
:101590008A42A8BF02F09EFF0024A8E700000000D6
:1015A000D2A803009EA80300A0A80300D3A80300AC
:1015B0006F7F0020D45C002038B58AB0044601F06B
:1015C000E4FE05460120FFF74BF8012C03D0FF2C69
:1015D00008BFA8424FD121237F22242100F04DF8DB
:1015E0004220009001AB0522002100F04BF80123BE
:1015F0007F22252100F041F82020009001AB20221D
:10160000012100F03FF801237F22262100F035F868
:101610002020009001AB2122012100F033F80223A9
:101620007F22272100F029F83120009001AB012210
:1016300000F026F802237F22282100F01EF819204E
:10164000009001AB022200F01BF808237F22292121
:1016500000F013F8F020009001AB102200F010F819
:1016600001237F222A2100F008F82020009001ABFE
:10167000112200F005F80BB030BD01A801F073B9DC
:101680004FF4A061012001F03ABAF0B589B00446E8
:101690001D46287917460E46820777D521216846D0
:1016A00002F04CFF04B96C46012E6FD138000ED108
:1016B000288805286AD100F06BF8002866D12879BF
:1016C000410663D4212322467F2124205CE0012FA0
:1016D0001DD1288820280BD100F05AF840B928796C
:1016E000410605D4012322467F21252001F06CF913
:1016F000288821284AD100F04BF8002846D12879C3
:10170000410643D4012322467F2126203CE0B7F541
:10171000A06F3BD1288801280BD100F039F840B9DF
:101720002879410605D4022322467F21272001F093
:101730004BF9288802280BD100F02AF840B9287903
:10174000410605D4022322467F21282001F03CF9DE
:10175000288810280BD100F01BF840B928794106E1
:1017600005D4082322467F21292001F02DF928885D
:1017700011280BD100F00CF840B92879410605D4A6
:10178000012322467F212A2001F01EF909B0F0BD75
:101790002846FFF745BC30B5047B012200230C42EC
:1017A00005D1002030BD144218BF5B1C5200D5B2D9
:1017B0008D42F8D30069DBB250F8230030BD5549A3
:1017C000401A8003020C00215348FFF71ABC0000A6
:1017D000181003002DE9F84F054600244FF6FF7955
:1017E000A246487D35B108B9022507E0012804D199
:1017F000012503E008B9082500E0042500269346EA
:101800009846444800EB86073988594516D1FB783D
:101810002B4213D0B878404510D30CB182450DDB74
:10182000D9060BD53846FFF7CAFFB9781CB1514528
:1018300001DB484502D201248A468146761C032EEC
:10184000DFDD4846BDE8F28F2DE9FE4F0027002876
:101850004FF00108487D06D008B9022407E00128AE
:1018600004D1012403E008B9082400E004240E9800
:101870000C9DB9460D9EDDF83CB08A46ADF80020BF
:101880000193ADF830508DF83800224800EB8905FF
:101890002988BDF80000814224D1E978214221D075
:1018A000A9789DF8380081421CD3E9789AF80F0096
:1018B000CA0608D5B0B12846FFF781FFBAF8101064
:1018C000814201D00EE068B9BB4513D0BDF83000AD
:1018D00087420FDAA9780198C15532887F1CBFB2C0
:1018E000521C328009F10109B9F1030FCDDD4046E8
:1018F000BDE8FE8F4FF00008F9E70000200F03005D
:1019000024100300C80F0300201003001C5D0020FA
:10191000E45C00200C0F03001C0F030010B501F065
:10192000A4FF012300224FF4E131202002F00AFE3F
:1019300003F0FCF8044603F095F902462346DFF86D
:101940005015012000F0DDFE03F0FAF8044603F024
:101950008DF902462346DFF83C15012000F0D1FE48
:1019600040F2A17403F07EF9C440E0070CD5DFF823
:101970002845207803F088F9207803F026FA2078AB
:10198000BDE8104003F0E2BA10BD38B500220021D6
:10199000684603F010FC08B1009832BD03F048FC23
:1019A00068B10346DFF8F424DFF8F414012000F0F6
:1019B000A8FEC221DFF8EC0401F04EFE04E0DFF8DF
:1019C000E814022000F09DFEFEF72AFE03F086FEDA
:1019D000FFF7B0F902F023FD0221022004F030FBF2
:1019E00004F020FA04F03EFA04F08CFB41F202000D
:1019F000DFF8B81408805222DFF8B4341A80DFF818
:101A0000B4140A804FF4004005F0F6FFAFA4DFF8ED
:101A1000A85401E0FEF719FE02F05CFD03F068FC3B
:101A2000FFF780F9012818BF02F002FDFEF773FDF1
:101A30002021002004F086FB0028EBD02A46214616
:101A40004FF6FF7000F063FEE4E7DFF870140988DA
:101A500010237F2206F018B903F0CEBD03F0E8BDD5
:101A600006F05CBA07F032B838B584B002A807F0C7
:101A700079F988B900246946E0B207F013FA082220
:101A800002A9684607F08AFBC0B1641CE0B20228D4
:101A9000F1DBFF2005B030BD07F05CF905464FF6DD
:101AA000FF708542F5D00024E0B207F013FAA84297
:101AB00004D0641CE0B20228F6DBEAE7E0B2E9E712
:101AC00010B50446FEF7B6FD010016D14FF4A85339
:101AD0002246DFF8EC13082000F013FE4FF4A85163
:101AE000204607F01FFC04462246DFF8D8130820E2
:101AF00000F007FEFEF7A7FD204610BD7FB50546A6
:101B0000FEF796FD03F078FD40B16888B0F5006FF0
:101B100004D1681D01F0F9FE044614E0284601F0E6
:101B200027FFF8B9002400266946F0B200F006FC51
:101B3000002804BF9DF80000002809D0761CF1B2EF
:101B40000A29F1DB8C24FEF77EFD204604B070BD2F
:101B50002946F0B200F0FEFB0028F4D07528F1D140
:101B60008B24F0E78D24EEE738B50446FEF760FDE0
:101B7000204601F0FBFE28B9204600F038FC18B9D9
:101B8000002505E08D2509E075280CBF8B258825EB
:101B90002B462246CC49082000F0B3FDFEF753FD4A
:101BA000284632BD7CB5FF2504468DF800506946B5
:101BB00001F09FFE10B19DF8000076BD01F0E7FB3B
:101BC000C24901EB04131E7B864207D12046FFF772
:101BD000EDF818B12046FFF7E2FB0546284676BD32
:101BE00070B504460D4601F086FEF8B92046FFF7B1
:101BF000D4FB0646FF2E07D001F0C9FBB34901EB29
:101C000006110A7B824201D0002070BD48882880DE
:101C10008A886A808879012128712046FFF7C3FBF2
:101C2000687100212046FFF7BEFBA871012070BD3E
:101C30002DE9F04105460E469046FFF7AEFB0746FC
:101C40004FF6FF74FF2F14D001F0A1FB9F4901EB69
:101C50000712137B83420CD1300008BF012202D04F
:101C6000012E06D1002241462846FFF7C5FB00B1F0
:101C700004882046BDE8F08110B50446FEF7D8FC84
:101C8000204604F065F8BDE81040FEF7DCBCF8B56E
:101C900004460D46164620000CD007F04EFE0746BF
:101CA000F9B28E4208D20096FBB27C4A88490420E1
:101CB00000F027FD0020F2BD00200090FBB20022C2
:101CC0002146284608F020F8F8B2F2BD25703E0003
:101CD00070B598B004460D461646FEF7A9FC522290
:101CE00003A93046FFF7D3FF060011D00DF109001C
:101CF00007F029F802A807F028F803A89DF9083092
:101D00009DF80920019000962946204603F041FFE6
:101D1000FEF799FC18B070BD1FB5034608466A4629
:101D2000194608F021F9002400203DF80020801C0D
:101D300054401028F9DBA0B200B90124A0B204B0CD
:101D400010BD2DE9F04198B005460E4690461C4660
:101D5000FEF76EFC522203A92046FFF798FF0746C4
:101D600090B11E9C2846214608F0D4F9394603A8B4
:101D7000FFF7D2FF029003A8019000972346424646
:101D80003146284603F04FFFFEF75DFC18B0BDE872
:101D9000F08100002DE9FC47DDF8289007468A46CF
:101DA0001446984600224146484607F0B8FE060011
:101DB00008BF18203CD00B9D41464846FFF7ACFFBA
:101DC00028800C980D9A062F31D8DFE807F004041C
:101DD000040D16281F00334622465146384602B0ED
:101DE000BDE8F04706F027BB3346204602B00C2280
:101DF0000C21BDE8F04706F013BCE17A0192009097
:101E000033460A46204606F0D5FB11E0334621460C
:101E1000504602B00C22BDE8F04706F073BB0196B5
:101E2000E17A23460091514606F08CFB00E0022047
:101E3000BDE8F6870822274902F0A6BA10B5044685
:101E4000084606F0ADF82046BDE8104009F08BBD0D
:101E500009F089BD05F0F7BF002070470A207047E0
:101E600080B507F031FB02E080B507F03AFBC00413
:101E7000000E02BD08F0FDBAE0B56846164908221A
:101E800009F08AFEDDE9000104F043F807BD000017
:101E9000DC0D0300F40D0300635A0020280E03003C
:101EA000140E0300300E0300400E03004C5A0020B5
:101EB000505A0020525A00204C0E0300B0A80300D4
:101EC0005C0E0300680E0300740E0300D45C002057
:101ED0008C0E03006C780020147003001CB50446BF
:101EE000FEF7A6FB0DF1010006F02DFF684606F097
:101EF0002CFF9DF900209DF80110204609F01EFFDF
:101F0000FEF7A1FB13BD38B500F010F829462046B6
:101F100009F01FFF06E038B500F008F82946204612
:101F200009F003FFBDE83140FEF78DBB04460D46C6
:101F3000FEF77EBB704702F094BA02F084BA704795
:101F40002DE9F34F81B0022905DD19000AD0BDF853
:101F50000840052C04DA8B49022000F0D2FBA5E0F2
:101F600042F00402009001270270190005D0009889
:101F70000327437000981B0A83700C9C01F095FFA7
:101F800000994FF0000BC85500987F1CBBB2C45499
:101F90007F1CDDF8389007E022464146184409F0DE
:101FA000FBFDE7190BF1010B0D985FFA8BF1405C1B
:101FB00000287DD0002605464FF0000AB046732D5C
:101FC00038DC4C2D59F8048B1CBF532D622D14D1D5
:101FD00059F8044B4C2DA4B206D1A2464FF6FF701F
:101FE00082453DD002263BE0532D39D15FFA84FA79
:101FF000BAF1FF0F34D0012632E06C2D04D14046F7
:1020000009F050FF841C13E0732D04D1404609F001
:1020100044FF441C0CE0A5F130000A2838BFA5F1AC
:10202000300405D3A5F14100072822D2A5F13704D9
:10203000A4B215E00024752D08BF01260ED0762D20
:1020400008BF02260AD0782D05D1032606E02B46CC
:1020500032194D4927E0772D0BD1042659F804ABEE
:10206000BDF80810BAB2A218B2189142EFDB00987E
:102070000BE02A464549022000F043FB16E000F839
:1020800003A07F1C4FEA1A2A761EF1B2BBB20029C8
:10209000F5D10090002C85D0B8F1000F7FF47CAF13
:1020A0002B4622463A49022000F02BFB002000E09C
:1020B000B8B2BDE8FE8F10B5364C206036480180BE
:1020C00036490A60364A136010BD7FB50C46089940
:1020D00009AD009302951346019100F017F808E04E
:1020E0007FB50C4608A90092029100F00FF8019309
:1020F0000023FFF725FF29490A68294B108019683A
:102100004FF48A524C80CA8004B070BD0246224D02
:10211000204E29883068704738B503461F4C1D484B
:10212000256802681E482988006801B0BDE8304073
:1021300003F03FBC0020EFE710B51648174B0268CC
:102140001C68174800682188BDE8104003F0B1BB47
:102150007CB501920F4A1468104D2E680094104C03
:102160003388226803F0F9FB76BD0022F0E70C48C3
:10217000006870470A4A1368187110684171704707
:1021800000000000281003006C1003005010030032
:10219000A0100300BC5B002052790020245D0020C9
:1021A000285D00201FB502460C460D231621684607
:1021B00000F0D9FB0D226946204602F0E5F82078B0
:1021C00040096073217801F01F0121701FBD38B5EF
:1021D00084B004460D460D22684602F0D5F89DF8FD
:1021E0000010687B0D236A4641EA401116208DF8E5
:1021F0000010214600F0E8FB05B030BD2DE9FF419D
:1022000080460027DFF86C44DFF86C541DE020683E
:10221000FEB230F81620424516D16946F8B200F0F9
:102220008DF89DF8000002280ED06946F8B200F043
:1022300085F801F0B4F89DF80D10814204D12268B0
:102240004FF6FD7022F816007F1C2978F8B28842FC
:10225000DDD3BDE8FF812DE9FF4789464FF6FF7AC0
:102260008046D14507D100F0C1F920B903F0C4F987
:1022700004B0BDE8F0870026DFF8F873DFF8F84314
:1022800010E0D1450CD035F81600484508D14FF67E
:10229000FD7225F8162003E025F8169009F0A4FE3B
:1022A000761CF6B22078864214DA39684FF6FE7250
:1022B00031F816009042F3D269463046FFF772FFBC
:1022C0003D6800F02FF80028DBD1D145E4D135F886
:1022D0001600CDE75046CBE72DE9FF4780468946FB
:1022E0000027DFF89843DFF88C53DFF88C6313E0A6
:1022F00028685FFA87FA4FF6FE7330F81A209A4280
:1023000009D26946F8B2FFF74DFF00F00BF810B99B
:10231000206800F80A907F1C3178F8B28842E7D331
:10232000BDE8FF87082241460DF1050006F036BFE3
:10233000DFF840130A6832F81000704710B5DFF874
:1023400038331C78A04201D3692010BDFFF72AFF63
:10235000002010BD70B504460D4623460022A5A1FD
:1023600003200AF000FB29782046002902D1BDE8AD
:1023700070403CE0C0490A78904201D3692070BDAA
:102380000AF08EFA08B1752070BD01F008F8687384
:10239000681D06F093FE06004FF6FF7118BF012678
:1023A000681DFFF758FF297802463346204600F0A3
:1023B00006F829462046FFF70AFF002070BD30B519
:1023C0004FF6FF740D0008BF224608D0032908BF4E
:1023D0004FF6FE7203D0A24208BF4FF6FD72A54928
:1023E0000C6824F81020A54A11680B5430BD38B58C
:1023F00005462C4684B0234601227EA103200AF024
:10240000B2FA9D490A782846904228BF692019D21D
:102410000AF046FA08B1752014E069462846FFF72D
:10242000C1FE9DF8000030B100218DF80010694612
:102430002846FFF7CCFE8F490A684FF6FF7022F856
:102440001400002005B030BDF8B584B006460F4634
:10245000884C894D00E0761C2978F0B288421ED263
:102460002068F2B230F812304FF6FE708342F2D19B
:102470006946F0B2FFF796FE9DF80500F9B2884272
:1024800004BF9DF80600B0EB172FE4D100F087FFE2
:102490009DF80D108142DED1F0B205B0F0BDFF20F5
:1024A000FBE72DE9F04F85B00D4691469A46DDF8E1
:1024B00038B000266F4FDFF8C081ADF8000007E0AC
:1024C000386830F81410BDF8000081422CD0761C1A
:1024D00098F80010F0B2884228D23868F4B24FF66B
:1024E000FE7330F814209A42F1D201A9F0B2FFF73E
:1024F00059FEB9F1000F07D19DF80500504504BF02
:102500009DF808005845E2D100F049FF9DF81110F0
:102510008142DCD1002DD3D008220DF109012846DB
:1025200006F03CFE0028D2D1F0B200E0FF2005B05A
:10253000BDE8F08F10B51446FFF734FE20460822A0
:102540004F49BDE8104001F01FBF2DE9F843804618
:102550000846154684B01C4600F048F808B1002033
:1025600041E00027434EDFF8109100E07F1C99F80E
:102570000010F8B288421ED23068FAB24FF6FF73EC
:1025800030F812109942F1D06946F8B2FFF70AFE0E
:102590000C220DF1010108F1010006F0FFFD0028F9
:1025A000E4D1F8B2FF2808D1002600F0F7FE55B1BB
:1025B0002EB100200CE0FF27F6E70126F5E74046A4
:1025C000FFF79CFA04E0002EF8B203D0FFF7CCFA34
:1025D000012202E0FFF7C8FA00220C99087022706D
:1025E00000F0E0FE012005B0BDE8F0830822244998
:1025F00006F0D4BD4242000038B584B000241E4D20
:1026000016E06946FFF7CEFD9DF80000042806DBC2
:1026100000218DF800106946E0B2FFF7D8FD9DF863
:10262000001000234FF6FF72E0B2FFF7C8FE641CF3
:102630002978E0B28842E4D305B030BD38B584B023
:1026400002220BA103200AF08EF900218DF8001060
:102650000024094D03E06946FFF7B9FD641C2978A1
:10266000E0B28842F7D3FFF7C7FF002005B030BDC6
:1026700042000000345600207B5A002038560020CB
:102680006C7800204FF6FF720146904208D0000A95
:1026900001D0002070473B48027811EA020000D0C8
:1026A00001207047020A07D1364A1378002914BF67
:1026B000184323EA00001070704710B5830800EB40
:1026C0005374C1080122E408A0EBC40002FA00F030
:1026D00000EB012080B210BDF8B504460D46164649
:1026E0001F46FFF7CFFF58B13A46314620200AF087
:1026F00091FA1DB120A120200AF084FA224804801A
:10270000F1BD0CB480B50A4602AB012104E00CB463
:1027100080B50A4602AB0021FFF7DEFF01BC5DF881
:102720000CFB2DE9FC410024184DDFF8648013A751
:1027300013A6A0B2FFF7C1FFFFF7A4FF00282246AF
:10274000294614BF30463846009058F824302020DF
:10275000641C0AF044FA202001F039FF042CE8DB65
:10276000BDE8F381FF22012106480AF059BA054865
:1027700000210170704700000D0A00006E6F00001C
:1027800059455300645A0020FE7900207C1803004C
:10279000C452002080B5FFF790FF012103E080B50F
:1027A000FFF78BFF0021BDE804407BE72DE9F84FE0
:1027B00086B00AF068FA08B1C620BBE0DFF8A8527C
:1027C000DFF8A862316828680BF00CFE04002CD0FA
:1027D000326851680024106892691368984731681C
:1027E00002A88A6991688847326802209169CA689C
:1027F000904706E00968126900FB0410641CE4B20B
:102800009047039831684B68B3FBF0F38A699C42A8
:10281000F0D3D168002088473068816948688047D4
:10282000316828680BF0DEFD04460027DFF84062BF
:10283000DFF84092DFF84082FCB9DFF84012C85D53
:1028400030B358F827A0286801AB6A4651460BF010
:10285000D3FF484507D080B9009801280DD02868DB
:1028600051460CF007F8DFF8180250F827102868D6
:102870000A6851460BF005FF04467F1C2F2FDBDB57
:10288000DFF80002002C36D101210170002448E05D
:102890004FF0000ADFF8F001C15D8A454DDA00F023
:1028A00059F848450BD0A8B9009820B90198F15DB6
:1028B000884204D10EE0286859460BF0DBFFDFF8B0
:1028C000C00150F82720F35D286859460BF04EFEF2
:1028D000040032D10AF1010ADCE700F03BF8484578
:1028E000CBD0286859460BF0C5FF040008BF0AF199
:1028F000010A2BD0C1E700210170002CC6D0DFF8FF
:102900008C01241A08D0641E08D0A41E08D0241FED
:102910000CBFC124C52404E0C22402E0C32400E0AB
:10292000C4242968087C20B1D321DFF8640100F0B9
:1029300093FE204607B0BDE8F08FDFF85811C85D60
:1029400000289AD0DFF8401111F807A0BAF17F0FE4
:10295000C3D392E758F827B0286801ABD3446A463E
:1029600059460BF049BFF8B50E4615462F2E20DA12
:10297000DFF81021117881B1DFF8EC201468DFF85E
:10298000FC20915DDFF8F07041B157F82610024647
:1029900020460BF0B7FE00B146E0F1BD7F2D0246A8
:1029A00057F8260008BF0025291820460BF023FE03
:1029B000F1E7B1F5807F04D301B0BDE8F04005F048
:1029C00063B940F2011133E0F8B5064615462F2EE3
:1029D0001EDADFF8B020107878B1DFF88C201068AC
:1029E000DFF89820945DDFF890703CB12A6857F8C2
:1029F00026100BF046FE00B116E0F1BD7F2957F816
:102A000026402A4608BF002109190BF0AFFDF2E766
:102A1000B0F5807F05D31A462946BDE8F84005F099
:102A200060B94FF49A7103E0BDE8F2400BF07CBF4F
:102A3000DFF85C00BDE8F44000F00EBEDFF8442093
:102A40001178002900D1704710B50B4B53F82010B6
:102A5000054C206800220BF087FE18B1BDE810403D
:102A60000BF062BF10BD0000AC540020CC5400201D
:102A7000785703000BE000F05C5603001857030082
:102A80007C5A0300C77F0020A857030001E000F034
:102A9000D84F0300485703002DE9F84785B0109D33
:102AA0000F9F0E9C0295019706468A4690469946CE
:102AB000009400F0FDFE010003D0022803D002D3F1
:102AC0000EE001200CE00CBF012000200021049149
:102AD000039002950197009400F077FA00F0C4F992
:102AE00006B0BDE8F087F0B585B00A9D0B9C0026C6
:102AF00001270496039702940195009611E078B59A
:102B000085B000F005F8402300F0AEF906B070BDC6
:102B10000A9C0025012601930495039602940095D2
:102B2000704700F0A1F905B0F0BDF0B5012785B000
:102B300004970A9D0B9E0C9C002703970294019614
:102B40000095EEE77FB5099C089D0A9E029400243B
:102B500003960195009410E038B584B000F006F8B3
:102B60004023FFE700F040FA05B030BD089C002587
:102B70000193039502940095704700F035FA04B074
:102B800070BD2DE9F24F002482B04FF6FF79A046C8
:102B9000B1F57C4F04D301260196AE490E8801E0C1
:102BA0000194012600258DF8010093468DF8003030
:102BB00021E0AAB20C20DAF8041042438F183888BA
:102BC000584511D30CB180450EDB39465046FEF70F
:102BD00031FA010008D039881CB1414501DB484574
:102BE00002D20124884681466D1CBAF80810A8B2AA
:102BF0008842DED36D1CA9B2B14213DA019840B10C
:102C0000954A02EB8100438800F00FF8FEF757FB6E
:102C100003E000F00AF8FEF767FB0028EAD0002581
:102C20008246E2E74846BDE8FE8F9DF80020BDF8E9
:102C300008109DF8010070472DE9F84F84B0DDF8C9
:102C4000389090461C4605468A464B46224600264A
:102C5000ADF80060FEF733FBB34607008DF8045073
:102C6000ADF806A08DF80840ADF80A80ADF80C90DC
:102C70004FD001A9FEF7F1F900284AD0ADF8028043
:102C80000024DDF83C90DDF840A0BDF8008015E0A0
:102C9000B1B249450FD209F0B2F8A87809F0A0F80E
:102CA0005FEA0A0006D02879C10754BF0520072033
:102CB00009F096F8761C08F10108641C3989A0B265
:102CC00088421ED2A2B20C2178684A433B888518FC
:102CD000B3F57C4F09D2288801AA2946ADF80A002D
:102CE0003846FEF7D0F90028E7D02888BDF8021052
:102CF0008842CDD20BF1010BDDE7002005B0BDE825
:102D0000F08FB6B21FFA8BF006441FFA88F08642A5
:102D1000F3D10120F2E72DE9F8478DB04FF000091B
:102D2000DFF838A101E009F10109FEF73BF85FFA8D
:102D300089F1814236D2002738E0A078FEF752F8B8
:102D4000D0B104A809F0AEF816E0002103912122C9
:102D5000029204A901910090228829881AF808009B
:102D600000F042F9862807D0A078FEF733F8002853
:102D7000E3D004A809F091F8761C2989B0B2884202
:102D800013D2B2B20C2168684A43841801F0A2FB46
:102D900021462846FEF74EF921794A064CBF80238A
:102DA0004023D2E70EB0BDE8F0877F1C4FEA0960F0
:102DB0004FEA10580AF1080050F80800F9B20279F9
:102DC0009142B0D20168FBB2142043430026CD18D3
:102DD000D3E7F8B58EB0159D1646052D2FD304AC5C
:102DE00003942127149A029705AC0194009232466D
:102DF00000F0FAF8040024D19DF81000212205A962
:102E000000F0EAF904001AD02D1FA54217D330466E
:102E100008F0F5FF002008F0E3FF9DF81000104DCA
:102E200008F0DEFF2E88C6F152018C4207DA0D4B06
:102E3000224605A9981901F0A7FAA4192C800FB011
:102E4000F0BD304608F0DBFF204608F0C9FFF6E78A
:102E500000000000A4A8030020100300D45C0020A0
:102E6000B2790020385D00202DE9F84F88B0064681
:102E7000129D00208A4690469946049000908DF855
:102E80001460ADF816A08DF81890ADF81A80ADF862
:102E90001C500023002204A905A8FEF707F9049896
:102EA00008B986208DE0159860B904999DF8500006
:102EB0008A78904218BF8D20F4D10979C80758BF8D
:102EC0008820EFD50498139F0179480726D50499E7
:102ED0008868416804980291816888680499019023
:102EE000887801F031FA834604985B46C1788DF802
:102EF000001003290A4639461ED202A801F06AF9D9
:102F00009DF8002004465B46394601A801F062F9AD
:102F1000012C1CBF4FF0FF3188421CD016980028AE
:102F20004ED104984FF6FF723946807800F054F97C
:102F3000040012D1012044E0029801F04BF901286D
:102F400009D09DF8002001985B46394601F042F90E
:102F500010F1010FE2D1872033E00397C0B200F0F7
:102F600039F800F0F8FC01002BD10397E0B200F033
:102F700031F8FDF7A7FF010023D1012000900023C5
:102F80003A46002105A8FEF791F8010019D1049BEB
:102F9000524631463846FEF778FB029700F01BF8A0
:102FA0000BF0C8FF03979DF85000E4B20294019023
:102FB00000F00AF800F0CEFC00F006F8FDF75DFF27
:102FC000002009B0BDE8F08F00954B4642465146BF
:102FD0003046704702909DF8500000954B46019096
:102FE0004246514630467047F0B585B01C460A9EB1
:102FF0000B9D0C9B002701978DF80800ADF80A1077
:103000008DF80C40ADF80E20ADF8106000972A4600
:1030100001A902A8FEF74AF8010004D10D9911B1E7
:10302000019A93780B7005B0F0BD704738B500F089
:10303000ACF90446484D2B5D062B10DA009323466D
:10304000464A47490420FFF75CFB285DBDE8344051
:10305000002844480CBF00211421FDF713BB224671
:1030600041490420FFF74DFBBDE831400DE080B53C
:1030700000F052FC38B93B48FDF7FCFA18B9FFF7ED
:10308000D5FF012002BD002002BD10B500F07DF982
:103090000021314A1154334C04F8301010BDF8B5FA
:1030A00092B000F072F905462B4E705D08B308A986
:1030B00001200CF093F9044604A82C49102208F0D2
:1030C0007BFD68462A49102208F076FD6CB9102273
:1030D00004A90DF1230006F061F830B11022694611
:1030E0000DF1230006F05AF818B922490220FFF723
:1030F00008FB02A80CF009FE38B9BDF808008107EA
:1031000003D51D490220FFF7FCFA705D1B4900281A
:103110000CBF00271A4F0528B4BF01240024224603
:103120000220FFF7EEFAA0223946204607F03CFCC9
:10313000044601940097725D2B4612490220FFF766
:10314000E0FA002C03BF705D401C7055FFF76EFF66
:1031500013B0F0BD00000000BC7F0020883C0300DD
:103160007C3C03006C5C00209C3C0300C03C0300E2
:10317000D03C0300E03C0300143D03004C3D030041
:1031800000F8FF07643D030080B590280DD007F0DC
:1031900012F868B9FEF764FC032805D10DF0C0FDF4
:1031A00030B9BDE8014062E710B9BDE801406CE705
:1031B00001BD704720B50021064A535C834205D00B
:1031C000891C4D1C302DF8D3002020BD50184078AC
:1031D00020BD0000A80E0300F8B505460C461646B3
:1031E0000027FDF7F7FD38B1B4B1300018D0204604
:1031F00008F053FE471C0FE02846FDF7F3FD38B1F9
:1032000054B1022E08DB204608F04CFE871C03E078
:103210002846FFF7CFFF0746B8B2864238BF0027DF
:10322000B8B2F2BD2DE9F0427D4E002030707D4CE9
:1032300020683821382501F081F933787A490878F7
:1032400022686B43D05430782168002268430844D8
:103250004270307821686843084482700DF09EFD0A
:10326000327821686A430A4410720DF097FD327873
:1032700021686A430A445072317820686B4A694376
:10328000014410786A4AC8703378216817686B4324
:10329000C818476167490A7802763078D4F800C0C8
:1032A000654A074615FB07F312680CEB0301CA6178
:1032B000624AD2F800902C22574309EB07020CF126
:1032C0003407FA500DF07CFD3078216815FB00F5CD
:1032D00001F1340251594A680968BDE8F0420DF025
:1032E00012BE80B592B06A46002100200DF073FF37
:1032F00008B1012018E05249524A0A910B925249F2
:10330000524A0C910D9210915148524A52490990DB
:10331000524B0F9211910E936A46002100200DF03E
:103320007FFE00B10120C0B213B000BD80B5002007
:1033300000F01AF828B1002000F005F808B10020CC
:1033400002BDFF2002BD364A364813780168382096
:103350004343C818807802281CBF1128432801D194
:1033600001207047002070472D4A2E4813780168CD
:1033700038204343C818407801281CBF022803287E
:1033800001D10120704700207047002070470020C5
:103390007047704700207047012070477047002039
:1033A0007047704770470020704780B500F020F8E4
:1033B00020B10020FFF7D8FF00B1012002BD80B589
:1033C00000F016F808B1002002BDFF2002BD10B5C4
:1033D000044600F00DF848B100F019F840780128D3
:1033E00018BF022802D10CB9012010BD002010BD69
:1033F0000020A8E780B5FFF7FBFF30B100F007F829
:103400004178032901DA002002BDFF2002BD044AF1
:1034100004481378016838204343C81870470000F7
:10342000DA7F00201C560020805A0020815A00209C
:1034300024560020785A00202856002020560020CC
:103440006B660100CB36010055FF010061020200EE
:103450001B650100AD820100918A01004B01020051
:10346000002100200DF08FBF002818BF0EF05FBABA
:103470007047FEF760BDFEF7FFBB33B585B005466C
:103480008DF8042004F0A4FC0446284604F0B0FCA7
:103490007CB10028BDF818000FD104F03FFEFF28D2
:1034A0008DF8000004BF00218DF80010CDF808D081
:1034B00016E0A8B106A8029012E004F02FFEFF2843
:1034C0008DF8000003AA04BF00218DF800109DF8BC
:1034D0000000BDF8181002928DF80C00ADF80E1027
:1034E000DDE901010A46014628460EF037FB07B028
:1034F00030BDEFF31180302181F31188704780F3E4
:10350000118870477FB500F011F818B900F015F870
:103510000EF0FBFB04B070BD7FB500F007F818B9E2
:1035200000F00BF80EF00DFC04B070BD0446084628
:1035300015461E4602A90EF0F8BC9DF82010BDF8F5
:10354000240033460091029901902A462046704794
:1035500080B500F00DF880B202BD80B500F008F82B
:10356000FA21B0FBF1F080B202BD000000BF000004
:10357000E0B50EF0BFFC6A460EF00FFD18B14C210D
:1035800030A000F069F8DDE9000103B000BD0000E3
:1035900080B50EF0A9FE0EF087FB20B15FF0570159
:1035A00028A000F059F8002002BD0120164908703B
:1035B0007047FEB504462168002501B928E000F0F7
:1035C00019F808B100F00FF8012025E0FEB50C460F
:1035D0002168002501B91BE000F00CF808B100F0EB
:1035E00002F8022018E001950095216800233A4670
:1035F000301D87E7044E3570044F0023019500937A
:103600003A46301D88E7000010790020AB350000F5
:1036100000F02BF90020FEBD0EF0CCFF307840B951
:103620002146301D0EF0F7FB206885250EF094FC36
:1036300001E00020307020602846FEBD01460022D7
:103640000020C3E773797374656D2D74696D6572BD
:103650002E63000042DE704738B504460D4600F088
:1036600039FF0EF0C1FF294620460EF0C3FF2B465E
:1036700022466D49012000F0AFFF29462046BDE8F3
:103680003440E7E769482DE9F8430168684E4FF494
:103690002068B165026A6749F2650B68336649685C
:1036A0007166426AB266816AF166C26A3267016B0C
:1036B0007167806B96F83810B06748074CBF346C60
:1036C000F46B0FF0B9F8DFF870E100228442014694
:1036D0003265A14624BFAEF12007A742716506F10D
:1036E0009002564BDFF858C118D3A0697064E469A2
:1036F000B464B56DC5F30805062D13D1604511D32B
:1037000098420FD200884DF64264A0420AD17068F8
:10371000B46840F201785060946003E0002474645F
:10372000B46481464748814238BF01460846704527
:103730006AD20C68B4F1CD3F08BF091DF6D063E032
:10374000062C09D1C4B2002C06F17C040CBF052064
:10375000401EC5B244F82510F14520D25EF8041D84
:103760006145F9D39942F7D2CC07F5D5002406F18B
:103770007C0555F824708F42E2D0641C062CF8D3E7
:10378000DEE7F16F002306F17C0506EB8304D4F835
:10379000804045F823405B1C042BF6D9116001469C
:1037A000481EC9B20029ECD1B06DC0F3080003284F
:1037B00010D0042811D0052812D0062813D00C28C8
:1037C00017D03B2818D120480268910719D540F23C
:1037D000025816E040F6012813E040F6022810E0F7
:1037E00040F603280DE0B8F5206F0AD140F6042812
:1037F00007E040F6052804E018B1502838BF40F62D
:1038000007284046BDE8F2831049081AF0640020FA
:10381000002106F17C04C5B2401CC7B244F8251053
:10382000062FF8D3002097E70441030004ED00E0E1
:103830000000002000E300E0C84F0020DC0503008A
:10384000B40400009C0000201880014AC84F0020EA
:10385000EFF31080C00706D4EFF3118030288041C9
:10386000C043C00F704701207047002080F31188CB
:103870007047704770477047704770477047704790
:1038800070477047002070477047002070477047AE
:103890007047002070470020704770470120704734
:1038A00001207047704770477047704770477047F6
:1038B0000120704701207047012070477047704712
:1038C000704700207047002070470020704700209C
:1038D00070470020704700207047704770470020F5
:1038E00070470120704701207047B52070470020C5
:1038F00070470020704700207047002070477047D5
:1039000000207047B520704770478420704770478B
:1039100000207047704770470020704700207047B4
:10392000002070470020704703480168087801288C
:1039300008BF0220704700008C5D00200020704707
:103940004FF6FE720121C281818101610022027065
:10395000012070477047002070470020704700200A
:103960007047002070477047B520704700207047AF
:10397000002070470020704770477047B52070479F
:103980007047704700207047704770477047704716
:1039900080B5FDF702FDFF2804D018B9DFF8EC0868
:1039A000007802BD002002BDF8B5069F0024002566
:1039B0000646092F02D300200021F4BDA4460DE0E5
:1039C000A7EB000EB6441EF8010C2D0245EA146563
:1039D000002110EB04240CF1010C4D415FFA8CF036
:1039E000B842EDD39D4206D828BF944203D2101BA3
:1039F00063EB0501F4BDA01A65EB0301F4BD10B53E
:103A00000268DFF88C1813880B8054884C80527938
:103A10000A7103681A794FF48A53CB804A7102689D
:103A200093799A06DFF86C2844BF4FF48B53CB8010
:103A30008169137839B9C088DFF85C1803F0FD0399
:103A40000880137010BD43F002031370DFF84C4878
:103A500081691622204600F097FC0022227010BDDA
:103A600080B50020FCF7E1FDFF20FDF7EDFCFCF741
:103A7000EAFDFDF797F901460122DFF8100809F089
:103A8000CFF8DFF80C38DFF818285221DFF81408D7
:103A9000FEF711FBFCF735FD0AF097FF0EF046FF2D
:103AA0000EF050F80EF044FFBDE80140FDF751BAAA
:103AB000704780B506F07FFB20B904F02FFA08B9F3
:103AC0000BF01AFAFFF74FFFBDE80140FFF759BFAF
:103AD00070B5034600204FF6FF72DFF8CC4734F88C
:103AE000305095420ED09D4209D1B3F57C4F0ADB90
:103AF00004EBC0056E888E4205D00D0003D0401C3B
:103B000080B2ECE7104670BD10B50446FFF7E0FF49
:103B1000DFF898174FF6FF720B88904203D12246C8
:103B2000DFF88C1706E0DFF8801701EBC000426871
:103B3000DFF880171846BDE81040FEF7E8BD1CB559
:103B40000446DFF87817087800283CD00EF0F0FF24
:103B50000246DFF86C170420FEF7D9FD2068418883
:103B60000091A2894379DFF85C170420FEF7CFFDAE
:103B70000420FEF787FD20B12068218A4088FFF7E6
:103B8000C3FFE07B28B1228ADFF83C170420FEF750
:103B9000BEFDE07CDFF834170090A068A37C0278BB
:103BA0000420FEF7B4FD217DA289A4680123521AE6
:103BB00092B2214404200EF0D3FFC6A10420BDE838
:103BC0001C40FEF79EBD13BDF8B504462168DFF822
:103BD00000574879FDF7E1FB2268FF280BD100F080
:103BE00065F8DFF8F0160220FEF791FD2068DFF897
:103BF000E816427944E00001DFF8E0160B181F7B5D
:103C0000237FDFF8DC669F4209D000F04FF8206880
:103C1000DFF8D03600F045F8227FB1A130E0891CF2
:103C2000085A1188DFF8C076884210D04FF6FF732B
:103C3000994202D1B0F5004F09D300F037F820685F
:103C4000DFF8A83600F02DF82068028817E0207908
:103C5000022818BF032818D111895079FFF73FFEB9
:103C600098B92068E37C294642880220FEF74FFD80
:103C70002068DFF87C3600F014F8206802893946A5
:103C80000220FEF73EFD0020F2BDA07B002820466A
:103C900002D00EF0FDFF01E00FF02AF800B1012084
:103CA000F2BD314642790220FEF731BDE37C5288F5
:103CB00029460220FEF72BBD7CB514462278550715
:103CC000DFF830564CBF05220322934204D2009203
:103CD0002A46DFF8241633E0089E069A30603171D8
:103CE000F280B460B381207800F00100B0732178D5
:103CF000890801F00101F173207801213175C008B4
:103D000000F001007075F07B30B11A46204608F0D3
:103D1000BBF8317D891C31753082307DB389411CFF
:103D20003175205CB074481C3075C9B2615CC4B296
:103D3000A342F17409D2C0B200902A46DFF8BC1544
:103D40000420FEF7DEFC002076BD0798B061FFF787
:103D50001CFB3077012076BD2DE9F14F84B00F4672
:103D60009246DFF89C559B460E9EDDF83C80284627
:103D7000DFF89015202207F01FFF02950498CDF878
:103D8000048000965B46524639460024FFF794FFB4
:103D9000DFF8249500287AD0C9F80050A87CDFF815
:103DA000681508702846FFF7CAFE2846FFF727FE69
:103DB000284600F050FB002836D1B8F1000F35D16D
:103DC000042F18BF052F03D0022F18BF032F01D1D6
:103DD000012200E00022E98828680191012143883E
:103DE00000930388E87C00F069F918B328688179AA
:103DF0008A061FD44288DFF814150220FEF781FCE2
:103E0000DFF80C450120207000220121284600F037
:103E100015F938B10346DFF8FC24DFF8FC14022062
:103E2000FEF76FFC00202070012430E098F81400A9
:103E300081072CD528684179FF2924D10026DFF895
:103E40005084FCF7AFFFF1B2814220D2F0B2FDF70F
:103E5000A6FA0746F0B2FCF7A9FF90B128682A8AB3
:103E600041883846FDF716FA58B12846FFF7C7FDD6
:103E70002868477188F804702846FFF7A5FE00B14E
:103E80000124761CDDE72846FFF79EFE044607F076
:103E900091FF1621DFF8040400F050FB0020C9F860
:103EA0000000204605B0BDE8F08FDFF870140878F8
:103EB000401C0870FFE700F07F007047DFF8D41364
:103EC0000A78002814BF42F0010202F0FE020A70D4
:103ED000704700005D000000DFF844140870704770
:103EE0002564000080B1DFF838140978012904D175
:103EF000018841F0400101807047022904D1028805
:103F00004FF6BF710A400280704778B1DFF8141491
:103F10000A78012A04D1DFF8102413780B7001E02D
:103F2000022A03D1017841F01001017070472DE998
:103F3000FE43DFF860432278D30706D5DFF8EC13A1
:103F40000220FEF7DEFB002070E0DFF86C1309684A
:103F5000DFF83C5371B109688B799E0603D5EB8875
:103F600043F02003EB8089794B0603D5E98841F0C3
:103F70004001E980DFF82C6331784B07DFF88813C4
:103F800047BF0F78F7700B787370DFF814739107E1
:103F90000CD539883246C148FFF7B4FC81462078F9
:103FA0004FF0490800F0FD0020701AE0BA490C8873
:103FB0004FF6FC739C420AD23B88019000962A4639
:103FC000214600204FF0550801F0C7FC08E03A8870
:103FD00000903346294620464FF0420801F0A2FCEB
:103FE0008146A87981064CBFDFF8444344A40EF013
:103FF0009FFD02460294CDF80490CDF80080DFF8D2
:104000003433DFF834130220FEF77BFBDFF82C1388
:104010000220FEF77CFB3A880123314602200EF095
:104020009FFD38A10220FEF76CFB4846BDE8FE83E9
:1040300000207CE70146A0480068002270B50446D5
:1040400020790E461546002818BF01280BD1A0681C
:104050000178CA0601D5300005D0A07B002804BF36
:10406000E07C0B2801D1002070BD00218C4A11801A
:10407000607DE17B00280CBF0820002011B907F00B
:10408000AFFE06E040F0040007F0AAFE208A07F029
:10409000B6FEA07C07F0A4FE0B2007F0A1FEE07C9A
:1040A00007F09EFE304607F09BFE2046FFF7A7FC78
:1040B0002846BDE870403AE70022BFE770B51D46CC
:1040C0009F4B1C78924E012C01D0337813B1002005
:1040D000307070BD0B0002D10AB1002070BD002C01
:1040E0001EBF049C4FF657439C4206D003460A4627
:1040F00021462846FFF7E5FB00B1012070BD000016
:10410000000000005D00000038B5D288522403464C
:10411000950608464FF6FD7148BF4924550548BF2E
:10412000083C150548BF083C120448BFA41E032BD9
:104130000ED8DFE803F00902060BC0B204F0CAFE95
:1041400002E0C0B2FEF7F4F8014601E0641EE4B2FA
:104150000846FFF7D5FB241AE0B232BD70B50C005B
:104160000546164608BF002003D02178FF2902D15A
:10417000FF20287070BD204607F08FFE864288BF62
:1041800006463246611C681C00F0FEF82E7070BDB9
:10419000F8B505460C00164603D10020687029705A
:1041A000F1BD2078FF2804BF6078FF2802D1287075
:1041B0006870F1BD204607F075FE0746BE42B8BFE5
:1041C00037463A46A11CA81C00F0DEF82F703F12BB
:1041D0006F70F1BD2DE9F041541E0BB3042A46DC8B
:1041E0000023002698465FFA88F5954225D2651B84
:1041F000002814BF10F805C04FF0000C571E4D5D8D
:10420000A7EB0807FF000CFA07FC05FA07F74CEAD2
:1042100003033E4308F10108E5E7AE4224DB5B1CE3
:10422000DDB2954223D2651B00280CBF0026465DF7
:104230004D5DB542F1DA01201AE0042A10DAD5000A
:104240000120D2006D1E00FA02F2524243FA05F13B
:10425000CC0746FA05F048BF1343C00748BF1643D2
:104260009E42E8DBB34202DA4FF0FF3000E000206C
:10427000BDE8F0810021334A01E0891CC9B2535CDA
:104280008342FAD35018407870470000747F0020B2
:104290002C5D0020797F002096790020145E00209C
:1042A000B2790020385D0020E01D0300FE79002077
:1042B000DC1B0300F41B0300105E0020625A002088
:1042C000FC1B0300041C0300241C0300301C03001F
:1042D000501C0300701C03008C1C0300D45C0020E5
:1042E000941C0300BC1C0300CC1C0300C41C030072
:1042F000D41C0300F81C0300DC1C0300001D030099
:10430000F05D0020081E0300665A00201C1D0300FB
:10431000757F00206C1D0300441D0300675A0020B8
:10432000767F0020777F0020787F0020741D0300B7
:10433000C01D0300B81D03009C1D0300D01D030019
:10434000655A0020281E0300283808288041C00F25
:10435000704740B11C280BD01D280CD01E2818BF58
:104360001F2805D009E00B39102906D2002070471C
:104370001B29FBDB01E00929F8DB8A207047704725
:10438000002208F051BC704781423ABF531898424E
:1043900007F002BC8018990707D0521E24BF13F8FB
:1043A000011D00F8011DF6D8704781071BD1103A96
:1043B00007D330B433E93210103A20E93210F9D281
:1043C00030BC1032121F24BF53F8041D40F8041DE6
:1043D000F8D838BF121D521E24BF13F8011D00F873
:1043E000011DF8D87047121FF3D3C10709D153F844
:1043F000041D121F20F8041D4FEA31414180F6D2FE
:10440000E7E753F8041D121F00F8041D4FEA31219D
:10441000A0F801104FEA3141C170F2D2D9E780B55E
:1044200000F09DFEFFF71CFBBDE801400EF018BF39
:1044300080B500F05BFEFFF73BFB0EF0F7FFBDE839
:1044400001400EF003BA80B5FFF75EFABDE8014007
:104450000FF03AB870470FF0A4B80FF032B900204F
:10446000704738B504460D46FFF78EFA29462046B8
:10447000BDE834400FF047B9FFF771BAFFF77ABAD9
:104480000FF0B4B93EB501212D200FF0BEF922483E
:1044900090E81C006946012581E81C000D218DF87B
:1044A000061003228DF800508DF8072009212D20D9
:1044B0000FF0B0FB694619480FF0DFFE4FF40060C3
:1044C000174908600222174B1A60174C20601749E1
:1044D0000A6037BD11480FF0BFBEA52803D10021E7
:1044E0000E480FF0A8BE70471148006810E011494F
:1044F00008680028FCD1704701460B051B0E3020D0
:1045000043430D4A01F00F01D0184069FFE7C8404E
:1045100000F00100704700003C4E03000080014A9B
:1045200084E200E018A0014A04E100E01C90014A86
:104530000480014A2480014A00C0034000220FF099
:10454000DBBE70472DE9F04104460125012C8AB0FD
:104550000F46904618BF202C1E4619D168462549A3
:10456000282207F029FB012C18BF202C08D0022C90
:1045700018BF212C04D0032C1CBF222C232C14D1B7
:104580000197ADF81080012E04D14FF4805005E062
:1045900001200BE0022E03D14FF44050ADF80E0085
:1045A0006946204610F004F90546E8B20AB0BDE8B5
:1045B000F08110F0AFB980B510F0B7F9C0B202BD0C
:1045C00010F001BA80B510F01BFAC0B202BD80B580
:1045D00010F0A4FAC0B202BD0CB40A4680B5014680
:1045E00002AB054808F001FA002002BC5DF80CFBA4
:1045F00000000000302F0300AD4A010010F0D5BAD2
:104600000901020003D4DFF8540581547047DFF834
:10461000503502F00F021A4402F8041C704700F0F3
:104620000700C0F10703052B10B528BF0423041DA4
:10463000072C34BF0020C01E012404FA03F35B1EC4
:104640001940814004FA00F0401E1040084310BD9C
:10465000002070470020704770471CB572B60DF0FF
:10466000C3FFDFF800054169DFF8FC440022216048
:1046700000F039FA01466FF00B00FFF7C1FF00F0C0
:1046800031FA01466FF00A00FFF7BAFF00F02AFA8C
:1046900001466FF00900FFF7B3FF00F01FFA014673
:1046A0006FF00800FFF7ACFF00F018FA01466FF05A
:1046B0000700FFF7A5FF00F011FA01466FF00600B2
:1046C000FFF79EFF00F00AFA01466FF00500FFF7C2
:1046D00097FF0022022100F003FA01466FF0040068
:1046E000FFF78EFF00F002FA01466FF00300FFF7BC
:1046F00087FF00F0F3F901466FF00200FFF780FF3B
:104700000022072100F0ECF901466FF00100FFF7ED
:1047100077FF00F0EBF901464FF0FF30FFF770FF35
:1047200000F0E4F901460020FFF76AFF00F0DEF92F
:1047300001460120FFF764FF00F0D8F9014602208E
:10474000FFF75EFF00F0D2F901460320FFF758FFA4
:1047500000F0CCF901460420FFF752FF00F0C6F943
:1047600001460520FFF74CFF00F0C0F90146062086
:10477000FFF746FF00F0BAF901460720FFF740FFB8
:1047800000F0B4F901460820FFF73AFF00F0AEF957
:1047900001460920FFF734FF00F0A8F901460A207E
:1047A000FFF72EFF00F0A2F901460B20FFF728FFCC
:1047B00000F09CF901460C20FFF722FF00F096F96B
:1047C00001460D20FFF71CFF00F090F901460E2076
:1047D000FFF716FF00F08AF901460F20FFF710FFE0
:1047E00000F084F901461020FFF70AFF00F07EF97F
:1047F00001461120FFF704FF00F078F9014612206E
:10480000FFF7FEFE00F072F901461320FFF7F8FEF5
:1048100000F06CF901461420FFF7F2FE00F066F993
:1048200001461520FFF7ECFE00F060F90146162066
:10483000FFF7E6FE00F05AF901461720FFF7E0FE09
:1048400000F054F901461820FFF7DAFE00F04EF9A7
:1048500001461920FFF7D4FE00F048F901461A205E
:10486000FFF7CEFE00F042F901461B20FFF7C8FE1D
:1048700000F03CF901461C20FFF7C2FE00F036F9BB
:1048800001461D20FFF7BCFE00F030F901461E2056
:10489000FFF7B6FE00F02AF901461F20FFF7B0FE31
:1048A00000F024F901462020FFF7AAFE0022032190
:1048B00000F016F901462120FFF7A2FE00F016F9DC
:1048C00001462220FFF79CFE00F010F9014623204C
:1048D000FFF796FE00F00AF901462420FFF790FE4C
:1048E00000F004F901462520FFF78AFE00F0FEF8EB
:1048F00001462620FFF784FE00F0F8F80146272045
:10490000FFF77EFE00F0F2F801462820FFF778FE60
:1049100000F0ECF801462920FFF772FE00F0E6F8FF
:1049200001462A20FFF76CFE0022012100F0D8F892
:1049300001462B20FFF764FE00F0D8F801462C203A
:10494000FFF75EFE00F0D2F801462D20FFF758FE7B
:1049500000F0CCF801462E20FFF752FE00F0C6F81A
:1049600001462F20FFF74CFE00F0C0F80146302032
:10497000FFF746FE00F0BAF801463120FFF740FE8F
:1049800000F0B4F801463220FFF73AFE00F0AEF82E
:1049900001463320FFF734FE00F0A8F8014634202A
:1049A000FFF72EFE00F0A2F801463520FFF728FEA3
:1049B00000F09CF801463620FFF722FE00F096F842
:1049C00001463720FFF71CFE00F090F80146382022
:1049D000FFF716FE00F08AF801463920FFF710FEB7
:1049E00000F084F801463A20FFF70AFE00F07EF856
:1049F00001463B20FFF704FE00F078F801463C201A
:104A0000FFF7FEFD00F072F801463D20FFF7F8FDCC
:104A100000F06CF801463E20FFF7F2FD00F066F86A
:104A200001463F20FFF7ECFD61684FF6FF000140B3
:104A300041F0BF6141F401316160E0684FF4E02171
:104A400040F01000E060E16110F003F900F0CAF8F6
:104A5000EFF30880001F45494FF0CD3201E040F8E8
:104A600004298842FBD2424989B24248FFF788FCB8
:104A700062B6414800680002000E01280CD13F4890
:104A800001684FF480203E4A1060042349033D4CE6
:104A900023605CBF3C4A106010F022F902203B49C1
:104AA000086010F091F910F075FA3949D1E9002346
:104AB00001246846CDE900238DF8034010F0DFFBA8
:104AC0000DF09CFCFEF764FD10F00CF90DF0B3FC4A
:104AD00010F0D0FD2F4810F021FE13BDFF22FF2162
:104AE00004209CE500220021042098E500220421F6
:104AF000042094E540F201600DF082BE10F0DABEB1
:104B000010F0D9BE10F0DEBE80B500210B2010F0F1
:104B1000D7FEBDE8014010F0D6BE002818BFFEF752
:104B200035BFFEF732BF0320FDF788BF80B500F028
:104B300099F8014618480C2938BF00EB810002BDE6
:104B400080B500F093F802041449120E51F8223097
:104B500000F0FF0003EB800002BD000000E400E075
:104B600018ED00E05400000008ED00E06846002069
:104B7000540D0000A00000200080E00F6480004081
:104B8000649000402020014064A00040704000403C
:104B9000484E0300403C0300584E0300984F03006A
:104BA00010B500F05FF8044600F060F8C0B208B934
:104BB000012C07D1072C11D8DFE804F004100608F7
:104BC000080A0C0E002010BD092010BD022010BDE7
:104BD000032010BD0B2010BD062010BD44F0800046
:104BE00010BD704798B510F074FE044610F06CFECE
:104BF0000020002124FA01F2D20711D4491C8BB203
:104C0000102BF7D31B490880088840F201718842B5
:104C100005D11948D0E900231849C1E9002391BD05
:104C2000174889B230F811004CF23C314FF20F02B4
:104C3000144B06280AD15888904203D11888020ADA
:104C40000C2A01DB4FF4C0605980DBE740F20724F7
:104C5000A04201BF5F8897421A88A242D2D15980F0
:104C60002046CFE703480088000A704701480088C3
:104C700070470000547F002094000020147500202D
:104C800018410300000000202DE9F84FDFF8205301
:104C9000A96B84B04A0707D54FF00009DFF81483E9
:104CA0002F6C2E6DCA4607E0DFF80C83EF6BEE6CBD
:104CB000D5F85490DFF804A309074CBFDFF80023B0
:104CC000DFF80023BAEB090406D06423610803FB74
:104CD0000613B3FBF4FB01E04FF0000B8DF80C0062
:104CE0009DF80C000297CDF804A0CDF80090434643
:104CF000B54907F074FFA0B201909DF80C00CDF803
:104D000000801FFA8BF3B2B2B04907F068FF95F844
:104D1000380041070BD49C3CA64208D1686DAC49D1
:104D2000884204D29DF80C00AA4907F058FFBA4502
:104D300028BF4F4505D29DF80C004246A64907F012
:104D40004EFF9DF80C00FFF742FC286E002804BFC0
:104D5000686E002831D09DF80C00A049002607F0AD
:104D600051FF0FF2D4189E4F9DF80C40286EF04072
:104D7000C10707D557F82620107818B141462046BC
:104D800007F040FF761C202EF0DB0026686EF04016
:104D9000C10709D507EB8602D2F88020107818B138
:104DA0004146204607F02EFF761C202EEED32046EB
:104DB00005B0BDE8F04F07F010BF9DF80C0005B03E
:104DC0008849BDE8F04F07F00ABF2DE9F843804657
:104DD000FFF74CFF40F20151834F844C844DDFF8C4
:104DE0001492734E401A13D0401E1BD040F2FF1194
:104DF000401A1DD04FF44071401A22D0401E36D0C8
:104E0000401E56D0401E7DD0401E00F0938007E02B
:104E1000794900F093F84046BDE8F243FFF7D7BB6D
:104E2000BDE8F183754900F089F800F08AF8F2E7EF
:104E300006F19400436802687149404607F0CFFECE
:104E4000E9E7704900F07AF8F06EC0F3400010B165
:104E50006D4900F073F8F06EC0F3807010B16B49CB
:104E600000F06CF8F06EC00FD5D06949D1E7694900
:104E700000F064F896F8680010F0030F01D000F01D
:104E800060F8B06EC0F3C01018B1726F394600F010
:104E90005AF80027B06EF840C10706D555F827200C
:104EA000107810B1214600F04EF87F1C082FF1D386
:104EB000B1E7594900F042F800F043F8B06EC0F392
:104EC000802010B1554900F039F8B06EC0F3C03001
:104ED00018B1726F394600F036F80827B06EF84006
:104EE000C10706D555F82720107810B1214600F0EB
:104EF0002AF87F1C102FF1D396F8680001068AD19A
:104F0000474986E7474900F019F800F01AF81027DA
:104F1000B06EF840C10706D555F82720107810B1BB
:104F2000214600F010F87F1CFFB21A2F01DA202F63
:104F3000EED370E73C4976E720257000404607F045
:104F40004EBE726C4946404607F049BE2DE9F04717
:104F50008146DFF8D8A0364C002513A613A7DFF84A
:104F6000D48015E0641C20780028FBD114F8010FD0
:104F700000281EBFE8B200F00300032848460CBF1B
:104F80003146394607F03EFE4846FFF720FB6D1CD0
:104F9000207838B15AF8043B22464146484607F08B
:104FA00031FEE0E7BDE8F0870D0A00002C2000008C
:104FB000000000204048030048480300C84F00207C
:104FC000504803005848030060480300904803001D
:104FD0009C000020CC480300F84803001849030057
:104FE0005C4C030048490300F44A0300104B0300E3
:104FF000F44B0300D049030060490300A0490300BB
:10500000EC490300084A0300204A03005C4A0300FD
:10501000904A0300CC4A0300184B0300304B0300B6
:10502000784B0300A84B0300C44B0300040000208E
:105030005C4D0300E84B0300684A116801B94FE07A
:10504000674A116800291EBF664A11680029F6D018
:10505000654A116800291EBF644A11680029EED014
:10506000634A116800291EBF624A11680029E6D010
:10507000614A116800291EBF604A116800291EBFDD
:105080005F4A11680029DAD0002070475D4A116834
:1050900001B925E05C4A116800291EBF5B4A11680E
:1050A0000029F6D05A4A116800291EBF594A1168D2
:1050B0000029EED0584A116800291EBF574A1168CE
:1050C0000029E6D0564A116800291EBF554A1168CA
:1050D00000291EBF544A11680029DAD00020704709
:1050E00010600120704751490860704710B5FEF705
:1050F0003DFA04464348016809B1204688474248C2
:10510000016809B1204688474048016809B1204636
:1051100088473F48016809B1204688473D480168F3
:1051200009B1204688473C48016809B120468847B4
:105130003A48016809B1204688473948016809B1F1
:10514000204688473748016809B1204688473648D5
:10515000016819B12046BDE81040084710BD80B570
:105160001E48006800B180471D48006800B18047B4
:105170001C48006800B180471B48006800B18047A8
:105180001A48006800B180471948006800B180479C
:105190001848006800B180471748006800B1804790
:1051A0001648006800B180471548006810B1BDE896
:1051B0000240004701BD80B510F0CBFB10F09CFD14
:1051C00010F0A8FD10F0C9FB002002BD80B5174902
:1051D000096801B18847002002BD0000F466002084
:1051E000F8660020FC6600200067002004670020AD
:1051F000086700200C67002010670020146700205B
:10520000186700201C67002020670020246700200A
:10521000286700202C6700203067002034670020BA
:10522000386700203C67002040670020446700206A
:1052300010B5FEF71EFB04F02BF910F079FE1020DC
:1052400010F082FEDFF8384400061AD5002010F076
:105250007BFE000615D56168880722D5216888077E
:105260001FD5DFF8200410F095FE012002F05AFB54
:1052700011F0DEF811F0E8F8FDF798FA010012D00D
:1052800010BD102010F060FE0006EAD4002010F0DF
:105290005BFE0006E5D56168C80702D5216888076E
:1052A000DFD4B02010BD11F004F9FFF73CFCFDF78E
:1052B000A3F903F071FD0DF0ABF9DFF8CC03FBF7B8
:1052C000ADFCDFF8C813087011F020FAFDF7AAFF53
:1052D000FEF707F811F09EFA13F0FEF813F0FFF84E
:1052E00013F00AF9DFF8A80313F013F9002010BD3A
:1052F0002DE9F84F13F06EF901F03CFCDFF89483D0
:10530000404613F03FFA08B911F071FDDFF888B399
:10531000584613F037FA08B903F0ADF913F0A8FBBB
:10532000DFF868733878DFF874530026FBF760FC09
:1053300028780024DFF86893FBF75AFCDFF864A3B1
:1053400010E0FEF72EF8DFF860130A783823D9F85A
:1053500000005A4383185878042808BF0126FEF736
:1053600021F8641C9AF80010E0B28842E9D3002EBC
:105370001EBFDFF838130878002805D000F055F874
:10538000102808BF06F0CBFE0DF032F913F0C4FB75
:10539000FEF7AFF8044611F061F8A0B1404613F0F3
:1053A000F1F980B1584613F0EDF960B111F07EF8D3
:1053B00048B113F0AFFB30B100200CF031FA10B15E
:1053C0003878FBF74FFC2046FEF799F8FEF791F886
:1053D000044611F043F8A0B1404613F0D3F980B170
:1053E000584613F0CFF960B111F060F848B113F0EE
:1053F00091FB30B100200CF013FA10B12878FBF7C4
:1054000031FC2046FEF77BF8FDF7C6FF28B940F2D5
:105410002F210FF2B820FEF71FF913F081FBDFF800
:105420009002BDE8F24F04F03DB910B511F03EF81E
:1054300028B113F05CFC441EA441E40F00E00124F9
:10544000002002F070FA08B144F0040411F006F8EC
:1054500038B1904813F096F918B18F4813F092F9CB
:1054600008B944F002049349087808B144F02004D4
:105470008E49087808B144F010048F49087808B1C3
:1054800044F040048D49087808B144F400748C4914
:10549000087808B144F40064204610BD80B52D2280
:1054A00076A15FF0030007F05EFA10F0FFFF20B96D
:1054B00040F2612185A0FEF7CFF811F028F8BDE891
:1054C000014010F038BD80B510F034FD2E226BA1E4
:1054D0000320BDE8084007F046BA38B50446724AD2
:1054E0006F481378016838204343C8184078032870
:1054F00018BF04280BD020460BF0EAFC4FF6FF75CE
:10550000A84204BF204613F02EFDA84204D1204635
:10551000BDE8324003F047BD32BD2DE9FF4188466A
:105520004FF6F8718842044628BF012061D200F08E
:1055300063F8844203D108226249404617E05A4E7C
:1055400030784827604978430B18B3F8E22094423A
:1055500010D101F1E40500220821281802F071FDA4
:1055600040B93078082217FB00F74046E919FEF7EA
:105570000BFF35E038274A4D20000AD130782968E2
:10558000784308440279900703D440460AF045F86E
:1055900030BB3178286817FB01F7C1194878032818
:1055A00018BF042808D020460CF0B0F9FF2803D01B
:1055B00041460CF0D0F998B9002000900023012258
:1055C00000212046FCF76DFFFF280BD06946FCF751
:1055D000B5FE38B908220DF105014046FEF7D4FEAC
:1055E000002006E04146204603F026FD401E804193
:1055F000C00F04B0BDE8F08180B592B0FDF7CFFEDA
:1056000001466A4600F011F8BDF8040013B000BD71
:1056100038B592B00446FDF7C2FE00F003F8ADF8CD
:1056200004401AE005466A46294600200BF0D3BD27
:1056300080B592B0FDF7B3FE01466A46FFF7F5FF6D
:10564000BDF8020013B000BD38B592B00446FDF7B6
:10565000A6FEFFF7E7FFADF802406A4629460020A4
:105660000BF0DEFC13B030BD0F4B10B50C491C78AD
:105670000A6838214C43105510BD0000420000005C
:105680001C80E00F17C712F3B0560020DD7F00200A
:10569000CDF90100627F00205C7F0020EB7F0020BD
:1056A0001C560020775A0020DA7F0020A8790020BD
:1056B000486F030048780020907B00204879002044
:1056C000047900206C780020007A00207A696762F3
:1056D00065652D737461636B2E63000010B5002047
:1056E000DFF898180022002441F8304001EBC00395
:1056F000401C9A800A28F7DB10BD2DE9FC4F81463B
:105700008FB00020ADF81200BDF840008A46022894
:1057100005DD1A9F39784B0707D5042803DC0120E3
:1057200011B0BDE8F08F387900E0B8788DF8080046
:105730000021DFF84888CEB208F1040333F83600C0
:1057400020B1491CCBB20A2BF5DBFF261E9D1DB1F3
:10575000FF2E08BFB420E3D000208DF811001446BE
:1057600020790AAA0DF11101FEF7C7F858B1BDF86A
:10577000340020809DF81100FAF757FF8DF81000D3
:1057800000283ED114E02079FBF707FE8346BBF1E9
:10579000FF0F08BFA320C3D02079FAF74BFF8DF885
:1057A000100070BBDFF8E01701EB0B10428822807D
:1057B0005FEA0900DDF86CB00CBF50464FF6FF7091
:1057C000019060885A460021009023889DF80800C7
:1057D000FEF774FC18B1E08840F02000E0800595E9
:1057E000BDF8400006940797ADF82200ADF820A060
:1057F0008DF824908DF825B004A905A80DF05FFF61
:1058000010B19DF810008BE73846FEF77EFBA01D17
:10581000FEF768FB224651464846FEF775FCBDF888
:10582000401088421FD31D981C99BDF8403003904A
:105830000DF11200029101900097DBB22246514611
:105840004846FCF7A7FA8DF8100085B178B9BDF885
:105850001200D0B10A2E18DA08F1040121F836003E
:1058600048F8365011E074208DF8100010E0BA2886
:1058700008D1A079C1060BD500208DF810000120B9
:10588000FBF753FA9DF8100010B911200DF0FDFC44
:10589000FAF7D9FEB5E75CB585B00A9C088100F03F
:1058A0004BF8032044E01CB500240094FFF7F3FFFD
:1058B00016BDF8B584B004000E46154603D030007E
:1058C00018BF002D01D102202AE000276946F8B256
:1058D000FCF734FD010023D19DF80010032902BF1D
:1058E0009DF801102279914202BFBDF80210628832
:1058F000914211D19DF805009DF806102B463246C5
:1059000000EB012020819DF8041080B261712146D6
:10591000FFF7C9FF010003D17F1CF9B20A29D5DBCB
:1059200005B0F0BD5CB585B00A9C00F005F8062016
:10593000FFF7E3FE07B050BD0093134604940A46F8
:1059400000240126014603940294019670471CB579
:1059500000240094FFF7E6FF16BDF0B585B00446BD
:105960000D4616461F4602280BD16946E8B2FCF7E1
:10597000E5FC010013D19DF8010030719DF8040091
:1059800070710B990A983B46049100210391029192
:1059900001910090324629462046FFF7AEFE05B041
:1059A000F0BD3EB5069C002501950094FFF7D5FF9C
:1059B0003EBD2DE9F04389B00546894617461C4691
:1059C000002605A9F0B2FCF7B9FC5FEA000829D16E
:1059D0009DF81400012821D1FDF7D7FC9DF8211076
:1059E000814202BF9DF815002979884202BFBDF8A7
:1059F00016006988884211D19DF8180000214B4695
:105A00006871049403910291019100972A46F1B2C2
:105A10000220FFF772FE5FEA000803D1761CF0B2A5
:105A20000A28CEDB404609B0BDE8F083034680B5C6
:105A3000DFF8580500880A0007D1DFF85425DFF8A1
:105A40005415BDE80050FCF762BE0091DFF8482510
:105A5000DFF84815FCF75BFE01BD10B50C46FF28CA
:105A600004D1DFF83C1500F069F9FE202146BDE8BD
:105A700010407CB504460D4604F0B0FC06463346A3
:105A80002246DFF820150420FCF73BFE85B1DFF845
:105A900018150A6801A801AB0260032000908DF878
:105AA0000540002236214FF6FC7003F0B0FC06469C
:105AB000304676BDF8B504460D46288817461E4682
:105AC00008B10020F2BD6A88DFF8E014B2F5004F9B
:105AD0002CBF7B7800230820FCF713FE6888DFF8D2
:105AE000D01413381ED047F6EE72801A1FD0401E15
:105AF00027D0801E06D0401E1FD0401E05D01A3869
:105B00000CD02CE0DFF8AC2426E0DFF8AC24082031
:105B1000FCF7FDFD3A79DFF8A4141DE07A78DFF890
:105B2000A01419E07A78B878DFF8981412E0DFF85A
:105B300098140820FCF7E5FD11E03A79DFF88C14A1
:105B40000AE0DFF88C240820FCF7E1FD7A78B878C9
:105B5000DFF8801402EB00220820FCF7D2FD334668
:105B60003A4629462046FEF778FC002802BF68889E
:105B700048F22101884203D179782046FDF7C7FE1B
:105B80006888B0F5004F84BF08200DF099FB012014
:105B9000F2BD2DE9F04788B081460E469246984600
:105BA000109C119D03F0D6F8074670882246DFF856
:105BB0002814009033880220FCF7A3FD8DF808908C
:105BC00003960495ADF81440ADF816708DF818A042
:105BD0008DF81980FBF746FF8DF81A00FBF744FF9C
