S01500005A696762656544656275676765722E73333764
S1130000B8BD00202DFD02009992000069F902009C
S1130010A70B0000000000000000FFFF54000000D8
S113002004180F00000000000000000000000000A1
S113003000000000000000000000000000000000BC
S1130040000000000000000000000000A900000003
S113005000000000B8BD00202DFD020099920000B0
S113006069F90200A70A0A010002000004180FAC93
S1130070006AA90000000000000000000000000069
S1130080000000000000000000000000000000006C
S1130090000000000000000000000000FFFFFFFF60
S11300A0FFFFFFFFFFFFFFFF00600B0000000000E9
S11300B000000000FFFFFFFFFFFFFFFF80000000C4
S11300C0000000000000000000000000000000002C
S11300D000000000000000000000000044FE0020BA
S11300E044FE0020B8BD0020BA7D030046FD020096
S11300F058B40020F015002000E00B0000000000C0
S1130200B8BD00202DFD02009992000069F902009A
S113021079F001006DF9020071F90200000000009C
S11302200000000000000000000000009B7A0000B5
S113023075F902004B5C000097920000779B000068
S11302407DF902007DF902007DF902007DF90200CA
S11302507DF90200A9F20100CF2A00007DF9020015
S11302607DF902007DF90200AB9C0000BDA90000ED
S11302707DF902007DF902007DF90200E7A9000082
S11302807DF902007DF902007DF902001B9D00004A
S11302907DF90200476B02007DF902007DF902003E
S11302A07DF90200D16D0200C36D02007DF90200E8
S11302B07DF902007DF902007DF90200A7BB02006E
S11302C06BBB020069BB020039B60200A5BB020089
S11302D06DBB020071BB02006FBB020095D502002A
S11302E0DDBB02007DF902007DF9020061230000FC
S11302F07DF90200B56602007DF902006B9F0000E3
S11303007DF902007DF902007DF902007DF9020009
S11303107DF902007DF902007DF902007DF90200F9
S11303207DF902007DF902007DF902007DF90200E9
S11303307DF90200102B70B54A4A4A4B4B4C246895
S113034065070CD4C60701D41C4209D100EA040590
S11303508D4208D0521EF1D16FF0020070BD2EE024
S11303606FF00108301D1C42FAD1002070BD70B539
S11303703F4D6860E8680E46410700D51FE056F817
S1130380040B141F0208101D241FA86044B1082187
S11303900820FFF7CFFF0100F4D00421296070BDCD
S11303A0042028600021211612C4162304D10C2035
S11303B00ABDE87040BCE770BD4FF0FF3056301303
S11303C041F67131284C0122284BE568E1621A603C
S11303D0606002262636300B2D0CFFF7A8FF05F0CF
S11303E001050100033C201CFFF7A0FF01211F4A67
S11303F011600DB10021E16270BD2DE9F843184F81
S11304003D68894614464A200A80462D0C3962010B
S113041022154B00203A100B1A6009E03246494677
S11304204046FFF79E84501F0DD1B044B144A41B35
S11304304CB108F50056760B7603A6EB0806B442D9
S1130440ECD22646EAE70121085C10113962BDE8C6
S1130450F28380969800020001001C0003401004FF
S1130460130C1004000120034000000038B50446BA
S11304700D46104600F04FF800202070A847BDE854
S1130480314000F056B8002219491A48EEE700221C
S113049019491A48EAE780B5012000F07DF91848A7
S11304A000F00EF91749087001BD80B500F08CF911
S11304B0012805D013480078BDE8024000F0EAB8EE
S11304C001BD80B519B900F061F8002002BDB1F199
S11304D0004F02D200F065F8F7E7022002BDB1F543
S11304E0000F3CBF0902FFF7ECBF02207047000079
S11304F0537800000CCA00203BD7010014CA002026
S113050028BF00202FFD0020022070470C480D4911
S113051008600020704700B17020704700207047C9
S113052080B500F013F8FF2801D1A32002BD0020FC
S113053002BD00207047704700BF03480078704731
S11305408E790300D4CC00204CCC002080B500F080
S113055050FCFF2818BF002002BD00210170704725
S113056000F014B8FFF7BBBF38B54478456800F015
S1130570F1FD0C214C438B498B4B0A59521B9A4277
S113058038BF0D51BDE8324000F0EABD10B5044655
S113059000F01EFE6060042020702046BDE810407C
S11305A0E2E738B504460D4600F012FE2D186560EA
S11305B0012020702046BDE83240D5E710B504463E
S11305C0207860B1042806D000F002FE6168764B02
S11305D0421A9A4201D2002010BD081A10BD4FF0F1
S11305E0FF3010BD70B5044600F0F2FD054600F082
S11305F0B1FD064660686FF0004100F02DF8451922
S113060025603046BDE8704000F0AABDF8B5054647
S11306100E46144600F0DCFD024600239CB1FF2088
S1130620207010E0087860B1042811D048685E4F4B
S1130630111AB9420CD3801AB04202D2064604B150
S113064023705B1C083529680029EBD13046F2BDC4
S113065004B123700020F2BD0022D7E770B505462F
S113066000F0B6FD0646514C10E0017869B104294A
S113067004D041684C4A711A914206D20423037093
S113068020606968884700202060083528680028B1
S1130690EBD170BD10B5044600F09AFD0C22544312
S11306A0404A414B1159401A984207D21444606899
S11306B0FFF7D4FF2046BDE8104093E710BD0000CB
S11306C070B504463A4E3B4A70781378984204D386
S11306D05FF0F60138A000F0E1FD75780C20314A96
S11306E02B464343691C7170D11801264C600E726D
S11306F000E0457054F8080B0028FAD10846FFF7CB
S113070071FF284670BD0000F8B50C244FF0FF318E
S113071060430091234D05F1080100220A54244E40
S113072096F8000020B300F0B5FE20B940F22F1176
S113073021A000F0B3FD00F04BFD02460023DFF8DA
S113074068C005E00098814288BF014600915B1CA7
S11307507178D8B288420FD260432958571A674536
S113076006D305F10807385C891A08B90029E9D1CC
S113077000F09DFE0020F2BD684600F0B2FE10B904
S1130780684600F048FD0120F2BD0C214843054BAA
S113079001221844027270470549087070470348E3
S11307A00068704720F60020010000805CF60020FD
S11307B02DFD0020BB7903006576656E742D636F93
S11307C06E74726F6C2E63000248007870470149A2
S11307D008707047DCFD0020DFF83C090078DFF882
S11307E03C1982B009888DF80300DFF83409ADF8AC
S11307F006100088DFF82C190978ADF804000020F1
S11308008DF80210ADF800000122DFF81C099DF8F4
S113081003100270BDF80620DFF810090170428051
S11308209DF80220BDF8041082719DF8012081809A
S1130830DFF8FC1801EBC2039DF80010012283606D
S11308400173427302B07047DFF8DC080078704728
S1130850DFF8D81801EB0010407B00F0010070476E
S1130860412818BF422803D0432818BF442801D187
S11308700120704700207047412818BF422801D149
S11308800120704700207047432818BF442801D135
S11308900120704700207047F8B515461E46069A99
S11308A0079B044600F044FA60B1042100F085FB84
S11308B0070007D02046FFF733FE3246294620467C
S11308C0B84794E0F1BD2DE9FC4714008146884601
S11308D01F461CBF0A9D002D1FD0F7B128780C9B22
S11308E00107618820794CBF4022802200F020FA61
S11308F098B1082100F061FB824670B120790B9E0B
S1130900FFF70EFE009501963B46224641464846B7
S1130910D047BDE8F347FFF70CBEBDE8F387F8B551
S1130920069C16461A460546234600F001FAD0B145
S113093021000BD1022100F040FB040013D0284613
S1130940FFF7EEFD31462846A0470BE0102100F0EA
S113095034FB070007D02846FFF7E2FD2246314664
S11309602846B84743E0F1BD2DE9F843089C90467A
S11309701A460646234600F0DBF908B9862016E03D
S113098000259CB9202100F018FB814670B10B9F13
S11309900A9C099D3046FFF7C3FD009723462A466B
S11309A041463046C8470546FFF7C3FD2846BDE823
S11309B0F283F8B504462078A5680026FFF7B0FD59
S11309C011E0F1B21422286851434718398820787D
S11309D000F09FFD0121384600F0EFFA01001CBF32
S11309E020788847761C2979F0B28842E9D3BDE89B
S11309F0F140FFF79EBD38B50024DFF82C570AE01C
S1130A00DFF82807210600EB1150427BD10748BFCD
S1130A10FFF7CFFF641C2978E0B28842F0D331BDE0
S1130A207CB5069C9578260008BFD678412D18BF62
S1130A30422D06D0432D09D1B21E92B201F0AEF977
S1130A4016E0721ED2B201F08FF911E0442DF3D0FA
S1130A5033B9230004D0D3789C4201D2892076BDD7
S1130A60D27819B9114601F091FA01E001F092FA35
S1130A70002076BD10B5002301E0001D5B1C9CB274
S1130A808C4204D204889442F7D1408810BD0020DF
S1130A9010BDDFF8A016401A0C2290FBF2F20021E0
S1130AA0DFF8940610E00288B2F57C4F28BF00F00E
S1130AB002B80846EDE7DFF88416401A142290FBCA
S1130AC0F2F20021DFF8780692B2D3E710B50C46B3
S1130AD00188628891420DD1037B2279134209D0A7
S1130AE0B1F57C4F04D3FFF7E6FF2189884201D199
S1130AF0012010BD002010BD10B514460A88E388FB
S1130B009A420AD10288B2F57C4F04D2FFF7CBFF98
S1130B102189884201D1012010BD002010BD2DE99A
S1130B20F74F82B0044698460025002703E0C888A2
S1130B3045197F1CFFB2DFF8F0150A78974280F060
S1130B40AC80DFF8E80500EB0710237802788168B1
S1130B509A42ECD10091407BC107EAD5002603E01C
S1130B60B9F80A004519761C0099F0B20A79904246
S1130B70DFD20A68F1B214204843214602EB00098F
S1130B804846FFF7A3FF0028EAD04FF0000B09E026
S1130B909AF804000BF1010B10F0300F04BF9AF81F
S1130BA003004519B9F808101FFA8BF08842DAD20D
S1130BB01FFA8BF20C21D9F804004A4300EB020A15
S1130BC0224651464846FFF797FF0028E0D0039895
S1130BD02746544600B104602079810611D5DFF818
S1130BE05405002105E00279930644BFC2785118E8
S1130BF00C30A042F7D3DFF84C0589B200EB010BAF
S1130C0004E0DFF84415ADB201EB050B0E9E049D24
S1130C103046E6B121464846FFF745FF02462388A1
S1130C2079883878AA4600F070FCF8B12079C106BA
S1130C302AD5002E214648461AD0FFF734FF0095E6
S1130C40034679883878224600F076FC26E02DB3F6
S1130C5021464846FFF727FF0246238879883878DB
S1130C60DA46AB4600F04FFC0028DFD17E2015E0C9
S1130C70FFF719FFE17800950346019179883878E8
S1130C80224600F057FC09E0CDF8008033462246A6
S1130C9051465846FFF7C4FE00E0862005B0BDE883
S1130CA0F08F2DE9F84304468846164699460025F8
S1130CB02179E8B2884221D2EAB2142320685A4347
S1130CC087183888404517D131000AD0802E03D1C7
S1130CD0397B0A0605D40FE0402E0DD1397B4A0634
S1130CE00AD5B0F57C4F0CD33846FFF7E4FE4845EF
S1130CF018BF5FEA090004D06D1CD9E70020BDE8E5
S1130D00F2833846FBE7134680B507E0134680B507
S1130D10402204E0134680B5802200E0002200F067
S1130D2007F800B1012002BD80B500234022F6E798
S1130D3070B50C4615461E4600F05BF8FF2801D13D
S1130D40002070BD2146DFF8E44304EB0010334675
S1130D502A468068BDE87040A3E70023E8E770B541
S1130D600022DFF8C833DFF8C0532E78D4B2B4427F
S1130D700BD224011D5D854205D10D0007D01C4412
S1130D80647BE50703D4521CEDE7FF2070BDD0B2AD
S1130D9070BD70B50E4604460021FFF7E0FFFF2842
S1130DA001D1002070BDDFF8841301EB001532007F
S1130DB0687B00F0010114BF40F00100002068735B
S1130DC0B14214D076B12846FFF7F3FD0FE01422A8
S1130DD000685143761C0844027B01882046D209EE
S1130DE0FFF792FBA868F1B202799142EFD3012098
S1130DF070BD0121B3E7DFF834130001085C7047CC
S1130E00F8B50C46FFF7F5FF01460020FF291FBF88
S1130E10DFF8182302EB01118968002915D000229C
S1130E2014270D79D3B2AB420ED2D6B20B687E43EF
S1130E30451C33441B7B260001D11B0600E05E06E3
S1130E4048BF2846521CECE7C0B2F2BDF8B50C46C8
S1130E501546FFF7CEFF01460022FF291DD00023CF
S1130E604FF0140C01E0521C5B1CDFF8C00200EBD5
S1130E700116DFB2B0680679B7420ED200680CFBE7
S1130E8007F73844067B15B1760602D4ECE737063B
S1130E90EAD5D6B2A642E6D1F2BD0020F2BD0021C9
S1130EA009E010B50446012100F005F82046BDE82C
S1130EB0104001F0D1B82DE9F84F86B0814601F019
S1130EC098F999490A7805904FF0000B0492DFF8DD
S1130ED05CA207E00AEB0010017B059881420FD069
S1130EE00BF1010B04995FFA8BF0884246DAB9F1F1
S1130EF0FF0FEFD04846FFF77CFF8346FF283DD025
S1130F0000273FE00328ACBFA26804F108020120D7
S1130F1000900023002101A8FFF701FE761C298917
S1130F20B0B288422DD2B2B20C2168684A43841808
S1130F302379D906F2D41AF808208DF804202988D8
S1130F40ADF806102079410628464CBF8021402187
S1130F508DF808102188ADF80A102146FFF7A3FD8B
S1130F60ADF80C002179E0784A07CBD5A2680328B4
S1130F70CDDB1268CBE7B9F1FF0FB1D007B0BDE804
S1130F80F08F7F1C4FEA0B604FEA10580AF10800FB
S1130F9050F80800F9B202799142ECD20168FBB230
S1130FA014204343CD182A8940F22D118A42A8BF48
S1130FB001F0FCF90026B2E7704730B5047B01224A
S1130FC000230C4205D1002030BD144218BF5B1C25
S1130FD05200D5B28D42F8D30069DBB250F8230039
S1130FE030BD5A49401A8003020C0021584841E59B
S1130FF02DE9F84F054600244FF6FF79A246487DB7
S113100035B108B9022507E0012804D1012503E020
S113101008B9082500E004250026934698464B4865
S113102000EB86073988594516D1FB782B4213D03B
S1131030B878404510D30CB182450DDBD9060BD5E9
S11310403846FFF7CEFFB9781CB1514501DB48455E
S113105002D201248A468146761C032EDFDD4846EF
S1131060BDE8F28F2DE9FE4F002700284FF001085C
S1131070487D06D008B9022407E0012804D10124E0
S113108003E008B9082400E004240E980C9DB94636
S11310900D9EDDF83CB08A46ADF800200193ADF812
S11310A030508DF83800294800EB89052988BDF8AF
S11310B00000814224D1E978214221D0A9789DF809
S11310C0380081421CD3E9789AF80F00CA0608D583
S11310D0B0B12846FFF785FFBAF81010814201D05D
S11310E00EE068B9BB4513D0BDF8300087420FDA73
S11310F0A9780198C15532887F1CBFB2521C328036
S113110009F10109B9F1030FCDDD4046BDE8FE8FB9
S11311104FF00008F9E70000B67903008A7903006C
S11311208C790300B7790300DBFD00204CCC002050
S113113074040300D00303008004030024040300A8
S11311407C04030064CC00205CCC0020BC030300BE
S1131150CC030300EFF31180302181F31188704731
S113116080F31188704770477FB500F011F818B903
S113117000F015F801F071F904B070BD7FB500F00E
S113118007F818B900F00BF801F083F904B070BD4A
S11311900446084615461E4602A901F06EBA9DF89B
S11311A02010BDF8240033460091029901902A468C
S11311B02046704780B500F00DF880B202BD80B5BE
S11311C000F008F8FA21B0FBF1F080B202BD000093
S11311D000BF0000E0B501F035FA6A4601F084FA78
S11311E018B14C2128A000F059F8DDE9000103B042
S11311F000BD000080B501F013FC01F0FDF820B142
S11312005FF0570120A000F049F8002002BD012042
S1131210104908707047FEB504462168002501B9DD
S11312201CE000F00CF808B100F002F8012019E00D
S113123001950095216800233A46301D94E7054E38
S11312403570054F0023019500933A46301D95E70C
S11312500000000074F700200F12000000F027F9CE
S11312600020FEBD01F031FD307840B92146301D2B
S113127001F079F92068852501F016FA01E00020D3
S1131280307020602846FEBD73797374656D2D74CB
S1131290696D65722E63000042DE704738B50446FE
S11312A00D4601F083F801F027FD2946204601F0A0
S11312B029FD2B4622466D49012001F0D8FE29461E
S11312C02046BDE83440E7E769482DE9F843016862
S11312D0684E4FF42068B165026A6749F2650B688D
S11312E0336649687166426AB266816AF166C26AA7
S11312F03267016B7167806B96F83810B0674807E6
S11313004CBF346CF46B01F0E1FEDFF870E10022B5
S1131310844201463265A14624BFAEF12007A742AC
S1131320716506F19002564BDFF858C118D3A069D5
S11313307064E469B464B56DC5F30805062D13D172
S1131340604511D398420FD200884DF64264A04202
S11313500AD17068B46840F201785060946003E088
S113136000247464B46481464748814238BF01460E
S1131370084670456AD20C68B4F1CD3F08BF091D18
S1131380F6D063E0062C09D1C4B2002C06F17C042B
S11313900CBF0520401EC5B244F82510F14520D2EB
S11313A05EF8041D6145F9D39942F7D2CC07F5D50F
S11313B0002406F17C0555F824708F42E2D0641CA9
S11313C0062CF8D3DEE7F16F002306F17C0506EB6B
S11313D08304D4F8804045F823405B1C042BF6D9E1
S11313E011600146481EC9B20029ECD1B06DC0F3AA
S11313F00800032810D0042811D0052812D006288C
S113140013D00C2817D03B2818D120480268910724
S113141019D540F2025816E040F6012813E040F6D0
S1131420022810E040F603280DE0B8F5206F0AD139
S113143040F6042807E040F6052804E018B14D28DA
S113144038BF40F607284046BDE8F2831049081A21
S1131450F0640020002106F17C04C5B2401CC7B230
S113146044F82510062FF8D3002097E7D026030070
S113147004ED00E00000002000E300E0B8BD00201F
S113148046FD02006C0400009C0000201880014A04
S1131490B8BD0020EFF31080C00706D4EFF311802D
S11314A030288041C043C00F70470120704700209E
S11314B080F31188704770477047704770477047D2
S11314C070477047704770477047704770470020F7
S11314D0704770477047002070477047704700207E
S11314E07047002070477047012070470120704703
S11314F07047704770477047704770477047704730
S11315007047012070470120704701207047B520C3
S113151070477047002070470020704700207047D4
S1131520002070470020704700207047002070475B
S1131530002070470120704701207047B520704794
S1131540002070470020704700207047002070473B
S1131550704770477047002070478120704770477C
S11315600020704784207047704770477047704769
S113157001F0CCBD14207047002070470348016877
S11315800878012808BF022070470000D4CC00204E
S11315907047704700207047002070470020704754
S11315A000207047002070470020704700207047DB
S11315B000207047002070477047B5207047002016
S11315C0704700207047704700207047704770478D
S11315D07047B520704770477047002070477047C8
S11315E0704770477047704780B5FFF702FCFF28CB
S11315F004D018B9DFF8A008007802BD002002BDAD
S113160010B50268DFF8941813880B8054884C8056
S113161052790A7103681A794FF48253CB804A7164
S1131620026893799A06DFF8782844BF4FF483530D
S1131630CB808169137839B9C088DFF8681803F062
S1131640FD030880137010BD43F002031370DFF82C
S1131650584881691622204600F09CFC0022227022
S113166010BD80B50020FEF756FFFF20FFF717FCE2
S1131670FEF75FFFFFF7E8F801460122DFF81808DC
S113168001F056FDDFF81438DFF820285221DFF886
S1131690200801F081FDFEF7FEFE01F08FFD01F050
S11316A0E6FD01F007FEBDE80140FFF7A4B970476D
S11316B080B501F000FF20B903F06AFC08B9FFF718
S11316C026FFFFF779FFBDE80140FFF785BF70B53E
S11316D0034600204FF6FF72DFF8D84734F8305045
S11316E095420ED09D4209D1B3F57C4F0ADB04EB41
S11316F0C0056E888E4205D00D0003D0401C80B218
S1131700ECE7104670BD10B50446FFF7E0FFDFF8C4
S1131710A8174FF6FF720B88904203D12246DFF8D8
S11317209C1706E0DFF88C1701EBC0004268DFF875
S113173090171846BDE8104003F047BDDFF8840752
S1131740006800B1008A70471CB50446DFF87817BA
S1131750087800283CD003F013FE0246DFF86C172B
S1131760042003F032FD206841880091A289437966
S1131770DFF85C17042003F028FD042003F0E0FCEC
S113178020B12068218A4088FFF7BDFFE07B28B1A3
S1131790228ADFF84017042003F017FDE07CDFF80D
S11317A038170090A068A37C0278042003F00DFD94
S11317B0217DA289A4680123521A92B221440420F3
S11317C003F0F6FDC6A10420BDE81C4003F0F7BCFD
S11317D013BDF8B504462168DFF800574879FFF7D0
S11317E008FB2268FF280BD100F065F8DFF8F0163B
S11317F0022003F0EAFC2068DFF8E816427944E0AE
S11318000001DFF8E4160B181F7B237FDFF8DC668A
S11318109F4209D000F04FF82068DFF8D43600F07A
S113182045F8227FB1A130E0891C085A1188DFF8FD
S1131830C476884210D04FF6FF73994202D1B0F5B6
S1131840004F09D300F037F82068DFF8AC3600F019
S11318502DF82068028817E02079022818BF032891
S113186018D111895079FFF763FE98B92068E37C99
S113187029464288022003F0A8FC2068DFF87C3661
S113188000F014F8206802893946022003F097FC1E
S11318900020F2BDA07B0028204602D003F020FEE9
S11318A001E003F04DFE00B10120F2BD3146427962
S11318B0022003F08ABCE37C52882946022003F00C
S11318C084BC7CB5144622785507DFF834564CBFE7
S11318D005220322934204D200922A46DFF82416FA
S11318E033E0089E069A30603171F280B460B381AF
S11318F0207800F00100B0732178890801F001011B
S1131900F173207801213175C00800F00100707571
S1131910F07B30B11A46204604F01AF9317D891C57
S113192031753082307DB389411C3175205CB074CF
S1131930481C3075C9B2615CC4B2A342F17409D2C7
S1131940C0B200902A46DFF8C015042003F037FC2B
S1131950002076BD0798B06100F04BFC3077012081
S113196076BD2DE9F14F84B00F469246DFF89C55C1
S11319709B460E9EDDF83C802846DFF89415202215
S113198004F01CF902950498CDF8048000965B4697
S1131990524639460024FFF794FFDFF828950028C3
S11319A07AD0C9F80050A87CDFF86815087028467A
S11319B0FFF7CAFE2846FFF723FE284600F04DFB3A
S11319C0002836D1B8F1000F35D1042F18BF052FE8
S11319D003D0022F18BF032F01D1012200E00022FF
S11319E0E988286801910121438800930388E87CF1
S11319F000F06AF918B3286881798A061FD44288EE
S1131A00DFF81415022003F0DAFBDFF8104501209B
S1131A10207000220121284600F016F938B103464F
S1131A20DFF8FC24DFF8FC14022003F0C8FB0020DC
S1131A302070012430E098F8140081072CD5286820
S1131A404179FF2924D10026DFF85084FEF7FCFEFB
S1131A50F1B2814220D2F0B2FFF7CDF90746F0B2DD
S1131A60FEF7F6FE90B128682A8A41883846FFF7C7
S1131A704AF958B12846FFF7C3FD2868477188F82A
S1131A8004702846FFF7A5FE00B10124761CDDE7AB
S1131A902846FFF79EFE044604F00AF81621DFF8F4
S1131AA0080404F0CFF80020C9F80000204605B06F
S1131AB0BDE8F08FDFF870140878401C0870FFE769
S1131AC000F07F007047DFF8D8130A78002814BFAD
S1131AD042F0010202F0FE020A70704700000000AA
S1131AE05D000000DFF844140870704725640000AE
S1131AF080B1DFF838140978012904D1018841F054
S1131B00400101807047022904D102884FF6BF7159
S1131B100A400280704778B1DFF814140A78012A69
S1131B2004D1DFF8102413780B7001E0022A03D1EA
S1131B30017841F01001017070472DE9FE43DFF890
S1131B4060432278D30706D5DFF8EC13022003F0B4
S1131B5036FB002070E0DFF86C130968DFF83C53B3
S1131B6071B109688B799E0603D5EB8843F0200395
S1131B70EB8089794B0603D5E98841F04001E9807F
S1131B80DFF82C6331784B07DFF8881347BF0F78F1
S1131B90F7700B787370DFF8147391070CD53988DC
S1131BA03246C14804F078FA814620784FF049085B
S1131BB000F0FD0020701AE0BA490C884FF6FC735F
S1131BC09C420AD23B88019000962A462146002076
S1131BD04FF0550804F01BFC08E03A8800903346A7
S1131BE0294620464FF0420804F0F6FB8146A879C6
S1131BF081064CBFDFF8444344A403F0C1FB024612
S1131C000294CDF80490CDF80080DFF83433DFF887
S1131C103413022003F0D3FADFF82C13022003F06C
S1131C20D4FA3A8801233146022003F0C1FB38A1DB
S1131C30022003F0C4FA4846BDE8FE8300207CE796
S1131C400146A0480068002270B5044620790E467B
S1131C501546002818BF01280BD1A0680178CA06D0
S1131C6001D5300005D0A07B002804BFE07C0B2800
S1131C7001D1002070BD00218C4A1180607DE17B80
S1131C8000280CBF0820002011B903F027FF06E04C
S1131C9040F0040003F022FF208A03F02EFFA07C12
S1131CA003F01CFF0B2003F019FFE07C03F016FF88
S1131CB0304603F013FF2046FFF7A2FC2846BDE898
S1131CC070403AE70022BFE770B51D469F4B1C7871
S1131CD0924E012C01D0337813B10020307070BDC6
S1131CE00B0002D10AB1002070BD002C1EBF049C61
S1131CF04FF657439C4206D003460A4621462846DF
S1131D00FFF708FC00B1012070BD000000000000D6
S1131D105D00000038B5D288522403469506084673
S1131D204FF6FD7148BF4924550548BF083C1505C9
S1131D3048BF083C120448BFA41E032B0ED8DFE89A
S1131D4003F00902060BC0B204F092FF02E0C0B235
S1131D5005F0B8F9014601E0641EE4B2084601F05A
S1131D6036FA241AE0B232BD70B50C0005461646A8
S1131D7008BF002003D02178FF2902D1FF2028705A
S1131D8070BD204603F0EDFE864288BF064632460B
S1131D90611C681C00F0FEF82E7070BDF8B5054695
S1131DA00C00164603D1002068702970F1BD20781C
S1131DB0FF2804BF6078FF2802D128706870F1BD45
S1131DC0204603F0D3FE0746BE42B8BF37463A4624
S1131DD0A11CA81C00F0DEF82F703F126F70F1BD3B
S1131DE02DE9F041541E0BB3042A46DC00230026DF
S1131DF098465FFA88F5954225D2651B002814BFE2
S1131E0010F805C04FF0000C571E4D5DA7EB0807F6
S1131E10FF000CFA07FC05FA07F74CEA03033E43FC
S1131E2008F10108E5E7AE4224DB5B1CDDB2954214
S1131E3023D2651B00280CBF0026465D4D5DB542CC
S1131E40F1DA01201AE0042A10DAD5000120D200C8
S1131E506D1E00FA02F2524243FA05F1CC0746FA2B
S1131E6005F048BF1343C00748BF16439E42E8DB52
S1131E70B34202DA4FF0FF3000E00020BDE8F08109
S1131E800021334A01E0891CC9B2535C8342FAD36E
S1131E905018407870470000E0FD002074CC00200A
S1131EA0E5FD0020F6F700205CCD002072FA00204A
S1131EB080CC00205C11030086FA0020580F030038
S1131EC0700F030058CD0020BCC70020780F03001A
S1131ED0800F0300A00F0300AC0F0300CC0F03001E
S1131EE0EC0F0300081003004CCC0020101003007A
S1131EF03810030048100300401003005010030082
S1131F0074100300581003007C10030038CD002027
S1131F1074110300C0C7002098100300E1FD0020E5
S1131F20E8100300C0100300C1C70020E2FD002038
S1131F30E3FD0020E4FD0020F01003003C11030049
S1131F4034110300181103004C110300BFC7002013
S1131F5094110300283808288041C00F704740B10D
S1131F601C280BD01D280CD01E2818BF1F2805D0F4
S1131F7009E00B39102906D2002070471B29FBDB2E
S1131F8001E00929F8DB8A2070477047002201F03C
S1131F90D3B8704781423ABF5318984203F0FEBD4C
S1131FA08018990707D0521E24BF13F8011D00F8AA
S1131FB0011DF6D8704781071BD1103A07D330B4FE
S1131FC033E93210103A20E93210F9D230BC103221
S1131FD0121F24BF53F8041D40F8041DF8D838BF5D
S1131FE0121D521E24BF13F8011D00F8011DF8D85C
S1131FF07047121FF3D3C10709D153F8041D121FF0
S113200020F8041D4FEA31414180F6D2E7E753F846
S1132010041D121F00F8041D4FEA3121A0F801101D
S11320204FEA3141C170F2D2D9E780B505F016FA12
S1132030FFF717FBBDE8014005F02ABB80B505F0AA
S113204021FABDE80140FFF732BB80B5FFF787FAFC
S1132050BDE8014005F042BC7047FFF79FBAFFF7A7
S1132060A3BA0020704738B504460D46FFF7B7FA07
S11320702946204605F025FB29462046BDE8344084
S113208005F049BCFFF792BAFFF79EBA2DE9F0427A
S11320907E4E002030707E4C20683821382503F0B5
S11320A0D1FD33787B49087822686B43D05430786B
S11320B021680022684308444270307821686843EC
S11320C00844827001F022F8327821686A430A4495
S11320D0107201F01BF8327821686A430A44507286
S11320E0317820686C4A6943014410786B4AC8709F
S11320F03378216817686B43C818476168490A78C0
S113210002763078D4F800C0664A074615FB07F318
S113211012680CEB0301CA61634AD2F800902C22C6
S1132120574309EB07020CF13407FA5005F060FC41
S11321303078216815FB00F501F1340251594A68E1
S11321400968BDE8F04205F0DBBE80B592B06A468E
S11321500021002006F0AFF808B1012018E053492F
S1132160534A0A910B925349534A0C910D92109180
S11321705248534A53490990534B0F9211910E936D
S11321806A460021002005F0BBFF00B10120C0B267
S113219013B000BD80B5002000F01AF828B100206B
S11321A000F005F808B1002002BDFF2002BD374A47
S11321B037481378016838204343C81880780228C8
S11321C01CBF1128432801D101207047002070470B
S11321D02E4A2F481378016838204343C8184078A2
S11321E001281CBF0228032801D1012070470020C8
S11321F07047002070477020704700207047704778
S113220000207047012070477047002070477047D6
S113221070470020704780B500F020F820B10020FE
S1132220FFF7D6FF00B1012002BD80B500F016F81B
S113223008B1002002BDFF2002BD10B5044600F025
S11322400DF848B100F019F84078012818BF0228A9
S113225002D10CB9012010BD002010BD0020A6E75A
S113226080B5FFF7FBFF30B100F007F84178032990
S113227001DA002002BDFF2002BD044A044813789D
S1132280016838204343C818704700002FFE00201F
S11322904CC30020D9C70020DAC7002054C3002053
S11322A0D0C7002058C3002050C30020CFE800004E
S11322B0C71400008DE40000B11D0200A7E7000070
S11322C0451201003553010083E60000002100207F
S11322D006F0C9B87047002818BF06F0B8BB7047AD
S11322E006F0D5BF06F06EBE33B585B005468DF851
S11322F0042002F0A7FD0446284602F0B3FD7CB199
S11323000028BDF818000FD102F00AFFFF288DF84D
S1132310000004BF00218DF80010CDF808D016E0AD
S1132320A8B106A8029012E002F0FAFEFF288DF888
S1132330000003AA04BF00218DF800109DF80000DE
S1132340BDF8181002928DF80C00ADF80E10DDE9FE
S113235001010A460146284600F0B8FF07B030BD27
S113236006F09ABF7FB51C4991E81C00684603211A
S113237080E81C0001250D268DF807108DF800500B
S11323808DF806600821242007F0CAF8694613482E
S113239007F0B6FB4FF40060114908600222114BAC
S11323A01A60114C206011490A607FBD0B4807F088
S11323B096BBA52803D10021084807F07FBB7047CE
S11323C00B48006805E00B4908680028FCD17047F9
S11323D0C84000F001007047EC3303000080014A5C
S11323E084E200E018A0014A04E100E01C90014AE4
S11323F00480014A2480014AF8B5FEF7ABFE044686
S1132400DFF88C55287830BB0021DFF8880501609F
S1132410DFF884351960DFF88405018007F0B2FB2A
S1132420012007F010FC07F06DFC0200DFF87005D6
S1132430026004D12046FEF793FE2320F2BDDFF8AC
S1132440640540F2E731002307F068FCDFF85865C3
S1132450306001272F70204665E0F8B5044684B04B
S113246000F035F80CB922200EE003A9204600F054
S11324705EF89DF80C00012808BF032004D000F08A
S11324801FF8002200F002F805B0F0BD29462046EE
S113249052E22DE9FE430400894690461F4608BFD8
S11324A022200BD00B9D0A9E00F018F8029501968D
S11324B00097434600224946FFF7E9FFBDE8FE8343
S11324C00B980A99029000970191334670470020B7
S11324D00D4616461F468DF80C007047F8B50546A4
S11324E000240DB92220F2BDFEF734FE064600F0AA
S11324F00DFADFF8A0743868A842284608BF012402
S113250000F0CBF9050003D000F089F82846F2BDAD
S113251038681CB118B100F0DBF903E010B90220EF
S113252007F09EFB3046FEF71BFE0020F2BD38B5D7
S113253005000C4618BF002C01D1222032BD00201A
S11325402070FEF707FEDFF84C140A6800E092687A
S11325502AB1217819B9AA42F9D101222270FEF7D1
S1132560FFFD002032BD70B505000C4618BF002CDD
S113257001D1222070BDFEF7EDFD064600F0C6F93C
S11325806869DFF810142060086805E0E0B121688C
S11325904269511821608068A842F7D107F026FBF0
S11325A0DFF8F45329682268401A904206D207F0F3
S11325B01DFB22682968101A081800E0002020601A
S11325C000F02DF8002070BD00F029F8032070BD44
S11325D0F8B507460C46FEF7BDFD0646DFF8B40322
S11325E00025006800E08068A8B14169C2884D19DF
S11325F0BA42F8D107F0FAFADFF89C733968401A46
S1132600A84205D207F0F2FA2D1A3868451900E0FD
S11326100025256086E700F002F81B20F2BD304655
S1132620FEF79EBDDFF884030078704738B5FEF7E7
S113263091FD044607F0DAFA05462046FEF790FDC0
S1132640284632BD70B5FEF785FD064607F0CEFA82
S11326500546DFF848030488012007F017FB18B18A
S113266007F0C4FA0546641CFFF7D9FF2146284643
S113267070BDDFF82C030068704730B50C46DFF8F6
S113268028130A6882420DD3DFF8145329684FF4E3
S11326907A720023A1FB000107F040FB401C20607C
S11326A0002030BD212030BD70B5BD490E68CEB1CB
S11326B04FF47A71A1FB0045304600F084F948B12B
S11326C0304600F07BF9024620462946BDE87040BA
S11326D007F03CBC2046294632460023BDE8704042
S11326E007F01CBB002070BD2DE9F041B04DB14C8A
S11326F0A94223D828BFA04220D2A94B1F68EFB11A
S11327004FF47A78A8FB00451646384608FB015575
S113271000F059F940B1384600F050F9024620461D
S1132720294607F013FC05E0204629463A460023D3
S113273007F0F4FAC6E90001002000E02120BDE81A
S1132740F0812DE9F0470546DFF84882E8070AD50D
S113275092480188491C018000F0D8F8D8F800009C
S113276008B100F0B5F8A80766D58B4F07F03EFA1C
S11327703C6805460026B2462C1B3BE0486984426F
S11327803FD3224608463D6043699A4209D30679FD
S113279091F804E0764538BF01468068D21A0028D3
S11327A0F2D10E464846FEF7DBFC706900217161E8
S11327B0241AFEF7CFFC8146304600F06EF84846F6
S11327C0FEF7CEFC306948B1FEF7C4FC316981469E
S11327D0304600F033F84846FEF7C2FCF26812B106
S11327E031683046904707F001FA0419641B0AF176
S11327F0010A0546FEF7AEFCD8F800108146002910
S1132800BCD10020BAF1010F04D11EB1F288022A12
S113281008BF0120684A107031B14869041B4C613B
S11328203D6000F055F802E0022007F019FA48462E
S1132830BDE8F047FEF794BCBDE8F087F8B5044660
S1132840E0880D4630B907F093FC85423CBF05464D
S113285007F0A0FC65614F4E3268D2B10023516984
S11328608D4206D229B1681A09D110792779B84264
S113287005D26D1A656113469268002AEFD1002BC8
S113288014BF9C603460100005D051694D1B556124
S113289001E034600020A060F1BD3E4B00221968C5
S11328A091B181421CBF0A468968F9D10CE0816864
S11328B0002A14BF91601960816819B14A6940699E
S11328C082184A61002070478142F0D0022070478C
S11328D038B531482F4C05682168486945190220EC
S11328E007F0B1F9284607F087F920680021002293
S11328F083799C0706D4806828B143695918022952
S1132900F6D300E001222948027031BD10B507F06A
S11329106DF920490968204A61B113684C69C31AEA
S11329209C4202D3E31A4B6104E0001B10600020B8
S1132930486110BD106010BD70B50C46059906467F
S11329401546049A0698317132600021B1603561F0
S1132950F360F0803CB9F268716112B131683046BD
S1132960904795B12C46FEF7F5FB0546FFF7CEFFE1
S113297021463046FFF762FF06480168B14208BFAE
S1132980FFF7A6FF2846FEF7EBFB002070BD000012
S11329900BFE002088E100208CE10020AAFD00202D
S11329A084E1002018FCFFFF90E100200CFE0020D1
S11329B037894100F0A7C64B0DFE0020B0FA80F025
S11329C0C0F11F00704720B1411E084201D101200F
S11329D07047002070477047010007D4012200F0BF
S11329E01F018A403F4B400943F8202070470146AD
S11329F03D48814202D14FF0FF3070473B4A4FF6C9
S1132A00FF7091420BD03A4B01D0994207D09142CA
S1132A1018BF994202D0374A914200D00020704733
S1132A2038B588B068463449102203F0C7F804A8C2
S1132A30102103F007F902208DF816002A4C04AA8D
S1132A400021204607F03EFD2046FFF7D0FF206B13
S1132A504FF6FF71E1610022ADF80220274D69466F
S1132A60204607F0D9FC062006F01AFCBDF9021036
S1132A704A1CB0FBF2F0491CADF8021009B2286000
S1132A80B1F5806F02DA1E498842E8D20F2006F0C1
S1132A9007FC2A681B4BB3FBF0F31B480021E3FB44
S1132AA002011A4A002307F039F9194A1060002379
S1132AB018490B70A06920F01000A0610620FFF7F0
S1132AC08BFF402014490860002009B030BD144831
S1132AD00068C10605D51020104A106001210D4B75
S1132AE01970704780E200E00080044000C0044098
S1132AF000000540004005409C26030004E200203D
S1132B0081841E0000B0710B20A1070040420F0019
S1132B1008E2002010FE002000E100E014A00440C0
S1132B20148004406B4800686B49694A000C000437
S1132B3008601060704701000FD44009674A52F8DA
S1132B40202001F01F01CA40D20706D5644B53F878
S1132B502000C84000F0010070470020704780B595
S1132B6007F004FA18B192215E48FEF797FB5E491C
S1132B705E48BDE8044007F014BB000070B506468B
S1132B800D465B4C300030D100215048016028468E
S1132B90012D18BF002007F042FF6D1E032D46D8FB
S1132BA0DFE805F00212142001210120FEF71AFDCE
S1132BB0FFF706FC207010B1A520FFF7FAFB0120F7
S1132BC0BDE8704007F02BBF022100E00421012082
S1132BD0FEF708FDFFF7F4FB002828D0BDE870409D
S1132BE0FFF7F1BB052101201DE0207818B1012178
S1132BF0404806F063FF3046012E18BF002007F05E
S1132C0040FF761E032E12D8DFE806F00207090BF8
S1132C10012007F036FF012104E0022102E0042133
S1132C2000E005210020BDE87040FEF7DBBC70BD6C
S1132C3038B5284841680468244D1A200C40A4B2D1
S1132C402C60FFF778FF18B91920FFF774FF10B153
S1132C5044F480342C600A20FFF76DFF18B1286813
S1132C6040F40030286031BD38B50024012808BF85
S1132C7001240CD0022814BF0328022407D00428FE
S1132C8008BF032403D0052808BF08F0BEF908F0E4
S1132C90F5F905460121204607F01DFA284608F0FB
S1132CA0F1F908F04FFAFEF702FC07F08BF908F08F
S1132CB04BFA08F0E3F905460021204607F00BFA29
S1132CC02846BDE8324008F0DDB9CDE71CE200201B
S1132CD020E2002020C4034020E4034000E200E09E
S1132CE000E100E07835030044C2002014E2002033
S1132CF011FE00200080014A302080F311887047C3
S1132D0008F0F9BA03460A469EA10420FFE70CB472
S1132D1080B502AA00F02AF801BC5DF80CFB0000A3
S1132D2080B586B008F0EEFD974A00216A23009230
S1132D300591049103930291019102465FF000030F
S1132D4095A10120FFF7E3FF904881790288437938
S1132D5003910179029201930091C37890F80220C3
S1132D6090A14220FFF7D3FF07B000BD2DE9F04743
S1132D7086B007460C469146002608F0EAFD002876
S1132D807CD108F035FA002878D00021002009F021
S1132D90DDF8ADF80400002870D0002101A809F086
S1132DA0FFF9394602A808F029FA0746D4B900F019
S1132DB098F8002862D1BDF8040009F024F88DF8D1
S1132DC00000BDF8040009F006F8694608F086FA28
S1132DD0002853D0042008F0B8FD4FE08DF8081007
S1132DE00127641C20780028E1D0A0F130010A29D1
S1132DF004D20A2101FB0606303EF2E700F071F826
S1132E0000283BD12178002702A842290ED044296A
S1132E101AD0462925D057290DD0622940D06629D9
S1132E2032D06C292DD070292ED0D7E759F8040B55
S1132E308DF80800D4E759F8041B02278DF8081010
S1132E400904090E4170CCE759F8041B04278DF8D6
S1132E5008100B0A0A0C090E437082708DF80B10CF
S1132E60BFE759F8048B404609F0E4FAC2B20123E3
S1132E70414601A809F0EFF80028B2D006B0BDE839
S1132E80F08759F8046BACE759F8041B0123F2B23C
S1132E9001A809F0E0F8002808BF0026A1D0EDE75A
S1132EA0BDF8040008F0AFFF59F8045B8046A8B2EF
S1132EB0002896D008F0A7FF82460AEB0801C9B2A1
S1132EC001A809F06DF90028D8D15FFA8AF00090C2
S1132ED0BDF804000023AAB25FFA88F109F0ECF906
S1132EE07FE701233A4602A901A809F0B4B800001B
S1132EF02DE9F84185B004460D469046122806D0C7
S1132F003A2808D04FF6FE71884226D032E00020DD
S1132F1007F0DEFD2EE002F03BF80646002009F043
S1132F2039FD0746002009F03FFD0346184A049680
S1132F30154892F800C00390482010FB0CFC15497A
S1132F40002201EB0C00B0F8E2100192009702910C
S1132F5016A13B20FFF7DBFE0CE000224146284689
S1132F6009F043F80746FFF74FF93846FEF7AAFA87
S1132F70FFF74EF942462946204606B0BDE8F04127
S1132F8008F0E9BC57460000D0F60020BC5A030004
S1132F902FFE0020A8F800204242387042424242EC
S1132FA057000000424242425742000057424257F3
S1132FB057387042000000002DE9F841044601250D
S1132FC093B00F4690461E46012C06D0032C1ED00B
S1132FD0202C02D0222C1AD029E068462A49282223
S1132FE002F0ECFD012C18BF202C08D0022C18BFD5
S1132FF0212C04D0032C1CBF222C232C24D1019778
S1133000ADF81080012E14D14FF4805015E00AA8B9
S11330101E49242202F0D2FD68460AA9242202F0A5
S1133020CDFD1021ADF82410ADF82610DAE701200B
S11330300BE0022E03D14FF44050ADF80E00694668
S1133040204607F068FD0546E8B214B0BDE8F081FB
S113305080B507F037FEC0B202BD80B507F0B2FEFE
S1133060C0B202BD80B507F043FFC0B202BD0CB4CC
S11330700A4680B5014602AB05480AF0D6FB00209B
S113308002BC5DF80CFB00006817030090170300F6
S113309079AE000010B50446FFF72EFE200A002882
S11330A00B484FF20F0108BF240204804180BFF394
S11330B05F8FBFF34F8F07490A68074802F4E06245
S11330C002430A60BFF34F8F00BFFDE70348704718
S11330D0000000200CED00E00400FA0558B40020C4
S11330E001468AB20AB94BF6EF61000C0E4A118010
S11330F008BF4FF6CE200D4908807047024610885D
S1133100030448BF484041001180704710B5622154
S11331100548FFF7F3FF044641F20B010348FFF7AC
S1133120EDFF604010BD00009EC70020A0C7002036
S113313062F30F2262F31F42401810F0030308D019
S1133140C91A1FD3DB0748BF00F8012D28BF20F898
S1133150022D130030B414461546103928BF20E957
S11331603C00FAD8490728BF20E90C0048BF40F8C2
S1133170042D890028BF20F8022D48BF00F8012D36
S113318030BC7047C91818BF00F8012DCB0728BF01
S113319000F8012D7047704710B5044C20600448B6
S11331A0018004490A60044A136010BD2CC9002040
S11331B0B2F700206CCC002070CC00201A480178B3
S11331C019B101221948FFF7B3BF704770470AF0DD
S11331D0A3BF70471FB50446FFF70FF8FFF70BF8BE
S11331E0912C02D100F067F91FBD902C1AD1FFF782
S11331F000F80E49085C012808D003A805F0CEFFAA
S1133200002804BF9DF80C0001280BD100210322E3
S113321002910120009201903C230A224FF6F97199
S11332200BF0A8F81FBD0000CFC7002015FE00203A
S113323080B5A0B040887D22694605F0CEFE01002D
S11332401CBF694602F000FE21B000BD0B460146DA
S113325080B50022184608F0C8FE010001D11820EC
S113326002BD01220121BDE808400BF014BA80B56B
S113327002F0ECFC0120BDE8024010B5040014BFCC
S1133280084800200BF002FB50B1002C034606490D
S113329014BF064A064A0420BDE8104001F08FBF5F
S11332A010BD0000A4220300602203008C2203004E
S11332B09822030080B55221504802F0C3FCFF223B
S11332C052214F48BDE808400BF056BBFEB50546F9
S11332D001F0B8FD0646284601F0C4FD9DF8001033
S11332E02A464FF6FF7426B3019B284621281B78F3
S11332F01FD24220434E012B09D84343F01830F823
S11333001230A34215D05B1C20F8123011E0022BBE
S11333100FD1002306EB420700FB03F637F806E063
S1133320A6451CBF0EF1010E27F806E05B1C012B1D
S1133330F2D9334F314E37F8123036F812C09C456B
S11333408041C043C00FA4451CBF0CF1010C26F8FA
S113335012C0092D18BF0B2D0AD1B6F814C0BF8AAC
S113336001EB0C0EBE45AEBFB7826144B1820CE0E6
S11333701D2D0AD1B6F83AC07F8F01EB0C0EBE4565
S1133380BDBF491E61447187778736F81210994290
S113339003D310B92846FEF7E9F800201A49C6B24B
S11333A08A5DAA4204D0401CC6B2112EF7DBF7BDD9
S11333B0112E15DAFEF721FF0546144801788D42D7
S11333C003DBDD211248FDF769FF22204543114943
S11333D0481930F81610A1421CBF491C20F81610D9
S11333E0F7BD5221054802F02DBCFF2252210448AA
S11333F00BF0C2BA024A22F81010704784E200208F
S1133400D8E2002050E3002008390300CFC7002091
S1133410F83803002CE30020DFF8241AC87370473F
S113342070B5DFF8205A29783824DFF81C6A306830
S1133430614301448A78112A04D0B421DFF80C0ACC
S1133440FDF72CFF28783168412214FB00F4081999
S1133450827070BD10B50220FEF7D2FEFEF7D7FED3
S1133460DFF8E039DFF8E0091C78016838204443CC
S1133470DFF8CC2908194178042903D1107C401DB8
S1133480107405E04FF47A7102F11800FDF789F821
S1133490BDE81040FEF7BCBE80B5DFF8B40908F003
S11334A016FBDFF8380C08F012FB0BF083FABDE8CA
S11334B001400BF0A0BADFF88C29DFF88C091378EF
S11334C0016838204343C818807833281CBF432838
S11334D0532801D101207047002070472DE9FF4E89
S11334E00BF0D0FF0CF01DFA002867D0DFF850492C
S11334F000202076DFF85C0901790C3001F04CFAE9
S1133500207D18B10BF070FA002020750021217382
S113351000F056F80EF0B6FA0CF027F8DFF8C00BFE
S113352000274825DFF81C69DFF8B8BB00F1E20981
S113353000F1E40A3DE0012111E0FEF768FE307875
S11335404FF6FF72684339F800109142F3D100221C
S11335500821504401F088FD411E8941C90F94F8A7
S1133560202002F001020A4220D030780822684369
S113357039F80010ADF808100AEB00016846FEF7B0
S113358009FD0A230A2201F057FADFF8BC0896F86D
S113359000C00168382010FB0CFC02230B2201EB55
S11335A00C0000F12C0100200EF087FCFEF730FE29
S11335B07F1C9BF80010F8B28842BED3BDE8FF8E92
S11335C010B5DFF880080178DFF87C28382013680C
S11335D010FB01F018444078032818BF04280CD1CC
S11335E048204143DFF8F82A5018B0F8E2104FF6AB
S11335F0FF72914208BF032008D001F043FC044647
S113360001F049FC214603F0F0FC022001F068FCC3
S11336100EF0E6FC00F0E1FF0EF060FA01F0A1FA12
S113362020B10020BDE8104004F0BABD10BDF8B5CB
S1133630DFF81078DFF80848E07339783825DFF8C8
S113364008683068694301448878032818BF002853
S113365023D0332818BF432819D100F01FF8397834
S1133660306815FB01F542195178032918BF042964
S113367007D10321801C4155E07BBDE8F240FEF7F1
S113368031BEE07BFEF72EFEBDE8F14098E7212035
S11336908870BDE8F1400EF010BFF1BDE37B13224A
S11336A089A1032008F052B938B5DFF8983701F042
S11336B0D1FA00214FF6FE701519A9700FF07FFAA8
S11336C04FF6FF700FF097FADFF87447FFF7E6FF45
S11336D0E07BBDE83240FEF705BE0000FEB50446BF
S11336E0E07A1522029094F90A10032001912389AB
S11336F034A10093234608F029F9208904F0CBF97A
S113370008B10220FEBD00F027FB0A44907888B976
S1133710208900F0E9FC0DD00FF045FB50B9FEF70D
S113372078FD38B9FEF777FD30B1DFF87C0B01780E
S1133730022901DA7020FEBD3178386869430144FA
S11337400A79900708D50FF02EFA4FF6FE729042D0
S113375003D10FF03BFD00E00020214601F0B4F856
S11337600100CFD100F0F2FA0A7990074CBF022091
S1133770012001F06DF8002101200FF0F3FF01009A
S1133780C0D1DFF8281B087808B111F038FA0022FC
S11337900821204601F068FC30B10421204611F0D4
S11337A0BDFA08B1A520FEBDDFF8040B01780020A6
S11337B0DFF8002BE081217462612046BDE8FE4001
S11337C0F7E1000042387057424200002DE9F84307
S11337D00546DFF8E40A04F059F980462B4618221E
S11337E039A10320DFF85C6608F0B0F8002088F8FF
S11337F0000031783827DFF85096D9F80000794373
S1133800702408444178032918BF042924D00024D3
S1133810290007D1416B91F82400E8B181F82440D4
S11338209D2017E0FF2D06D04FF47A7045434046A3
S11338302946FCF7B6FE3278D9F8001017FB02F7D8
S113384001F13400C15991F8240028B9012281F80A
S113385024209C20FEF746FD00F0BFFE2046BDE874
S1133860F28310B5DFF8500A04F010F9DFF8D4350C
S1133870DFF8D4151C780A6838214C4311194A6BB7
S113388092F8241009B9002010BDFCF797FE4FF4FC
S11338907A71B0FBF1F0C0B210BD38B5FCF77FFF10
S11338A00446DFF8141A04F0F2F80546FF2818BF9E
S11338B0FEF7ADFC00202070FFF788FFFF2D01D03C
S11338C001F08EBA31BD00004242000038B588B024
S11338D004460D46686916220790297C0691E889FA
S11338E00590297B0491E87A039095F90A10032046
S11338F002912B89CDF800500BA10193234608F0C7
S113390025F801200BF0C1F8287B00280CBF4FF6E6
S1133910FE700FF048F92B462246014609B00120FB
S1133920BDE83040ABE000004242387057424242AA
S1133930574244002DE9F047DFF8089599F800C094
S11339408846DFF804653824316814FB0CFC1D46F6
S113395082468B1C13F80C0000284BD1170049D069
S1133960042F47DC0FF01FFA002843D1FEF751FC67
S113397000283FD1FEF74FFC08B1042F3ADB287B27
S1133980032817D14FF6FE71884515D1012F08BFC2
S11339904FF0000810D0022F2CD10FF004F94FF68D
S11339A0FC71884202D20FF0FEF801E00FF00EFC29
S11339B0804601E0012F1DD0BAF1000F0CD0287B06
S11339C0032838460CBF01210021012F18BF002015
S11339D00FF0C8FE010030D12946404600F074FFC4
S11339E001002AD1FEF711FCFEF7F2FB20B1FEF72D
S11339F012FC08B1702020E099F80020306814FB14
S1133A0002F4811C085D332818BF532803D000201A
S1133A10DFF82C148873384600F01AFF00214FF6A3
S1133A20FF7001F01DF9DFF88418087820B1FEF763
S1133A30F2FB08B911F0E3F80020BDE8F08738B5CF
S1133A400446DFF8FC5308222146281DFEF7A2FA9B
S1133A50207BDFF8F0330228C8BF002028702878C4
S1133A609421E9730028DFF8E0031C780CBF0121DE
S1133A7031210268382044431019817031BD38B5B2
S1133A801C46FFF757FF010032D1207B0328204654
S1133A9002D1BDE832408CE0FFF7D1FFDFF8A0038C
S1133AA00021818101F030FB014640094FF0010300
S1133AB005D1DFF8580B027803FA01F108E001F0B0
S1133AC01F0140F0180003FA01F1052241EAC06128
S1133AD0062011F02FFA01000AD0DFF86843DFF85E
S1133AE0681325780B6838214D43002259198A70D0
S1133AF032BDF8B586B006460C4617461D46082268
S1133B0004F10C016846FEF745FA21898DF80A7024
S1133B100022ADF8081021788DF80C206B468DF842
S1133B200B1032464FF6FE710120FFF703FF010030
S1133B3009D16846FFF783FF204600F006F801002C
S1133B4004BFBF490D7507B0F0BD10B50446BD4AAA
S1133B50BD481378016838204343C81840780328C7
S1133B6018BF042806D1E079C10744BF94F90500C1
S1133B7011F08DFA207801F025F801F062F822891D
S1133B8061890346002011F0FFFA040004D0942058
S1133B90FFF74DFD204610BD9420FFF73DFC0220A9
S1133BA0FEF72DFBA64C00F00EFD03202074002030
S1133BB010BD10B504460022082101F055FA08B1E1
S1133BC0012010BD0EF0EFFF00224FF6FF7100F050
S1133BD0B9FE217C204600F0DFFE6269E189207C89
S1133BE00EF047FA974A98481378016838204343FF
S1133BF0C8184178012908BF10F0C2FBFFF7E0FCA8
S1133C00002010BD2DE9FC4100F0A6F804460A444A
S1133C10907810B90FF0C7F808B1702094E00AF05A
S1133C203DFFDFF81C822CB10222214608F120005E
S1133C30FEF7B0F9684600F0E1FF08B1932083E095
S1133C409DF8003014227DA1032007F07FFE00F0D0
S1133C50F7FE010078D19DF8000000F0F9FD3278FC
S1133C6038686A43411C885C012818BF022808D0C0
S1133C70032818BF042842D1002001F037F8002897
S1133C803DD000F0F4FE327838686A43411C885C09
S1133C90032814BF042811F06CFBFFF791FC0120EA
S1133CA011F08EFB01004FD13078396868434A1C0B
S1133CB0125C032A18BF042A0ED198F820309C07FE
S1133CC008D50522DFF8EC15012000F061F80100A9
S1133CD039D039E0032A01D0042A34D1084400F150
S1133CE02C0102230B2201200EF0E7F800F02EF83D
S1133CF091F82C20500726D50BF065FD23E0317890
S1133D003868132215FB01F5012441198A7000203B
S1133D1088F80D0001F0F8F9400903D101F0F4F935
S1133D2084400BE001F0F0F9450901F0EDF900F0F1
S1133D301F0045F01805844044EAC5640522214665
S1133D40082011F0F7F80020BDE8F68131783868D2
S1133D5015FB01F5411970473A4E327838253A4F30
S1133D6039686A437047FF2212E0000038B5044600
S1133D70104603280D4618BF042801D0022032BD86
S1133D8000F066FD294620465FF0FF02BDE838409A
S1133D902DE9FC41164680462A4A0D4600F0F2FD04
S1133DA03FD08778022F07D0032F3AD15FEA08016A
S1133DB002D10079810734D4332001F091F80BF05B
S1133DC061FB15F0784F294612BF0522DFF83C0845
S1133DD00278062011F0AEF80446A0B9184F3873E3
S1133DE001200AF052FE0EF0FAFE78805FEA080025
S1133DF014BF022001203870381D00F017FF002086
S1133E007873BE7302E0384601F06AF85FEA08008E
S1133E103146284602D0FDF76CFB03E0FDF768FB52
S1133E2000E070240194009543462C220AA103204B
S1133E3007F08CFD2046BDE8F681000042420000F8
S1133E4080F600202FFE00204CC30020284E0000E6
S1133E50C8FD0020A4F600204242444200000000B5
S1133E6010B507F0B8FF00F11004204611F0AAFACB
S1133E704FF6FF5101402046BDE8104011F0A8BAAA
S1133E8078B587B00C4616461D4630B9204603F077
S1133E90ECFE03A910F0DCFD03A80C9901900723A4
S1133EA08DF8096001208DF80830360A8DF80B1062
S1133EB000908DF80A60042302AA0121204611F023
S1133EC0D3FB060017D0214611F008FE15B9304681
S1133ED0FFF7C6FF0D9808B930460DE0204603F001
S1133EE0F0FF18B1304611F0E2FE04E00022002198
S1133EF0304612F0AEFA002008B070BD2DE9F64F3E
S1133F0085B08A461C46104611F0B0FE0546BDF841
S1133F10180003A9002711F0E3FB002C4FF6FF79EA
S1133F20B84614BF4FF0010BBB460026BBF1000F8F
S1133F3007D008B10DF10C086678760806F0010682
S1133F4004E0BDF8180011F005FE8046DFF8601C9F
S1133F500978DFF8A42C382012684143531C585CBC
S1133F6003281CBF0428B8F1000F00F0B380109898
S1133F706B1C11441D5C8DF808A0680800F001005A
S1133F808DF809002806887858BF45F08005022876
S1133F9007D15FEA0A0002BF496B91F824000028A8
S1133FA001D1022730E040460EF06EFDADF800006E
S1133FB0BDF8180011F0E4FD814608B94FF001097D
S1133FC030000CBF4FF0050A4FF0010ABBF1000F9F
S1133FD004D0201D11F0F6F9834601E0BDF800B0CD
S1133FE0BDF8180011F048FDCDF80490CDF800A0FC
S1133FF02B465A46414600F0010010F009FC00F03F
S113400073F8814608BF01279CB19DF8080018B9D0
S1134010484600F069F802D1201D11F0D3F90121BE
S113402001910146009733464A464046FFF728FF70
S11340300AE0BDF8180011F01FFD3B464A46414610
S113404000F0010011F091F89DF8090020B94FF635
S1134050FF71404612F053FD002F3BD19DF809003B
S113406028B14146484612F075FD12F0D8FD3000E3
S11340701EBF48464FF6FF71884219D003F0F5FD84
S1134080FF2815D0DFF8287B97F800C0DFF8681BFD
S11340900A68382111FB0CFC02F134034BF6FF7162
S11340A053F80C20526832F810300B4022F81030CC
S11340B084B10EF078FD0EB1002405E09DF80810DF
S11340C0002914BF03240124014643464A462046DE
S11340D012F0B6FF07B0BDE8F08F0000C2FD00206B
S11340E0A8F80020CFC700204FF6FF718842704720
S11340F02DE9FE4F81460F46144601A9384611F0BA
S1134100EFFA834600210091384611F0AFFD824654
S1134110DFF8D46B5FEA090009D0BBF1000F504609
S113412018BF0DF1040B11F0D0FA054604E038462F
S113413011F010FD83463546384611F097FD0259BB
S11341400DF10100009211F03DF980465FEA09008B
S11341509DF8034018BF002D06D00822314628469A
S113416013F0B2FA002823D1DFF8446A31783825F5
S1134170DFF8842A15FB01F112685318D87818B1B6
S11341809AF80100830714D55FEA090011D0901C46
S1134190415C022908BF002C0BD140460EF00FFDF4
S11341A00DF070FC9923FFF77AFA9920FEF79AF83C
S11341B072E000F06BFF0028DFF82C7C18BF002CA5
S11341C005D09420FFF733FA0020387664E000F03D
S11341D05DFF002860D0584612F0D1FAFF28DFF8BE
S11341E0BC4B18BF5FEA090106D132784820594612
S11341F04243A05A12F0AEFC12F011FD317848206F
S11342005A4641434046615ADFF8EC4900F09AFBB4
S1134210DFF8C80B90F9021009027984307821681C
S113422015FB00F08A1C125C012A16BF312A1122E8
S11342304322891C0A540220FDF7E1FFDFF8AC0B8E
S1134240016807F11800FCF7ACF911F092F80020AE
S11342503874317815FB01F521684A19D07820B9F2
S113426007F11800FCF792F914E0B9F1000F06D039
S11342709AF80100820702D5FFF730F90AE0481CDA
S1134280415D042906D1052107F11800FCF789F9DD
S113429009203874AD21F97300F063FC10B10020DB
S11342A003F07EFFBDE8F78FE0C70020E3C70020DE
S11342B02DFE002000F8FF07D8F500202DE9F04F6F
S11342C088468DB0404611F0D1FC054609220021F4
S11342D013F02EFA0646404611F03CFC824602AB2F
S11342E0052205A9404613F07BFA8DF80000022848
S11342F02AD09DF8080000238619F6B2A95D06F1BC
S11343001002D2B28DF8011041460120FDF7ECF8FD
S1134310002819D09DF801003827DFF89448DFF809
S1134320D8984FF6FF7B01280FD0022819D0042813
S113433000F0CA80062822D0072800F091800828BF
S113434038D07C2800F09380E4E0404611F094FBE0
S1134350009600234246002100F00100FFF7CEFD45
S1134360D8E000F0E0F8012B02BFDFF87C1A0878EF
S1134370002803D132464146FFF7BAFECAE0504650
S113438003F023FC0646584508D0404611F074FB60
S11343903246514600F0010010F0D2FE00F0C3F89E
S11343A0022B06D1FDF730FF5046FDF793F8FDF7D9
S11343B02FFFAFE0A819401C11F004F8ADF802007B
S11343C0A819C01C10F0FEFFADF80000A819801D4C
S11343D010F0F8FF06465845EBD010F0CAFF00F085
S11343E09CF88B5C132B09D100F041FB404611F083
S11343F0B1FB0146BDF8000012F0ACFB00F08DF8F3
S1134400885C022818BF132823D130460EF0D7FB4E
S1134410BDF802000EF0EFFB0021002000F0BCFA12
S1134420BDF80000514600F01BFCDFF8B009C0786D
S1134430DFF8BC190F28B4BF401C0F20087000F02F
S1134440CCF8207817FB00F7D9F80000811CCA5D6E
S1134450132A5FD12321801CC15510F0DDFD59E0E2
S11344609DF8001005AA40460AF025FB52E0A81961
S11344704078652802BFA91C885D6D284AD1404652
S1134480133607F0C0FCF1B2814243D208225146F0
S113449003A8FDF77FFD6A46F1B2404610F09CFF89
S11344A0C0BBBDF80000A8B3DFF848490120207064
S11344B0FDF7AAFEBDF8001003A8FDF700F8FDF70C
S11344C0A7FE0020207025E006220021284613F0D4
S11344D02FF9281810F076FF04460FF65C100088B8
S11344E000210191ADF80A00009102230DF10A02A6
S11344F00121204611F0B8F806000BD0214611F036
S1134500EDFA404611F0B8FA0022314600F00100FD
S11345100AF0FFF80DB0BDE8F08F2278D9F800005A
S11345207A43811C70472278D9F8000017FB02F700
S1134530811CCB5D7047F8B50220FDF761FEFDF7E5
S113454066FEDFF8A448002020763825DFF8606690
S1134550DFF8A4760BF0E5F940B1327839686A43A4
S11345600A44D07810B9FEF7B9FF2BE00BF0D9F963
S113457010B900F08BFD68B1207C58B100F023F82D
S1134580207C411E2174FDF740FE0146002003F00B
S11345906AFF17E0327838686A43811C8B5C132BFE
S11345A00DD000F073FD50B93278386815FB02F570
S11345B0811C485D11281CBF4328412802D1E07B9F
S11345C0FFF735F8C9E2C82104F11800FBF7E9BF89
S11345D00020DFF814180874704780B5FDF740FE1A
S11345E0FF2807D000F0E6FA416B91F8240010B1DF
S11345F0012000E0002010F04DFDDFF8EC07002161
S11346004180001DC0E9001101BD0000E4C7002085
S11346102DE9F84F0C460546DFF8DC670121DFF889
S1134620BCA784B09046717350460AF0E8F913F0C1
S1134630F3F8002814D1012D18BF042D00D085B93A
S1134640CDF8008023462622BDA1032007F07EF981
S1134650FDF7DAFD4146204604F001FEFDF7D8FDE2
S1134660BBE0DFF84C753A78DFF88C5538242868BD
S11346706243811C885C23280DD100F003FC0446AE
S113468000F009FC214602F0B0FC022000F028FCF6
S11346900AF06BFFA1E0B8F1000FFBD121281CBF89
S11346A00428532802D10DF008FF96E000F0EEFC38
S11346B0002800F0AC800AF0E4F928B9307B002827
S11346C00CBFAB2094209FE050460AF098F928B123
S11346D040F2D6610FF25070FCF7E0FD307818B963
S11346E05046FFF732FA78E00EF05DFA3A788346E6
S11346F028686243411C885C032818BF042807D13A
S11347009AF80700C10744BF9AF9050010F0BFFCEE
S11347109AF80000DFF884864FF0480900F052FA56
S1134720BAF80A00002100F09BFA00F0AFFC80B157
S1134730BBF1000F03D04FF6F8718B4509DB0EF087
S113474045FD3978834619FB01F138F80120904280
S1134750F5D058460EF033FABAF808000EF04BFACA
S113476006208DF8080000F06CFA8DF8090000208E
S1134770019000903878022302AA19FB00F001216D
S113478038F8000010F070FF824608B918203BE0AA
S1134790387819FB00F9504638F8091011F09EF9E1
S11347A0307802281CBF5046FFF75AFB0022002134
S11347B0504611F04EFE30B39420F0730220FDF702
S11347C01EFD3A78286800F079F814D1C82106F162
S11347D01800FBF7E6FE032030741020002103F0DC
S11347E053FB10B911F07FFE10B1002003F03AFE24
S11347F005B0BDE8F08F4FF4167106F11800FBF711
S1134800D0FE0020E8E79420FEF711FFE5E73A78B0
S113481028686243811C8B5C132BDED100F008F9FD
S1134820BDF800000EF0E7F900F021F9387814FB28
S113483000F42868411C095D032918BF042904D128
S11348403321801C01559620DEE7FEF7B9FEC4E74C
S1134850F8B50746D64D2878DFF8A06538243168C6
S113486060434A1C135CBB4204D0491C0F543846B5
S1134870FDF731FD12F0D9FF60B13FB9002012F00D
S1134880D6FFFDF7C2FC0146012212E0012012F01E
S1134890CEFF00E027B12A78306800F00FF804D189
S11348A0FDF7B3FC0146002203E0FDF7AEFC012254
S11348B001460020BDE8F84009F000BF14FB02F4F3
S11348C0411C0B5D042B704770B592B006460C4634
S11348D0FDF78FFCE17A0546002008F086F808B958
S11348E08A202AE094F90A0000F0EEFB08B18B203C
S11348F023E000F07AF9E17A00F8D41FA27A29467D
S113490042706A46002003F0D6FC4FF6FE708642E1
S1134910ADF804606A460CBF4FF6FF702089ADF80D
S113492002002946002003F0EBFB08B1022004E05A
S11349302089DFF8C4144880002012B070BD000044
S11349404242420038B50C4615460EF038F90EF0D6
S1134950F5FB2946204600F083F90AF092F838B1B5
S1134960DFF87804C0780F28ACBF0F20401C05E0A6
S11349708F4A00F007F80CBF00200120DFF8701404
S1134980087031BDDFF8740413780168382043439C
S1134990C8184178012970477FB504460E4600F0D7
S11349A047F8834DC4B1DFF85824002130460DF098
S11349B060FB29783820904A414310680822435C00
S11349C008448DF80430417802A88DF8051021467A
S11349D0FDF7E0FA12F0EAFF2A784820DFF8241401
S11349E04243881810F8D41F8DF8031041788DF8CD
S11349F002100EF0F4F8ADF800000EF0D4F8ADF8A3
S1134A00060000F017F87FBD1FB5044600F010F84B
S1134A101CB100208DF8050007E00EF0C4F8ADF8D5
S1134A2006000EF0DCF8ADF8000000F003F81FBD3E
S1134A3068464EE010230722694600200DF03DBA77
S1134A4080B58AB0FFF7F4FFBDF8000004A9ADF803
S1134A5018009DF803008DF81B009DF802008DF8E6
S1134A601A00BDF80600FFF72FFF0BB000BD70B5AC
S1134A7086B0012000F03AF90FF2C031D1E90023E9
S1134A804FF6FF7504002E46CDE900230ED04849A9
S1134A900A784820DFF86C634243B018B0F8E2604B
S1134AA000F1E40108226846FDF774FA12F08FFF62
S1134AB002A800F00EF8002CBDF80E000EBF002274
S1134AC06A4635462946FFF73DFF13F080FA06B0E3
S1134AD070BD01461023072201200DF0EEB9F8B590
S1134AE004460820FDF78CFBFDF791FB304DDFF801
S1134AF018032B78017848204343DFF80823D018A3
S1134B0080F8D41000F02DF810B1002003F048FB19
S1134B1000210020FFF740FF29783826364F3868F7
S1134B20714301444878032818BF042802D110F0C7
S1134B30AFFA01E010F093F8204603F000FC9B2349
S1134B40FEF7ADFD9B20FDF7CDFB297838680022E8
S1134B5016FB01F6304402854285BDE8F140FDF7BD
S1134B6057BB002007F0F1BE10B5044621460020D3
S1134B7007F03BFF08B98A2010BD00F01BF88078CD
S1134B80022818BF032801D0702010BD9E4804706D
S1134B900820FDF734FB0EF006F908B13D2010BDE6
S1134BA09A4A9B4903F0B1FB00B1A12010BD00005B
S1134BB02FFE0020974A1048137801683820434399
S1134BC0C818704710B504460EF0EDF808B13D2042
S1134BD010BD00F00AF880F8D440FFF7C2FF10B10E
S1134BE0002003F0DDFA002010BD8A4A1378482023
S1134BF084494343C81870474CC3002038B584B077
S1134C0004466846FFF765FF9DF8050040B1042897
S1134C1006DC00F0AFF89DF80410525D8A4201D022
S1134C20932001E02070002005B030BD1FB504467C
S1134C306846FFF74EFF082202A92046FDF7AAF9AD
S1134C401FBD744B10B500F005F873491019427874
S1134C50885C10BD69481C7802683820444370475A
S1134C602DE9F84381466B4E307848250C4668435D
S1134C70644F92B0391807F1E408A1F8E290404477
S1134C801CB90821FDF782F903E008222146FDF74B
S1134C9081F9FDF7AEFA01466A46002003F00BFBEA
S1134CA030780822684308EB000104A8FDF772F984
S1134CB0ADF80E90FDF79DFA01466A46002003F018
S1134CC01FFA30784FF6FF7115FB00F57819B0F82C
S1134CD0E20088421EBF002C08EB0501FCF70CFC27
S1134CE013B0BDE8F0830000D0F600203EB50446C2
S1134CF0414890F820104FF6FF75C80708D500F01A
S1134D001AF8BDF80800A84202D000F00FF828B144
S1134D1000212846FFF7A4FF00203EBD24B1BDF8C2
S1134D2008006946FFF79CFF01203EBD0822FF21D1
S1134D30684600F099B90A230A22694601200DF059
S1134D40BCB838B50446354802F0A0FE00F012F8AD
S1134D5051194A6B002C82F826401EBF304909883D
S1134D60002906D04FF47A725143BDE83440FBF772
S1134D7018BC31BD274B21491D780A6838214D43A1
S1134D807047244A1D481378016838204343C818E3
S1134D90416B91F826007047000000008AF900205A
S1134DA038B5FBF7FCFC05461E4902F070FE0446CC
S1134DB0FF2818BFFDF72BFA164B002028701D782A
S1134DC00E4938200A6845435019416B0020FF2CD6
S1134DD081F8260000D003E031BD0000A4F60020D5
S1134DE0BDE83140FDF714BA80F60020D8C3002096
S1134DF03DFE0020C4F6002080F600204CC30020B5
S1134E0000F8FF07A8F800202EFE002091FE000005
S1134E10DF4A00002FFE0020144D0100F0F50020B1
S1134E20A2C7002018F600206173736F6369617470
S1134E30696F6E2E6300000004600000FFFFFFFF37
S1134E40FFFFFFFF20B500210FF2E422CBB2D35CB9
S1134E50834205D0491CCDB2082DF7D3002020BDD4
S1134E60012020BD20B500210FF2CC22CBB2D35CAF
S1134E70834205D0491CCDB2082DF7D3002020BDB4
S1134E80012020BD8B4A137848208B494343C8181E
S1134E90B0F8E2007047874A1378482086494343B4
S1134EA0C818E4307047834A84481378016838206E
S1134EB04343C818416B087E70477E4A7F48137885
S1134EC0016838204343C818C0787047794B10B53F
S1134ED07A491C780A6838214C431119C87010BDEE
S1134EE02DE9F041734D2A783824744E31686243B9
S1134EF0074673480A44977002F0C8FD804671481B
S1134F00022F1ED12B78316863434A1CD75C042FCF
S1134F1018BFFBF73BFB2A7830686243411C885C6E
S1134F2003281EBF04284046FBF730FB297830686D
S1134F3014FB01F401194A68D00054BF9024BC2426
S1134F4015E00021017088F8001009F023FC2A788C
S1134F50316814FB02F4481C005D032818BF0428C0
S1134F6002D110F095F801E00FF079FE912420466B
S1134F7012F057FC50B9234613224DA1032006F02A
S1134F80E5FC2046BDE8F041FDF7ACB9BDE8F08191
S1134F90484A4A481378016838204343C81880783F
S1134FA000F00F007047434A4448137801683820E2
S1134FB04343C818817801F00F01022901D101206F
S1134FC070470020704710B592B00446FFF7EBFF1E
S1134FD020B900F03FF818BF932019D1FDF709F963
S1134FE000F08DF8BDF8020020819DF80100A07248
S1134FF09DF800102046E172FFF718FE0020207390
S113500004F1140104F110000DF00BF8E08100200C
S113501012B010BD38B592B004460D46FFF7C3FF79
S113502020B900F017F818BF932011D1FDF7E1F86B
S113503001466A46204603F03EF99DF8010000212E
S1135040287069709DF8000000F01F00A87000200F
S113505013B030BD174A1948137801683820434308
S1135060C81881780329704710B5002300E05B1C41
S1135070DCB28C4205D210F8014B9442F7D00020E8
S113508010BD012010BD08210FF048BE094A0B488D
S11350901378016838204343C818807801281CBF5E
S11350A03128332801D101207047002070470000C7
S11350B0424200002FFE0020A8F800204CC300202C
S11350C0E8F5002030F8002070B5044692B021467F
S11350D0002007F054FC0546C0B268B9FDF789F812
S11350E006466A46314600F00CF88DF801406A46DF
S11350F03146002003F004F8E8B212B070BD014656
S11351006A46002003F0D7B880B592B0FDF771F875
S1135110FFF7F5FF9DF8000013B000BD01207047B4
S113512080B5FFF7F1FF400918BF012002BD000060
S11351300001020304051D200203040508090A0BEB
S11351404FF6FF720146904208D0000A01D00020B9
S113515070473B48027811EA020000D001207047F2
S1135160020A07D1364A1378002914BF184323EAE8
S113517000001070704710B5830800EB5374C10829
S11351800122E408A0EBC40002FA00F000EB0120C5
S113519080B210BDF8B504460D4616461F46FFF70B
S11351A0CFFF58B13A463146202008F053FC1DB1D8
S11351B020A1202008F046FC22480480F1BD0CB454
S11351C080B50A4602AB012104E00CB480B50A465E
S11351D002AB0021FFF7DEFF01BC5DF80CFB2DE9FB
S11351E0FC410024184DDFF8648013A713A6A0B275
S11351F0FFF7C1FFFFF7A4FF00282246294614BF8A
S113520030463846009058F824302020641C08F0BA
S113521006FC2020FDF726FF042CE8DBBDE8F38123
S1135220FF2201210648FDF783BF054800210170D4
S1135230704700000D0A00006E6F000059455300CE
S1135240BEC7002086FA00201C0C030088BF002083
S113525080B5FFF790FF012103E080B5FFF78BFFD6
S11352600021BDE804407BE7F0B5414CB0FBF4F409
S11352700A463F4901FB14004FF461654FF4616134
S1135280B0FBF5F53C270123157115792E4601FB7A
S11352901606A0EB05103C21B6FBF7F70026577164
S11352A0557901FB1500314D90714FF4FA6010806F
S11352B09370D37003E0002300E00123761CA64220
S11352C035D29078190003D0022808BF1D2102D0DE
S11352D0291811F8011CD778B94203BF401C9070FB
S11352E001277F1C9078D7700D28E7D113880120FF
S11352F05B1C13809BB290705F0803EB977080086F
S1135300B3EB8001D7D1642093FBF0F0642101FB5F
S113531010300028D1D14FF4C87093FBF0F04FF453
S1135320C87101FB10335B1E9B41DB0FC6E7F0BD68
S113533018B587B0044605A9FFF796FF9DF81A0033
S11353409DF819109DF8173003909DF818000291EC
S1135350BDF81410019007489DF8162000880091AC
S113536004940549FFF72BFF08B010BD3C0F030060
S11353708051010086FA0020180F0300FCF728B9B9
S1135380FCF7DEB82DE9F04104460D461646984672
S1135390FFF7D6FE50B1002705E02A5C41462046BF
S11353A0FFF713FF7F1CB8B2B042F6D3BDE8F0811B
S11353B0002B14BF40A341A3E4E738B504460D46CF
S11353C0284600F0CEFB0246691C07E038B50446C7
S11353D00D46284600F0CAFB0246A91C204601B02F
S11353E037A3BDE83040CDE718B587B001783B4C12
S11353F006914278059281780491C27803920179EA
S113540002914279019281793E220091C3792088E8
S11354103149FFF7DAFE08B010BD01460022022030
S1135420FFE72DE9F84F88469246002626A727A4D1
S11354300FF29009294D8DF800009DF800B05E45EB
S113544015DA28880123082208EBC601FFF7B0FF0C
S11354505FEA0A0004D1701C584518BF4A4600D1BF
S1135460224628883946761CFFF7AFFEE5E7BDE8FB
S1135470F18F2DE9F0410446184D2888FFF760FEAE
S1135480B0B10120002612A70FF24808E1070AD59F
S113549018B928884146FFF798FE2888F2B23946A1
S11354A0FFF793FE0020761C6408F1B21B29EDDBA4
S11354B0BDE8F08100000000257820002578000078
S11354C02563000000000000202570000D0A000084
S11354D0256400002C200000CC0B030086FA002079
S11354E01CB5044621684879FCF77EF888B9206821
S11354F0418803290DD0E27C00910B490192437944
S11355000A4A0120FFF75BFE01212046FCF7DAFB83
S113551007E0204612F062FD01001CBF2046FCF7A4
S1135520D1FB012016BD00BF2C0C0300580C030056
S11355300098002100E0491C8AB28242FBD37047E4
S11355402DE9F04F87B004462168E07C0025B1F8CE
S113555002900490607DD4F80880A6890028277DF5
S113556007BF40228DF80C2080238DF80C30487939
S1135570FCF73AF8C8B90498002818BF022814D0D8
S113558003281CBF0528B9F1030F0ED0DFF89C14C3
S11355900120FFF714FE049BDFF89424DFF8941431
S11355A00220FFF70CFE012115E2E07B18B1218AED
S11355B0002900F04481DFF880341D80617D0029DA
S11355C00CBF0821002108B141F00401084600F095
S11355D085FAE07B18B1208A00F08FFA0546A07C9A
S11355E008EB070ADFF854B400F078FAF31BADF8BF
S11355F00030049B791C8AB2162B00F22081DFE86C
S113560013F0170026017B00340055017B001901BB
S11356105A0120015F0164016901CB0080011E0170
S11356201E011E019001CF019001DC01CB0080011D
S1135630012000F053FADFF800549DF80CA0B8B232
S1135640801C8642C0F0A5803246B9B2404600F0C4
S11356507FFA834600F01DFAFCF703FD18B900F049
S113566018FA12F087FEBF1CE9E7042000F036FAAE
S11356700025ADF80E901FE09DF80D00CDF804B0A4
S11356809DF80C300290218A524600912068BDF8A2
S11356900E10407912F02DFD834650B1584600F0AB
S11356A01DFA50466D1C00F028FABBF1800F00F083
S11356B09B814F44FF1CBFB2F01E874280F094814F
S11356C000F0DCF9824608F10200C15D08F1030232
S11356D002EB070BF21B8DF80D109DF80D00D21E86
S11356E092B2594612F086FF5FEA0009C4D14FF026
S11356F0800BD3E7D0490880042000F0EFF94FF085
S1135700000AADF80E90CDF81880D34625460596CC
S11357100598FA1C824280F07B8182B20698394651
S113572000F016FA80460698059A811C11F8079035
S1135730C11CD21BCE19D21E92B23146484612F079
S113574059FF04000AF101008DF80D0000F05881A2
S1135750CDF808900196288A9DF80C30BDF80E10FB
S1135760009028684246407912F08CFC010007D072
S11357709DF80DA000F0B2F9404600F0BEF901E03A
S11357800BF1010BE719FF1CBFB2C1E7002000F0C9
S1135790A5F9FCF753FA21E10C2B0CBF0D201620C0
S11357A000F09CF900F06AF90499064608F1020039
S11357B010F807800C2905D1B8F11A0F09DB4FF056
S11357C0190806E0152904D1B8F1140FA8BF4FF049
S11357D01308E07B98B1208A4FF6FF7188420ED1FE
S11357E020689DF80C3032464079494612F09CFC02
S11357F04FF6FF71884218BF002D00F044F98E481F
S1135800018800200BEB010700F068F90498CDF83B
S113581004809DF80C301528324649460CBF0120FF
S113582000200290208A00902468607912F0D7FC4E
S11358303870AEE72046FBF76FFE0028ABD181211C
S1135840C9E02046FBF7B4FE0028A4D1F7E7B9F17C
S11358500A0F26D17A4D287818B3E07B002804BFBC
S1135860F01B08281DD100F009F9002802BF08F137
S11358700201C85D002804BF9AF80300E22810D191
S11358803F1D3246B9B2404600F060F9FFF776FD9D
S1135890FFF776FD02466B490220FFF790FC0020DB
S11358A0287000F0E6F8FCF7EDFB92E000F0E1F878
S11358B0FBF793FE8DE000F0DCF8FBF72FFE88E0A9
S11358C000F0D7F8FBF776FE83E000F0D2F8FCF79F
S11358D0DBFB7EE0208A89B29AF8007018F8015048
S11358E001909DF80C102B463A46009124684946D5
S11358F06079FAF7D1FF2A4639464846FBF710FE8D
S11359006CE09AF8001001B10121162B0CBF0120A4
S113591000200090B61AB3B242444846FBF702FE98
S113592057E008F101009AF8006010F80780112B85
S113593004D1122000F0D2F8002703E0142000F074
S1135940CDF80127E07B78B1208A4FF6FF7A5045E5
S11359500AD133464A4621463846FBF749FB5045AF
S113596018BF002D00F08FF8334D2888CDF80C8037
S113597002968246C0F15100019580B200900BF16D
S1135980010000EB0A034A4621463846FBF76AFB4E
S113599000B101200BF80A002888401C2880F8E692
S11359A000F059F81CDB00F05CF80020FFF7C0FDA4
S11359B000F04AF8FBF7BAFD0BE000F04CF80FDBFF
S11359C000F04FF80120FFF7B3FD00F03DF8FBF7BE
S11359D0ABFD18B900212046FCF774F9012000E062
S11359E0002007B0BDE8F08FEDB2BDF80E90002D99
S11359F0D5D1E07B277D002814BF0420022079E65E
S1135A009DF80DA0872000F069F8404600F075F875
S1135A1004980528E2D0BAF1000FC0D15FFA8BF0E8
S1135A2000287FF4B3AE80212846D5E7600C03003C
S1135A30880C03006C0C030072FA002080CC002058
S1135A40DEFD0020900C0300B6B20096218A434686
S1135A503A46484670479AF8007007B101279642C3
S1135A607047B61AB0B29044009043463A4649464D
S1135A707047BDF8002051464846704732463946C3
S1135A80404600F065B803D020822870000A687090
S1135A907047288853465A46C0F1520080B201909C
S1135AA0218A0091D4F800C049469CF8050070474B
S1135AB080B500203349087003F072F9324A10802F
S1135AC05221324800F0BEF80020314908803148A4
S1135AD000210022002380E80E0001BD10B52C49EE
S1135AE00A88522A07DA294CA054521C0A8092B21E
S1135AF0A018401E10BD002010BD38B50546C0B228
S1135B00FFF7ECFF0446280AFFF7E8FF002C18BF54
S1135B10002801D0204632BD002032BD70B50024DB
S1135B205E181D46B2420CDA1A461B4900F016F8FC
S1135B30002070BD5218024412F8013C6D1E03EBA4
S1135B400424EAB2002AF5D1204670BD0423E5E717
S1135B5080B50223FFF7E2FF80B202BD0220FFF707
S1135B602EBB0078FF2808BF0020704780B50222B2
S1135B700021FFF7EDFF4FF6FF72904208BF0020AF
S1135B8002BD0000E5FD0020F6F7002080CC0020D7
S1135B9072FA002074CC00207C07030062B38B07E8
S1135BA008D0521E11F8013B00F8013B00F024809C
S1135BB08B07F6D1830740F0208000BF103A07D34B
S1135BC030B4B1E83810103AA0E83810F9D230BC3B
S1135BD0530724BFB1E80810A0E8081044BF51F8E7
S1135BE0043B40F8043BD20724BF31F8022B20F8D1
S1135BF0022B44BF0B7803707047121F17D35B004E
S1135C0009D151F8043B20F8023B1B0C121F20F869
S1135C10023BF6D20BE051F8043B00F8013B1B0AAF
S1135C2020F8023B1B0C121F00F8013BF3D238BFD3
S1135C30121D521E24BF11F8013B00F8013BF8D895
S1135C4070477047002208F09BBE70470120DFF8C0
S1135C50CC1408707047DFF8C4140A7882421CBF61
S1135C600870FDF70ABB70470170090A4170801C77
S1135C70704710B504460822FCF78CF904F10800BB
S1135C8010BD2DE9FF410446207D0F460A9E810781
S1135C9020781D464CBF4CF601484CF601080028FC
S1135CA033880CBF1E21202103EB010C624508DA66
S1135CB000920A46DFF868140420FFF786FA74207D
S1135CC045E008B948F0200801A803F059FA414614
S1135CD03846FFF7C9FFA189401CFFF7C5FF217DA6
S1135CE08A0703D5611CFFF7C4FF02E06189FFF74F
S1135CF0BBFF804603F056F801464046FFF7B4FF69
S1135D0001A9FFF7B6FF0B21FFF7AEFF217841F0A1
S1135D10030100F8011B22780C2A04BF618AFFF7F3
S1135D20A3FF218AFFF7A0FFE189FFF79DFF3288D7
S1135D3080462946FCF72EF9207DC10748BFB720CD
S1135D4005D431880B984144CF1B0780002004B050
S1135D50BDE8F081F8B504460E46154616212846DE
S1135D60FCF714F9627821784FF6DF7001EB022119
S1135D704CF60142014091421AD104F10D004178E0
S1135D800278871CA88A02EB0122394640F00200FF
S1135D90AA81A8820822681CFCF7FCF807F1080114
S1135DA030780A1BD2B2821AD0B2072806DA45E04C
S1135DB04CF60100814241D1E01DE0E74B780878C0
S1135DC000EB03230B2B39D18B78C91C961E23F0CF
S1135DD02C000328F6B2DFF84C2318BFDFF8481371
S1135DE029D113F00C00287018BF082802D00C2801
